{"contracts/VerisenseAVSManager.sol":{"VerisenseAVSManager":{"abi":[{"inputs":[],"name":"AVSOperatorStatusCallFailed","type":"error"},{"inputs":[{"internalType":"address","name":"target","type":"address"}],"name":"AddressEmptyCode","type":"error"},{"inputs":[{"internalType":"address","name":"account","type":"address"}],"name":"AddressInsufficientBalance","type":"error"},{"inputs":[],"name":"CommitmentChangeNotReady","type":"error"},{"inputs":[],"name":"DelegateKeyNotSet","type":"error"},{"inputs":[],"name":"DeregistrationAlreadyStarted","type":"error"},{"inputs":[],"name":"DeregistrationDelayNotElapsed","type":"error"},{"inputs":[],"name":"DeregistrationNotStarted","type":"error"},{"inputs":[],"name":"ECDSAInvalidSignature","type":"error"},{"inputs":[{"internalType":"uint256","name":"length","type":"uint256"}],"name":"ECDSAInvalidSignatureLength","type":"error"},{"inputs":[{"internalType":"bytes32","name":"s","type":"bytes32"}],"name":"ECDSAInvalidSignatureS","type":"error"},{"inputs":[{"internalType":"address","name":"implementation","type":"address"}],"name":"ERC1967InvalidImplementation","type":"error"},{"inputs":[],"name":"ERC1967NonPayable","type":"error"},{"inputs":[],"name":"FailedInnerCall","type":"error"},{"inputs":[],"name":"InvalidAVSDirectoryAddress","type":"error"},{"inputs":[],"name":"InvalidEigenDelegationManagerAddress","type":"error"},{"inputs":[],"name":"InvalidEigenPodManagerAddress","type":"error"},{"inputs":[],"name":"InvalidInitialization","type":"error"},{"inputs":[],"name":"InvalidRewardsCoordinatorAddress","type":"error"},{"inputs":[],"name":"NoEigenPod","type":"error"},{"inputs":[],"name":"NotDelegatedToOperator","type":"error"},{"inputs":[],"name":"NotInitializing","type":"error"},{"inputs":[],"name":"NotOperator","type":"error"},{"inputs":[],"name":"NotValidatorOperator","type":"error"},{"inputs":[],"name":"OperatorHasValidators","type":"error"},{"inputs":[],"name":"OperatorNotRegistered","type":"error"},{"inputs":[{"internalType":"address","name":"owner","type":"address"}],"name":"OwnableInvalidOwner","type":"error"},{"inputs":[{"internalType":"address","name":"account","type":"address"}],"name":"OwnableUnauthorizedAccount","type":"error"},{"inputs":[],"name":"RestakingStrategyAllowlistUpdateFailed","type":"error"},{"inputs":[{"internalType":"address","name":"token","type":"address"}],"name":"SafeERC20FailedOperation","type":"error"},{"inputs":[],"name":"UUPSUnauthorizedCallContext","type":"error"},{"inputs":[{"internalType":"bytes32","name":"slot","type":"bytes32"}],"name":"UUPSUnsupportedProxiableUUID","type":"error"},{"inputs":[],"name":"ValidatorAlreadyDeregistered","type":"error"},{"inputs":[],"name":"ValidatorAlreadyRegistered","type":"error"},{"inputs":[],"name":"ValidatorNotActive","type":"error"},{"anonymous":false,"inputs":[{"indexed":false,"internalType":"uint64","name":"oldDelay","type":"uint64"},{"indexed":false,"internalType":"uint64","name":"newDelay","type":"uint64"}],"name":"DeregistrationDelaySet","type":"event"},{"anonymous":false,"inputs":[{"indexed":false,"internalType":"uint64","name":"version","type":"uint64"}],"name":"Initialized","type":"event"},{"anonymous":false,"inputs":[{"indexed":true,"internalType":"address","name":"operator","type":"address"}],"name":"OperatorDeregisterStarted","type":"event"},{"anonymous":false,"inputs":[{"indexed":true,"internalType":"address","name":"operator","type":"address"}],"name":"OperatorDeregistered","type":"event"},{"anonymous":false,"inputs":[{"indexed":true,"internalType":"address","name":"operator","type":"address"}],"name":"OperatorRegistered","type":"event"},{"anonymous":false,"inputs":[],"name":"OperatorRewardsSubmitted","type":"event"},{"anonymous":false,"inputs":[{"indexed":true,"internalType":"address","name":"previousOwner","type":"address"},{"indexed":true,"internalType":"address","name":"newOwner","type":"address"}],"name":"OwnershipTransferred","type":"event"},{"anonymous":false,"inputs":[{"indexed":true,"internalType":"address","name":"strategy","type":"address"},{"indexed":false,"internalType":"bool","name":"allowed","type":"bool"}],"name":"RestakingStrategyAllowlistUpdated","type":"event"},{"anonymous":false,"inputs":[{"indexed":true,"internalType":"address","name":"implementation","type":"address"}],"name":"Upgraded","type":"event"},{"anonymous":false,"inputs":[{"indexed":true,"internalType":"address","name":"operator","type":"address"},{"indexed":false,"internalType":"bytes32","name":"blsPubKeyHash","type":"bytes32"}],"name":"ValidatorDeregistered","type":"event"},{"anonymous":false,"inputs":[{"indexed":true,"internalType":"address","name":"podOwner","type":"address"},{"indexed":true,"internalType":"address","name":"operator","type":"address"},{"indexed":false,"internalType":"bytes","name":"delegateKey","type":"bytes"},{"indexed":false,"internalType":"bytes32","name":"blsPubKeyHash","type":"bytes32"},{"indexed":false,"internalType":"uint256","name":"validatorIndex","type":"uint256"}],"name":"ValidatorRegistered","type":"event"},{"inputs":[],"name":"AVS_DIRECTORY","outputs":[{"internalType":"contract IAVSDirectory","name":"","type":"address"}],"stateMutability":"view","type":"function"},{"inputs":[],"name":"EIGEN_DELEGATION_MANAGER","outputs":[{"internalType":"contract IDelegationManager","name":"","type":"address"}],"stateMutability":"view","type":"function"},{"inputs":[],"name":"EIGEN_POD_MANAGER","outputs":[{"internalType":"contract IEigenPodManager","name":"","type":"address"}],"stateMutability":"view","type":"function"},{"inputs":[],"name":"EIGEN_REWARDS_COORDINATOR","outputs":[{"internalType":"contract IRewardsCoordinator","name":"","type":"address"}],"stateMutability":"view","type":"function"},{"inputs":[],"name":"UPGRADE_INTERFACE_VERSION","outputs":[{"internalType":"string","name":"","type":"string"}],"stateMutability":"view","type":"function"},{"inputs":[{"internalType":"address","name":"operator","type":"address"},{"internalType":"address","name":"avs","type":"address"},{"internalType":"bytes32","name":"salt","type":"bytes32"},{"internalType":"uint256","name":"expiry","type":"uint256"}],"name":"calculateOperatorAVSRegistrationDigestHash","outputs":[{"internalType":"bytes32","name":"","type":"bytes32"}],"stateMutability":"view","type":"function"},{"inputs":[{"internalType":"bytes32","name":"message_hash","type":"bytes32"},{"internalType":"bytes","name":"signature","type":"bytes"}],"name":"ecdsa_check","outputs":[{"internalType":"address","name":"","type":"address"}],"stateMutability":"pure","type":"function"},{"inputs":[],"name":"finishDeregisterOperator","outputs":[],"stateMutability":"nonpayable","type":"function"},{"inputs":[],"name":"getDeregistrationDelay","outputs":[{"internalType":"uint64","name":"","type":"uint64"}],"stateMutability":"view","type":"function"},{"inputs":[{"internalType":"address","name":"operator","type":"address"}],"name":"getOperator","outputs":[{"components":[{"internalType":"uint128","name":"startDeregisterOperatorBlock","type":"uint128"},{"internalType":"bool","name":"isRegistered","type":"bool"}],"internalType":"struct IVerisenseAVSManager.OperatorDataExtended","name":"","type":"tuple"}],"stateMutability":"view","type":"function"},{"inputs":[{"internalType":"address","name":"operator","type":"address"}],"name":"getOperatorRestakedStrategies","outputs":[{"internalType":"address[]","name":"restakedStrategies","type":"address[]"}],"stateMutability":"view","type":"function"},{"inputs":[],"name":"getOperators","outputs":[{"components":[{"internalType":"address","name":"operator","type":"address"},{"internalType":"uint256","name":"stake","type":"uint256"},{"internalType":"bytes32","name":"substratePubkey","type":"bytes32"},{"internalType":"address[]","name":"restakedStrategies","type":"address[]"}],"internalType":"struct IVerisenseAVSManager.OperatorValidData[]","name":"operatorList","type":"tuple[]"}],"stateMutability":"view","type":"function"},{"inputs":[],"name":"getRestakeableStrategies","outputs":[{"internalType":"address[]","name":"","type":"address[]"}],"stateMutability":"view","type":"function"},{"inputs":[{"internalType":"address","name":"eigenPodManagerAddress","type":"address"},{"internalType":"address","name":"eigenDelegationManagerAddress","type":"address"},{"internalType":"address","name":"avsDirectoryAddress","type":"address"},{"internalType":"address","name":"rewardsCoordinatorAddress","type":"address"},{"internalType":"uint64","name":"initialDeregistrationDelay","type":"uint64"}],"name":"initialize","outputs":[],"stateMutability":"nonpayable","type":"function"},{"inputs":[],"name":"latestRewardedEra","outputs":[{"internalType":"uint256","name":"","type":"uint256"}],"stateMutability":"view","type":"function"},{"inputs":[],"name":"owner","outputs":[{"internalType":"address","name":"","type":"address"}],"stateMutability":"view","type":"function"},{"inputs":[],"name":"proxiableUUID","outputs":[{"internalType":"bytes32","name":"","type":"bytes32"}],"stateMutability":"view","type":"function"},{"inputs":[{"components":[{"internalType":"bytes","name":"signature","type":"bytes"},{"internalType":"bytes32","name":"salt","type":"bytes32"},{"internalType":"uint256","name":"expiry","type":"uint256"}],"internalType":"struct ISignatureUtils.SignatureWithSaltAndExpiry","name":"operatorSignature","type":"tuple"},{"internalType":"bytes32","name":"substrate_pubkey","type":"bytes32"}],"name":"registerOperator","outputs":[],"stateMutability":"nonpayable","type":"function"},{"inputs":[],"name":"renounceOwnership","outputs":[],"stateMutability":"nonpayable","type":"function"},{"inputs":[{"internalType":"address","name":"strategy","type":"address"},{"internalType":"bool","name":"allowed","type":"bool"}],"name":"setAllowlistRestakingStrategy","outputs":[],"stateMutability":"nonpayable","type":"function"},{"inputs":[{"internalType":"address","name":"claimer","type":"address"}],"name":"setClaimerFor","outputs":[],"stateMutability":"nonpayable","type":"function"},{"inputs":[{"internalType":"uint64","name":"newDelay","type":"uint64"}],"name":"setDeregistrationDelay","outputs":[],"stateMutability":"nonpayable","type":"function"},{"inputs":[],"name":"startDeregisterOperator","outputs":[],"stateMutability":"nonpayable","type":"function"},{"inputs":[{"internalType":"uint256","name":"eraIndex","type":"uint256"},{"components":[{"components":[{"internalType":"contract IStrategy","name":"strategy","type":"address"},{"internalType":"uint96","name":"multiplier","type":"uint96"}],"internalType":"struct IRewardsCoordinator.StrategyAndMultiplier[]","name":"strategiesAndMultipliers","type":"tuple[]"},{"internalType":"contract IERC20","name":"token","type":"address"},{"components":[{"internalType":"address","name":"operator","type":"address"},{"internalType":"uint256","name":"amount","type":"uint256"}],"internalType":"struct IRewardsCoordinator.OperatorReward[]","name":"operatorRewards","type":"tuple[]"},{"internalType":"uint32","name":"startTimestamp","type":"uint32"},{"internalType":"uint32","name":"duration","type":"uint32"},{"internalType":"string","name":"description","type":"string"}],"internalType":"struct IRewardsCoordinator.OperatorDirectedRewardsSubmission[]","name":"submissions","type":"tuple[]"}],"name":"submitOperatorRewards","outputs":[],"stateMutability":"nonpayable","type":"function"},{"inputs":[{"internalType":"address","name":"newOwner","type":"address"}],"name":"transferOwnership","outputs":[],"stateMutability":"nonpayable","type":"function"},{"inputs":[{"internalType":"string","name":"_metadataURI","type":"string"}],"name":"updateAVSMetadataURI","outputs":[],"stateMutability":"nonpayable","type":"function"},{"inputs":[{"internalType":"address","name":"newImplementation","type":"address"},{"internalType":"bytes","name":"data","type":"bytes"}],"name":"upgradeToAndCall","outputs":[],"stateMutability":"payable","type":"function"}],"evm":{"bytecode":{"linkReferences":{},"object":"60a0806040523461002a5730608052612caa908161003082396080518181816109080152610a430152f35b600080fdfe6080604052600436101561001257600080fd5b60003560e01c8062feb1d8146101c65780630a732358146101c1578063141fbdf2146101bc5780631ed6e115146101b757806327a099d8146101b257806333cfb7b7146101ad578063389517e4146101a857806343adc491146101a35780634f1ef2861461019e57806352d1902d146101995780635865c60c146101945780636d50275d1461018f578063715018a61461018a5780638495feab1461018557806384a3f19b146101805780638da5cb5b1461017b5780639375e71314610176578063a0169ddd14610171578063a1060c881461016c578063a98fb35514610167578063ad3cb1cc14610162578063ad656c561461015d578063ca1e1d6714610158578063e367216314610153578063e481af9d1461014e578063f2251b0f146101495763f2fde38b1461014457600080fd5b611412565b6113e9565b611374565b6111ff565b611124565b6110fb565b6110bd565b610fd9565b610e7d565b610e01565b610c68565b610c32565b610bfd565b610bb7565b610b4c565b610af1565b610a9b565b610a30565b6108c6565b610710565b61062d565b6105f9565b6104a4565b6103b2565b610389565b610360565b6101f7565b6001600160a01b038116036101dc57565b600080fd5b608435906001600160401b03821682036101dc57565b346101dc5760a03660031901126101dc57600435610214816101cb565b60243590610221826101cb565b60443561022d816101cb565b606435610239816101cb565b6102416101e1565b91600080516020612c3583398151915254946001600160401b0360ff8760401c161596168015908161034d575b6001149081610343575b15908161033a575b5061032857600080516020612c35833981519152805467ffffffffffffffff191660011790556102b494866103035761143f565b6102ba57005b600080516020612c35833981519152805460ff60401b19169055604051600181527fc7f505b2f371ae2175ee4913f4499e1f2633a7b5936321eed1cdaeb6115181d290602090a1005b600080516020612c35833981519152805460ff60401b1916600160401b17905561143f565b60405163f92ee8a960e01b8152600490fd5b90501538610280565b303b159150610278565b87915061026e565b60009103126101dc57565b346101dc5760003660031901126101dc576000546040516001600160a01b039091168152602090f35b346101dc5760003660031901126101dc576002546040516001600160a01b039091168152602090f35b346101dc5760003660031901126101dc576020600080516020612bb583398151915254604051908152f35b6020808201908083528351809252604092604081018260408560051b840101960194600080935b86851061041657505050505050505090565b9091929394959697603f198282030185528689519160808260a082840193600180831b039384885116825283880151848301528a8801518b8301526060809801519782015286518095520194019186915b8183106104885750505050806001929a019501950193969594929190610404565b835181168652948401948b949390930192600190920191610467565b346101dc5760003660031901126101dc57600080516020612bd5833981519152546104ce81611565565b6104d6611ba4565b60005b838110610503576104f683856104fa575b604051918291826103dd565b0390f35b600081526104ea565b8061052161051561051560019461247b565b6001600160a01b031690565b8261052b82611c34565b610534816115fa565b14610541575b50016104d9565b60208061055561055084611604565b61163d565b01516105618684611d8e565b61057261056d85611e52565b611fd3565b9261058d61057e610847565b6001600160a01b039096168652565b840152604083015260608201526105a385611694565b526105ad84611694565b503861053a565b602090602060408183019282815285518094520193019160005b8281106105dc575050505090565b83516001600160a01b0316855293810193928101926001016105ce565b346101dc5760203660031901126101dc576104f661062160043561061c816101cb565b611e52565b604051918291826105b4565b346101dc576000806003193601126107035761064833611c34565b60028110156106fe57156106ec573381527faf993094c8eaa0abdffcc638bc8d87f9c9a50f945db9b99ab0b6681eab4f4f00602052604081206001600160401b0390818154166106da576106b29143166001600160401b03166001600160401b0319825416179055565b337f34e20e11f51d19d6e90f5aaea605cb369f34ad23805c51d2e77d05c8208c85858280a280f35b604051630ebf7f5960e31b8152600490fd5b6040516325ec6c1f60e01b8152600490fd5b6115e4565b80fd5b801515036101dc57565b346101dc5760403660031901126101dc5760043561072d816101cb565b6024359061073a82610706565b6107426120e1565b81156107ab5761075a6001600160a01b03821661276f565b156107995760405191151582526001600160a01b0316907f74d2e573146a4c9fbfd23124ce9007a97aebeb715219b83507ec3a05209486bd90602090a2005b6040516379fdfc7d60e01b8152600490fd5b6107bd6001600160a01b0382166125a5565b61075a565b634e487b7160e01b600052604160045260246000fd5b6001600160401b0381116107eb57604052565b6107c2565b604081019081106001600160401b038211176107eb57604052565b608081019081106001600160401b038211176107eb57604052565b90601f801991011681019081106001600160401b038211176107eb57604052565b604051906108548261080b565b565b6001600160401b0381116107eb57601f01601f191660200190565b92919261087d82610856565b9161088b6040519384610826565b8294818452818301116101dc578281602093846000960137010152565b9080601f830112156101dc578160206108c393359101610871565b90565b60403660031901126101dc5760048035906108e0826101cb565b6024356001600160401b0381116101dc576108fe90369083016108a8565b6001600160a01b037f00000000000000000000000000000000000000000000000000000000000000008116308114908115610a14575b50610a035790602083926109466120e1565b6040516352d1902d60e01b8152938491829088165afa600092816109d2575b50610993575050604051634c9c8ce360e01b81526001600160a01b0390921690820190815281906020010390fd5b8383600080516020612c1583398151915284036109b6576109b48383612891565b005b604051632a87526960e21b815290810184815281906020010390fd5b6109f591935060203d6020116109fc575b6109ed8183610826565b810190611a06565b9138610965565b503d6109e3565b60405163703e46dd60e11b81528390fd5b905081600080516020612c158339815191525416141538610934565b346101dc5760003660031901126101dc577f00000000000000000000000000000000000000000000000000000000000000006001600160a01b03163003610a89576020604051600080516020612c158339815191528152f35b60405163703e46dd60e11b8152600490fd5b346101dc5760203660031901126101dc576040610acb600435610abd816101cb565b610ac56116ba565b5061211a565b60208251916fffffffffffffffffffffffffffffffff8151168352015115156020820152f35b346101dc5760403660031901126101dc576024356001600160401b0381116101dc57610b3a610b31610b2960209336906004016108a8565b600435612935565b9092919261297b565b6040516001600160a01b039091168152f35b346101dc5760008060031936011261070357610b666120e1565b600080516020612b9583398151915280546001600160a01b0319811690915581906001600160a01b03167f8be0079c531659141344cd1fd0a4f28419497f9722a3daafe3b4186f6b6457e08280a380f35b346101dc5760003660031901126101dc5760206001600160401b037faf993094c8eaa0abdffcc638bc8d87f9c9a50f945db9b99ab0b6681eab4f4f035416604051908152f35b346101dc5760203660031901126101dc576004356001600160401b03811681036101dc576109b490610c2d6120e1565b611aed565b346101dc5760003660031901126101dc57600080516020612b95833981519152546040516001600160a01b039091168152602090f35b346101dc576040806003193601126101dc576024356001600160401b03918282116101dc57366023830112156101dc5781600401359283116101dc576024820191602436918560051b0101116101dc57610cc06120e1565b610ccb600435612192565b60005b838110610d6d575050600254610cec906001600160a01b0316610515565b91823b156101dc57610d199260009283604051809681958294634e5cd2fd60e11b8452306004850161186f565b03925af18015610d6857610d4f575b7f410f403ed28055ee05512c23d09c2b582fa6d23119e026c0cfc4aa615cab07bb600080a1005b80610d5c610d62926107d8565b80610355565b38610d28565b6119fa565b610d788185856116d3565b600090838101610d8881836116f5565b849291505b808310610dd15750505060019291610db06105156105156020610dcb9501611770565b600254610dc5906001600160a01b0316610515565b90612279565b01610cce565b909193610df86001916020610df088610dea888a6116f5565b9061172a565b013590611763565b94019190610d8d565b346101dc576000602036600319011261070357600435610e20816101cb565b610e286120e1565b6002546001600160a01b0390811691839190833b15610e795760249083604051958694859363a0169ddd60e01b85521660048401525af18015610d6857610e6d575080f35b610e76906107d8565b80f35b8280fd5b346101dc5760803660031901126101dc5760048035610e9b816101cb565b60243590610ea8826101cb565b600354602090610ec0906001600160a01b0316610515565b60405163f698da2560e01b815294859182905afa918215610d68576104f693600093610faa575b50604080517fda2c89bafdd34776a2b8bb9c83c82f419e20cc8c67207f70edd58249b92661bd602082019081526001600160a01b0394851692820192909252929091166060830152604435608083015260643560a0830152610f8b91610f97918160c081015b0391610f61601f1993848101835282610826565b519020604051938491602083019687909160429261190160f01b8352600283015260228201520190565b03908101835282610826565b5190206040519081529081906020820190565b610f97919350610f8b92610fcf610f4d9260203d6020116109fc576109ed8183610826565b9492509250610ee7565b346101dc576000602036600319011261070357806004356001600160401b03811161107157366023820112156110715761101d903690602481600401359101610871565b6110256120e1565b6003546001600160a01b031690813b1561106d57829161105b9160405194858094819363a98fb35560e01b835260048301611074565b03925af18015610d6857610e6d575080f35b5050fd5b50fd5b6020808252825181830181905290939260005b8281106110a957505060409293506000838284010152601f8019910116010190565b818101860151848201604001528501611087565b346101dc5760003660031901126101dc576104f66040516110dd816107f0565b60058152640352e302e360dc1b602082015260405191829182611074565b346101dc5760003660031901126101dc576003546040516001600160a01b039091168152602090f35b346101dc576003196040368201126101dc57600435906001600160401b0382116101dc5760609082360301126101dc57600354611169906001600160a01b0316610515565b90813b156101dc5761119a6040518093818094639926ee7d60e01b8252600096879586926004013360048401611a15565b03925af18015610d68576111ec575b5060243560016111b833611604565b01556111c3336127f7565b50337f4d0eb1f4bac8744fd2be119845e23b3befc88094b42bcda1204c65694a00f9e58280a280f35b80610d5c6111f9926107d8565b386111a9565b346101dc576000806003193601126107035761121a33611c34565b60028110156106fe57156106ec5761124161123433611604565b546001600160401b031690565b6001600160401b038116156113625761128e61129a916112887faf993094c8eaa0abdffcc638bc8d87f9c9a50f945db9b99ab0b6681eab4f4f03546001600160401b031690565b90611a5e565b6001600160401b031690565b4310611350576003546112b5906001600160a01b0316610515565b803b1561134c576040516351b27a6d60e11b81523360048201529082908290602490829084905af18015610d6857611339575b506113076112f533611604565b60026000918281558260018201550155565b611310336126a2565b50337f6dd4ca66565fb3dee8076c654634c6c4ad949022d809d0394308617d6791218d8280a280f35b80610d5c611346926107d8565b386112e8565b5080fd5b60405163207c116160e01b8152600490fd5b60405163a9e6e7eb60e01b8152600490fd5b346101dc5760003660031901126101dc5760405180600080516020612c55833981519152918254808252602080920193600052600080516020612bf5833981519152916000905b8282106113d2576104f68561062181890382610826565b8354865294850194600193840193909101906113bb565b346101dc5760003660031901126101dc576001546040516001600160a01b039091168152602090f35b346101dc5760203660031901126101dc576109b4600435611432816101cb565b61143a6120e1565b611a79565b9293926001600160a01b039081169291831561153c57811691821561152a5781169485156115185716908115611506576114f5946114bb6114d89261149e610c2d9660018060a01b03166001600160601b0360a01b6000541617600055565b60018060a01b03166001600160601b0360a01b6001541617600155565b60018060a01b03166001600160601b0360a01b6003541617600355565b60018060a01b03166001600160601b0360a01b6002541617600255565b6114fe33611b5e565b6108546123d8565b604051637d2b055f60e11b8152600490fd5b604051632225cdcf60e11b8152600490fd5b604051632023de5360e11b8152600490fd5b604051635b9d55c760e11b8152600490fd5b6001600160401b0381116107eb5760051b60200190565b9061156f8261154e565b60409061157f6040519182610826565b8381528093611590601f199161154e565b019060009260005b8381106115a6575050505050565b81519060808201918083106001600160401b038411176107eb5760209284528681528287818301528785830152606080830152828601015201611598565b634e487b7160e01b600052602160045260246000fd5b600211156106fe57565b6001600160a01b031660009081527faf993094c8eaa0abdffcc638bc8d87f9c9a50f945db9b99ab0b6681eab4f4f006020526040902090565b90604051606081016001600160401b0393828210858311176107eb57600260ff91604093845284968154168552600181015460208601520154161515910152565b634e487b7160e01b600052603260045260246000fd5b8051156116a15760200190565b61167e565b80518210156116a15760209160051b010190565b604051906116c7826107f0565b60006020838281520152565b91908110156116a15760051b8101359060be19813603018212156101dc570190565b903590601e19813603018212156101dc57018035906001600160401b0382116101dc57602001918160061b360383136101dc57565b91908110156116a15760061b0190565b634e487b7160e01b600052601160045260246000fd5b906001820180921161175e57565b61173a565b9190820180921161175e57565b356108c3816101cb565b9035601e19823603018112156101dc5701602081359101916001600160401b0382116101dc578160061b360383136101dc57565b3590610854826101cb565b9190808252602080920192916000905b8282106117d7575050505090565b9091929360019085356117e9816101cb565b828060a01b031681528286013583820152604080910195019201909291926117c9565b359063ffffffff821682036101dc57565b9035601e19823603018112156101dc5701602081359101916001600160401b0382116101dc5781360383136101dc57565b908060209392818452848401376000828201840152601f01601f1916010190565b926040938481019060018060a01b0380941681528260209287848401525260608082019060608560051b84010197876000945b8786106118b6575050505050505050505090565b90919293949596979899605f198282030186528a3560be19843603018112156101dc57838991019160c08082016118ed858061177a565b9284529082905260e08301916000908f5b8183106119b3575050505083839261194b61199f936119326119238760019a016117ae565b6001600160a01b031684880152565b61193e8b85018561177a565b908483038d8601526117b9565b9161196661195a8c830161180c565b63ffffffff16838d0152565b611982608061197681840161180c565b63ffffffff1690840152565b61199160a0918281019061181d565b92909181850391015261184e565b9c01960196019498979695939291906118a2565b909280959650939193356119c6816101cb565b1681528c840135906001600160601b0382168092036101dc5789818f936001948394015201940192018c949392918f6118fe565b6040513d6000823e3d90fd5b908160209103126101dc575190565b6001600160a01b039091168152604060208201819052608090611a4b611a3b858061181d565b60608487015260a086019161184e565b9360208101356060850152013591015290565b9190916001600160401b038080941691160191821161175e57565b6001600160a01b03908116908115611ad457600080516020612b9583398151915280546001600160a01b031981168417909155167f8be0079c531659141344cd1fd0a4f28419497f9722a3daafe3b4186f6b6457e0600080a3565b604051631e4fbdf760e01b815260006004820152602490fd5b60407f7d9c9ce14fd1f11f09bf0faca4d408d3bb5815ceb44368d65b408ebc4401165c917faf993094c8eaa0abdffcc638bc8d87f9c9a50f945db9b99ab0b6681eab4f4f038054916001600160401b0380911691826001600160401b031985161790558351921682526020820152a1565b61085490611b6a6123d8565b61143a6123d8565b90611b7c8261154e565b611b896040519182610826565b8281528092611b9a601f199161154e565b0190602036910137565b600080516020612c558339815191528054611bbe81611b72565b916000805b838110611bd1575050505090565b828252600080516020612bf5833981519152810154600191906001600160a01b0316611bfd82886116a6565b5201611bc3565b3d15611c2f573d90611c1582610856565b91611c236040519384610826565b82523d6000602084013e565b606090565b6003546040516349075da360e01b602082019081523060248301526001600160a01b0393841660448301529190921691611c7b81606481015b03601f198101835282610826565b6000928392839251915afa611c8e611c04565b9015611cb35760208180518101031261134c5760200151906002821015610703575090565b604051633d635fe960e11b8152600490fd5b60209081818403126101dc578051906001600160401b0382116101dc57019180601f840112156101dc578251611cfa8161154e565b93611d086040519586610826565b818552838086019260051b8201019283116101dc578301905b828210611d2f575050505090565b81518152908301908301611d21565b6001600160a01b03918216815260406020808301829052845191830182905260609092019382019160005b828110611d7857505050505090565b8351851686529481019492810192600101611d69565b60018054604051639004134760e01b815293919260009285926001600160a01b03169183918291611dc3919060048401611d3e565b03915afa918215610d6857600092611e1e575b50806000926000925b611dea575b50505090565b809391929351841015611e1657611e0184826116a6565b51820180921161175e57828092940192611ddf565b819350611de4565b611e3c9192503d806000833e611e348183610826565b810190611cc5565b9038611dd6565b600019811461175e5760010190565b90606091611e6b6020611e648361211a565b0151151590565b611e73575b50565b9150600080516020612c5583398151915254611e8e81611b72565b9260005b828110611f8f575060018054611ed89392600091879190611ebb906001600160a01b0316610515565b90604051809781948293639004134760e01b845260048401611d3e565b03915afa928315610d6857600093611f72575b50600092611ef883611b72565b95845b848110611f1357505050508110611f0f5750565b8252565b80611f1f8592856116a6565b51611f2b575b01611efb565b611f6d611f4b610515611f3e84876116a6565b516001600160a01b031690565b611f5e611f578a611e43565b998c6116a6565b6001600160a01b039091169052565b611f25565b611f889193503d806000833e611e348183610826565b9138611eeb565b80611fb1611fa76105156105156105156001966124bc565b611f5e83896116a6565b01611e92565b60001981019190821161175e57565b9190820391821161175e57565b805180156120dd57611fe490611b72565b9060005b8151811015612014578061200e612004611f3e600194866116a6565b611f5e83876116a6565b01611fe8565b50506000905b6120248151611fb7565b8210156120d85760005b61204161203c848451611fc6565b611fb7565b8110156120cd578061205b610515611f3e600194866116a6565b612076610515610515611f3e61207086611750565b886116a6565b90838060a01b03161161208a575b0161202e565b6120c86120a2611f3e61209c84611750565b866116a6565b6120be6120b2611f3e85886116a6565b611f5e61207086611750565b611f5e83866116a6565b612084565b50906001019061201a565b905090565b5090565b600080516020612b95833981519152546001600160a01b0316330361210257565b60405163118cdaa760e01b8152336004820152602490fd5b6121226116ba565b506001600160a01b03811660009081527faf993094c8eaa0abdffcc638bc8d87f9c9a50f945db9b99ab0b6681eab4f4f0060205260409020546001600160401b03169061216e90611c34565b60028110156106fe5760019060405192612187846107f0565b835214602082015290565b801561223457600080516020612bb583398151915254806121c05750600080516020612bb583398151915255565b6001810180911161175e5781036121e357600080516020612bb583398151915255565b60405162461bcd60e51b8152602060048201526024808201527f6c617465737420726577617264656420657261206d75737420626520696e206160448201526320726f7760e01b6064820152608490fd5b60405162461bcd60e51b815260206004820152601b60248201527f72657761726420657261206d757374206d6f7265207468616e203000000000006044820152606490fd5b604051636eb1769f60e11b81523060048201526001600160a01b03838116602483015292939092602091838216908386604481855afa958615610d68576000966123a9575b50850180951161175e57600080604051968588019063095ea7b360e01b958683528a1660248a01526044890152604488526122f88861080b565b87519082855af190612308611c04565b82612376575b508161236b575b5015612323575b5050505050565b604051918201526001600160a01b039093166024840152600060448401526123619261235c906123568160648101611c6d565b82612abf565b612abf565b388080808061231c565b90503b151538612315565b809192505190848215928315612391575b505050903861230e565b6123a19350820181019101612aaa565b388481612387565b9095508381813d83116123d1575b6123c18183610826565b810103126101dc575194386122be565b503d6123b7565b60ff600080516020612c358339815191525460401c16156123f557565b604051631afcd79f60e31b8152600490fd5b600080516020612c5583398151915280548210156116a157600052600080516020612bf58339815191520190600090565b600080516020612bd583398151915280548210156116a1576000527f6d5632cd9a7b6dfee21fdcf6c7874238d88c254239c9613977670fb28d0df36b0190600090565b600080516020612bd583398151915280548210156116a1576000527f6d5632cd9a7b6dfee21fdcf6c7874238d88c254239c9613977670fb28d0df36b015490565b600080516020612c5583398151915280548210156116a157600052600080516020612bf5833981519152015490565b600080516020612c55833981519152805490811561253d57600019820191808310156116a1577ff7d7e697360407af72f21b9dd15ad33dccec16d662d65c043a3b77c0c9d1b269600091838352015555565b634e487b7160e01b600052603160045260246000fd5b600080516020612bd5833981519152805490811561253d57600019820191808310156116a1577f6d5632cd9a7b6dfee21fdcf6c7874238d88c254239c9613977670fb28d0df36a600091838352015555565b60008181527faf993094c8eaa0abdffcc638bc8d87f9c9a50f945db9b99ab0b6681eab4f4f076020526040902054801561269b57600019918183019180831161175e57600080516020612c558339815191525493840193841161175e57838360009561264b9503612651575b50505061261c6124eb565b6000527faf993094c8eaa0abdffcc638bc8d87f9c9a50f945db9b99ab0b6681eab4f4f07602052604060002090565b55600190565b61261c6126799161267161266761269295612407565b90549060031b1c90565b928391612407565b90919082549060031b91821b91600019901b1916179055565b55388080612611565b5050600090565b60008181527faf993094c8eaa0abdffcc638bc8d87f9c9a50f945db9b99ab0b6681eab4f4f026020526040902054801561269b57600019918183019180831161175e57600080516020612bd58339815191525493840193841161175e57838360009561264b9503612748575b505050612719612553565b6000527faf993094c8eaa0abdffcc638bc8d87f9c9a50f945db9b99ab0b6681eab4f4f02602052604060002090565b6127196126799161275e61266761276695612438565b928391612438565b5538808061270e565b806000527faf993094c8eaa0abdffcc638bc8d87f9c9a50f945db9b99ab0b6681eab4f4f07806020526040600020541560001461269b57600080516020612c558339815191528054600160401b8110156107eb57600181018083558110156116a1578390600080516020612bf583398151915201555491600052602052604060002055600190565b806000527faf993094c8eaa0abdffcc638bc8d87f9c9a50f945db9b99ab0b6681eab4f4f02806020526040600020541560001461269b57600080516020612bd58339815191528054600160401b8110156107eb57600181018083558110156116a15783907f6d5632cd9a7b6dfee21fdcf6c7874238d88c254239c9613977670fb28d0df36b01555491600052602052604060002055600190565b90813b1561291457600080516020612c1583398151915280546001600160a01b0319166001600160a01b0384169081179091557fbc7cd75a20ee27fd9adebab32041f755214dbc6bffa90cc0225b39da2e5c2d3b600080a28051156128f957611e7091612a08565b50503461290257565b60405163b398979f60e01b8152600490fd5b604051634c9c8ce360e01b81526001600160a01b0383166004820152602490fd5b81519190604183036129665761295f92506020820151906060604084015193015160001a90612a26565b9192909190565b505060009160029190565b600411156106fe57565b61298481612971565b8061298d575050565b61299681612971565b600181036129b05760405163f645eedf60e01b8152600490fd5b6129b981612971565b600281036129da5760405163fce698f760e01b815260048101839052602490fd5b806129e6600392612971565b146129ee5750565b6040516335e2f38360e21b81526004810191909152602490fd5b6000806108c393602081519101845af4612a20611c04565b91612b31565b91907f7fffffffffffffffffffffffffffffff5d576e7357a4501ddfe92f46681b20a08411612a9e57926020929160ff608095604051948552168484015260408301526060820152600092839182805260015afa15610d685780516001600160a01b03811615612a9557918190565b50809160019190565b50505060009160039190565b908160209103126101dc57516108c381610706565b600080612ae89260018060a01b03169360208151910182865af1612ae1611c04565b9083612b31565b8051908115159182612b16575b5050612afe5750565b60249060405190635274afe760e01b82526004820152fd5b612b299250602080918301019101612aaa565b153880612af5565b90612b585750805115612b4657805190602001fd5b604051630a12f52160e11b8152600490fd5b81511580612b8b575b612b69575090565b604051639996b31560e01b81526001600160a01b039091166004820152602490fd5b50803b15612b6156fe9016d09d72d40fdae2fd8ceac6b6234c7706214fd39c1cd1e609a0528c199300af993094c8eaa0abdffcc638bc8d87f9c9a50f945db9b99ab0b6681eab4f4f05af993094c8eaa0abdffcc638bc8d87f9c9a50f945db9b99ab0b6681eab4f4f01f7d7e697360407af72f21b9dd15ad33dccec16d662d65c043a3b77c0c9d1b26a360894a13ba1a3210667c828492db98dca3e2076cc3735a920a3ca505d382bbcf0c57e16840df040f15088dc2f81fe391c3923bec73e23a9662efc9c229c6a00af993094c8eaa0abdffcc638bc8d87f9c9a50f945db9b99ab0b6681eab4f4f06a26469706673582212204c2b674c8474ff844d687ff52eeb2c4629848c26db10b3b86e39a97f75e5343264736f6c63430008180033","opcodes":"PUSH1 0xA0 DUP1 PUSH1 0x40 MSTORE CALLVALUE PUSH2 0x2A JUMPI ADDRESS PUSH1 0x80 MSTORE PUSH2 0x2CAA SWAP1 DUP2 PUSH2 0x30 DUP3 CODECOPY PUSH1 0x80 MLOAD DUP2 DUP2 DUP2 PUSH2 0x908 ADD MSTORE PUSH2 0xA43 ADD MSTORE RETURN JUMPDEST PUSH1 0x0 DUP1 REVERT INVALID PUSH1 0x80 PUSH1 0x40 MSTORE PUSH1 0x4 CALLDATASIZE LT ISZERO PUSH2 0x12 JUMPI PUSH1 0x0 DUP1 REVERT JUMPDEST PUSH1 0x0 CALLDATALOAD PUSH1 0xE0 SHR DUP1 PUSH3 0xFEB1D8 EQ PUSH2 0x1C6 JUMPI DUP1 PUSH4 0xA732358 EQ PUSH2 0x1C1 JUMPI DUP1 PUSH4 0x141FBDF2 EQ PUSH2 0x1BC JUMPI DUP1 PUSH4 0x1ED6E115 EQ PUSH2 0x1B7 JUMPI DUP1 PUSH4 0x27A099D8 EQ PUSH2 0x1B2 JUMPI DUP1 PUSH4 0x33CFB7B7 EQ PUSH2 0x1AD JUMPI DUP1 PUSH4 0x389517E4 EQ PUSH2 0x1A8 JUMPI DUP1 PUSH4 0x43ADC491 EQ PUSH2 0x1A3 JUMPI DUP1 PUSH4 0x4F1EF286 EQ PUSH2 0x19E JUMPI DUP1 PUSH4 0x52D1902D EQ PUSH2 0x199 JUMPI DUP1 PUSH4 0x5865C60C EQ PUSH2 0x194 JUMPI DUP1 PUSH4 0x6D50275D EQ PUSH2 0x18F JUMPI DUP1 PUSH4 0x715018A6 EQ PUSH2 0x18A JUMPI DUP1 PUSH4 0x8495FEAB EQ PUSH2 0x185 JUMPI DUP1 PUSH4 0x84A3F19B EQ PUSH2 0x180 JUMPI DUP1 PUSH4 0x8DA5CB5B EQ PUSH2 0x17B JUMPI DUP1 PUSH4 0x9375E713 EQ PUSH2 0x176 JUMPI DUP1 PUSH4 0xA0169DDD EQ PUSH2 0x171 JUMPI DUP1 PUSH4 0xA1060C88 EQ PUSH2 0x16C JUMPI DUP1 PUSH4 0xA98FB355 EQ PUSH2 0x167 JUMPI DUP1 PUSH4 0xAD3CB1CC EQ PUSH2 0x162 JUMPI DUP1 PUSH4 0xAD656C56 EQ PUSH2 0x15D JUMPI DUP1 PUSH4 0xCA1E1D67 EQ PUSH2 0x158 JUMPI DUP1 PUSH4 0xE3672163 EQ PUSH2 0x153 JUMPI DUP1 PUSH4 0xE481AF9D EQ PUSH2 0x14E JUMPI DUP1 PUSH4 0xF2251B0F EQ PUSH2 0x149 JUMPI PUSH4 0xF2FDE38B EQ PUSH2 0x144 JUMPI PUSH1 0x0 DUP1 REVERT JUMPDEST PUSH2 0x1412 JUMP JUMPDEST PUSH2 0x13E9 JUMP JUMPDEST PUSH2 0x1374 JUMP JUMPDEST PUSH2 0x11FF JUMP JUMPDEST PUSH2 0x1124 JUMP JUMPDEST PUSH2 0x10FB JUMP JUMPDEST PUSH2 0x10BD JUMP JUMPDEST PUSH2 0xFD9 JUMP JUMPDEST PUSH2 0xE7D JUMP JUMPDEST PUSH2 0xE01 JUMP JUMPDEST PUSH2 0xC68 JUMP JUMPDEST PUSH2 0xC32 JUMP JUMPDEST PUSH2 0xBFD JUMP JUMPDEST PUSH2 0xBB7 JUMP JUMPDEST PUSH2 0xB4C JUMP JUMPDEST PUSH2 0xAF1 JUMP JUMPDEST PUSH2 0xA9B JUMP JUMPDEST PUSH2 0xA30 JUMP JUMPDEST PUSH2 0x8C6 JUMP JUMPDEST PUSH2 0x710 JUMP JUMPDEST PUSH2 0x62D JUMP JUMPDEST PUSH2 0x5F9 JUMP JUMPDEST PUSH2 0x4A4 JUMP JUMPDEST PUSH2 0x3B2 JUMP JUMPDEST PUSH2 0x389 JUMP JUMPDEST PUSH2 0x360 JUMP JUMPDEST PUSH2 0x1F7 JUMP JUMPDEST PUSH1 0x1 PUSH1 0x1 PUSH1 0xA0 SHL SUB DUP2 AND SUB PUSH2 0x1DC JUMPI JUMP JUMPDEST PUSH1 0x0 DUP1 REVERT JUMPDEST PUSH1 0x84 CALLDATALOAD SWAP1 PUSH1 0x1 PUSH1 0x1 PUSH1 0x40 SHL SUB DUP3 AND DUP3 SUB PUSH2 0x1DC JUMPI JUMP JUMPDEST CALLVALUE PUSH2 0x1DC JUMPI PUSH1 0xA0 CALLDATASIZE PUSH1 0x3 NOT ADD SLT PUSH2 0x1DC JUMPI PUSH1 0x4 CALLDATALOAD PUSH2 0x214 DUP2 PUSH2 0x1CB JUMP JUMPDEST PUSH1 0x24 CALLDATALOAD SWAP1 PUSH2 0x221 DUP3 PUSH2 0x1CB JUMP JUMPDEST PUSH1 0x44 CALLDATALOAD PUSH2 0x22D DUP2 PUSH2 0x1CB JUMP JUMPDEST PUSH1 0x64 CALLDATALOAD PUSH2 0x239 DUP2 PUSH2 0x1CB JUMP JUMPDEST PUSH2 0x241 PUSH2 0x1E1 JUMP JUMPDEST SWAP2 PUSH1 0x0 DUP1 MLOAD PUSH1 0x20 PUSH2 0x2C35 DUP4 CODECOPY DUP2 MLOAD SWAP2 MSTORE SLOAD SWAP5 PUSH1 0x1 PUSH1 0x1 PUSH1 0x40 SHL SUB PUSH1 0xFF DUP8 PUSH1 0x40 SHR AND ISZERO SWAP7 AND DUP1 ISZERO SWAP1 DUP2 PUSH2 0x34D JUMPI JUMPDEST PUSH1 0x1 EQ SWAP1 DUP2 PUSH2 0x343 JUMPI JUMPDEST ISZERO SWAP1 DUP2 PUSH2 0x33A JUMPI JUMPDEST POP PUSH2 0x328 JUMPI PUSH1 0x0 DUP1 MLOAD PUSH1 0x20 PUSH2 0x2C35 DUP4 CODECOPY DUP2 MLOAD SWAP2 MSTORE DUP1 SLOAD PUSH8 0xFFFFFFFFFFFFFFFF NOT AND PUSH1 0x1 OR SWAP1 SSTORE PUSH2 0x2B4 SWAP5 DUP7 PUSH2 0x303 JUMPI PUSH2 0x143F JUMP JUMPDEST PUSH2 0x2BA JUMPI STOP JUMPDEST PUSH1 0x0 DUP1 MLOAD PUSH1 0x20 PUSH2 0x2C35 DUP4 CODECOPY DUP2 MLOAD SWAP2 MSTORE DUP1 SLOAD PUSH1 0xFF PUSH1 0x40 SHL NOT AND SWAP1 SSTORE PUSH1 0x40 MLOAD PUSH1 0x1 DUP2 MSTORE PUSH32 0xC7F505B2F371AE2175EE4913F4499E1F2633A7B5936321EED1CDAEB6115181D2 SWAP1 PUSH1 0x20 SWAP1 LOG1 STOP JUMPDEST PUSH1 0x0 DUP1 MLOAD PUSH1 0x20 PUSH2 0x2C35 DUP4 CODECOPY DUP2 MLOAD SWAP2 MSTORE DUP1 SLOAD PUSH1 0xFF PUSH1 0x40 SHL NOT AND PUSH1 0x1 PUSH1 0x40 SHL OR SWAP1 SSTORE PUSH2 0x143F JUMP JUMPDEST PUSH1 0x40 MLOAD PUSH4 0xF92EE8A9 PUSH1 0xE0 SHL DUP2 MSTORE PUSH1 0x4 SWAP1 REVERT JUMPDEST SWAP1 POP ISZERO CODESIZE PUSH2 0x280 JUMP JUMPDEST ADDRESS EXTCODESIZE ISZERO SWAP2 POP PUSH2 0x278 JUMP JUMPDEST DUP8 SWAP2 POP PUSH2 0x26E JUMP JUMPDEST PUSH1 0x0 SWAP2 SUB SLT PUSH2 0x1DC JUMPI JUMP JUMPDEST CALLVALUE PUSH2 0x1DC JUMPI PUSH1 0x0 CALLDATASIZE PUSH1 0x3 NOT ADD SLT PUSH2 0x1DC JUMPI PUSH1 0x0 SLOAD PUSH1 0x40 MLOAD PUSH1 0x1 PUSH1 0x1 PUSH1 0xA0 SHL SUB SWAP1 SWAP2 AND DUP2 MSTORE PUSH1 0x20 SWAP1 RETURN JUMPDEST CALLVALUE PUSH2 0x1DC JUMPI PUSH1 0x0 CALLDATASIZE PUSH1 0x3 NOT ADD SLT PUSH2 0x1DC JUMPI PUSH1 0x2 SLOAD PUSH1 0x40 MLOAD PUSH1 0x1 PUSH1 0x1 PUSH1 0xA0 SHL SUB SWAP1 SWAP2 AND DUP2 MSTORE PUSH1 0x20 SWAP1 RETURN JUMPDEST CALLVALUE PUSH2 0x1DC JUMPI PUSH1 0x0 CALLDATASIZE PUSH1 0x3 NOT ADD SLT PUSH2 0x1DC JUMPI PUSH1 0x20 PUSH1 0x0 DUP1 MLOAD PUSH1 0x20 PUSH2 0x2BB5 DUP4 CODECOPY DUP2 MLOAD SWAP2 MSTORE SLOAD PUSH1 0x40 MLOAD SWAP1 DUP2 MSTORE RETURN JUMPDEST PUSH1 0x20 DUP1 DUP3 ADD SWAP1 DUP1 DUP4 MSTORE DUP4 MLOAD DUP1 SWAP3 MSTORE PUSH1 0x40 SWAP3 PUSH1 0x40 DUP2 ADD DUP3 PUSH1 0x40 DUP6 PUSH1 0x5 SHL DUP5 ADD ADD SWAP7 ADD SWAP5 PUSH1 0x0 DUP1 SWAP4 JUMPDEST DUP7 DUP6 LT PUSH2 0x416 JUMPI POP POP POP POP POP POP POP POP SWAP1 JUMP JUMPDEST SWAP1 SWAP2 SWAP3 SWAP4 SWAP5 SWAP6 SWAP7 SWAP8 PUSH1 0x3F NOT DUP3 DUP3 SUB ADD DUP6 MSTORE DUP7 DUP10 MLOAD SWAP2 PUSH1 0x80 DUP3 PUSH1 0xA0 DUP3 DUP5 ADD SWAP4 PUSH1 0x1 DUP1 DUP4 SHL SUB SWAP4 DUP5 DUP9 MLOAD AND DUP3 MSTORE DUP4 DUP9 ADD MLOAD DUP5 DUP4 ADD MSTORE DUP11 DUP9 ADD MLOAD DUP12 DUP4 ADD MSTORE PUSH1 0x60 DUP1 SWAP9 ADD MLOAD SWAP8 DUP3 ADD MSTORE DUP7 MLOAD DUP1 SWAP6 MSTORE ADD SWAP5 ADD SWAP2 DUP7 SWAP2 JUMPDEST DUP2 DUP4 LT PUSH2 0x488 JUMPI POP POP POP POP DUP1 PUSH1 0x1 SWAP3 SWAP11 ADD SWAP6 ADD SWAP6 ADD SWAP4 SWAP7 SWAP6 SWAP5 SWAP3 SWAP2 SWAP1 PUSH2 0x404 JUMP JUMPDEST DUP4 MLOAD DUP2 AND DUP7 MSTORE SWAP5 DUP5 ADD SWAP5 DUP12 SWAP5 SWAP4 SWAP1 SWAP4 ADD SWAP3 PUSH1 0x1 SWAP1 SWAP3 ADD SWAP2 PUSH2 0x467 JUMP JUMPDEST CALLVALUE PUSH2 0x1DC JUMPI PUSH1 0x0 CALLDATASIZE PUSH1 0x3 NOT ADD SLT PUSH2 0x1DC JUMPI PUSH1 0x0 DUP1 MLOAD PUSH1 0x20 PUSH2 0x2BD5 DUP4 CODECOPY DUP2 MLOAD SWAP2 MSTORE SLOAD PUSH2 0x4CE DUP2 PUSH2 0x1565 JUMP JUMPDEST PUSH2 0x4D6 PUSH2 0x1BA4 JUMP JUMPDEST PUSH1 0x0 JUMPDEST DUP4 DUP2 LT PUSH2 0x503 JUMPI PUSH2 0x4F6 DUP4 DUP6 PUSH2 0x4FA JUMPI JUMPDEST PUSH1 0x40 MLOAD SWAP2 DUP3 SWAP2 DUP3 PUSH2 0x3DD JUMP JUMPDEST SUB SWAP1 RETURN JUMPDEST PUSH1 0x0 DUP2 MSTORE PUSH2 0x4EA JUMP JUMPDEST DUP1 PUSH2 0x521 PUSH2 0x515 PUSH2 0x515 PUSH1 0x1 SWAP5 PUSH2 0x247B JUMP JUMPDEST PUSH1 0x1 PUSH1 0x1 PUSH1 0xA0 SHL SUB AND SWAP1 JUMP JUMPDEST DUP3 PUSH2 0x52B DUP3 PUSH2 0x1C34 JUMP JUMPDEST PUSH2 0x534 DUP2 PUSH2 0x15FA JUMP JUMPDEST EQ PUSH2 0x541 JUMPI JUMPDEST POP ADD PUSH2 0x4D9 JUMP JUMPDEST PUSH1 0x20 DUP1 PUSH2 0x555 PUSH2 0x550 DUP5 PUSH2 0x1604 JUMP JUMPDEST PUSH2 0x163D JUMP JUMPDEST ADD MLOAD PUSH2 0x561 DUP7 DUP5 PUSH2 0x1D8E JUMP JUMPDEST PUSH2 0x572 PUSH2 0x56D DUP6 PUSH2 0x1E52 JUMP JUMPDEST PUSH2 0x1FD3 JUMP JUMPDEST SWAP3 PUSH2 0x58D PUSH2 0x57E PUSH2 0x847 JUMP JUMPDEST PUSH1 0x1 PUSH1 0x1 PUSH1 0xA0 SHL SUB SWAP1 SWAP7 AND DUP7 MSTORE JUMP JUMPDEST DUP5 ADD MSTORE PUSH1 0x40 DUP4 ADD MSTORE PUSH1 0x60 DUP3 ADD MSTORE PUSH2 0x5A3 DUP6 PUSH2 0x1694 JUMP JUMPDEST MSTORE PUSH2 0x5AD DUP5 PUSH2 0x1694 JUMP JUMPDEST POP CODESIZE PUSH2 0x53A JUMP JUMPDEST PUSH1 0x20 SWAP1 PUSH1 0x20 PUSH1 0x40 DUP2 DUP4 ADD SWAP3 DUP3 DUP2 MSTORE DUP6 MLOAD DUP1 SWAP5 MSTORE ADD SWAP4 ADD SWAP2 PUSH1 0x0 JUMPDEST DUP3 DUP2 LT PUSH2 0x5DC JUMPI POP POP POP POP SWAP1 JUMP JUMPDEST DUP4 MLOAD PUSH1 0x1 PUSH1 0x1 PUSH1 0xA0 SHL SUB AND DUP6 MSTORE SWAP4 DUP2 ADD SWAP4 SWAP3 DUP2 ADD SWAP3 PUSH1 0x1 ADD PUSH2 0x5CE JUMP JUMPDEST CALLVALUE PUSH2 0x1DC JUMPI PUSH1 0x20 CALLDATASIZE PUSH1 0x3 NOT ADD SLT PUSH2 0x1DC JUMPI PUSH2 0x4F6 PUSH2 0x621 PUSH1 0x4 CALLDATALOAD PUSH2 0x61C DUP2 PUSH2 0x1CB JUMP JUMPDEST PUSH2 0x1E52 JUMP JUMPDEST PUSH1 0x40 MLOAD SWAP2 DUP3 SWAP2 DUP3 PUSH2 0x5B4 JUMP JUMPDEST CALLVALUE PUSH2 0x1DC JUMPI PUSH1 0x0 DUP1 PUSH1 0x3 NOT CALLDATASIZE ADD SLT PUSH2 0x703 JUMPI PUSH2 0x648 CALLER PUSH2 0x1C34 JUMP JUMPDEST PUSH1 0x2 DUP2 LT ISZERO PUSH2 0x6FE JUMPI ISZERO PUSH2 0x6EC JUMPI CALLER DUP2 MSTORE PUSH32 0xAF993094C8EAA0ABDFFCC638BC8D87F9C9A50F945DB9B99AB0B6681EAB4F4F00 PUSH1 0x20 MSTORE PUSH1 0x40 DUP2 KECCAK256 PUSH1 0x1 PUSH1 0x1 PUSH1 0x40 SHL SUB SWAP1 DUP2 DUP2 SLOAD AND PUSH2 0x6DA JUMPI PUSH2 0x6B2 SWAP2 NUMBER AND PUSH1 0x1 PUSH1 0x1 PUSH1 0x40 SHL SUB AND PUSH1 0x1 PUSH1 0x1 PUSH1 0x40 SHL SUB NOT DUP3 SLOAD AND OR SWAP1 SSTORE JUMP JUMPDEST CALLER PUSH32 0x34E20E11F51D19D6E90F5AAEA605CB369F34AD23805C51D2E77D05C8208C8585 DUP3 DUP1 LOG2 DUP1 RETURN JUMPDEST PUSH1 0x40 MLOAD PUSH4 0xEBF7F59 PUSH1 0xE3 SHL DUP2 MSTORE PUSH1 0x4 SWAP1 REVERT JUMPDEST PUSH1 0x40 MLOAD PUSH4 0x25EC6C1F PUSH1 0xE0 SHL DUP2 MSTORE PUSH1 0x4 SWAP1 REVERT JUMPDEST PUSH2 0x15E4 JUMP JUMPDEST DUP1 REVERT JUMPDEST DUP1 ISZERO ISZERO SUB PUSH2 0x1DC JUMPI JUMP JUMPDEST CALLVALUE PUSH2 0x1DC JUMPI PUSH1 0x40 CALLDATASIZE PUSH1 0x3 NOT ADD SLT PUSH2 0x1DC JUMPI PUSH1 0x4 CALLDATALOAD PUSH2 0x72D DUP2 PUSH2 0x1CB JUMP JUMPDEST PUSH1 0x24 CALLDATALOAD SWAP1 PUSH2 0x73A DUP3 PUSH2 0x706 JUMP JUMPDEST PUSH2 0x742 PUSH2 0x20E1 JUMP JUMPDEST DUP2 ISZERO PUSH2 0x7AB JUMPI PUSH2 0x75A PUSH1 0x1 PUSH1 0x1 PUSH1 0xA0 SHL SUB DUP3 AND PUSH2 0x276F JUMP JUMPDEST ISZERO PUSH2 0x799 JUMPI PUSH1 0x40 MLOAD SWAP2 ISZERO ISZERO DUP3 MSTORE PUSH1 0x1 PUSH1 0x1 PUSH1 0xA0 SHL SUB AND SWAP1 PUSH32 0x74D2E573146A4C9FBFD23124CE9007A97AEBEB715219B83507EC3A05209486BD SWAP1 PUSH1 0x20 SWAP1 LOG2 STOP JUMPDEST PUSH1 0x40 MLOAD PUSH4 0x79FDFC7D PUSH1 0xE0 SHL DUP2 MSTORE PUSH1 0x4 SWAP1 REVERT JUMPDEST PUSH2 0x7BD PUSH1 0x1 PUSH1 0x1 PUSH1 0xA0 SHL SUB DUP3 AND PUSH2 0x25A5 JUMP JUMPDEST PUSH2 0x75A JUMP JUMPDEST PUSH4 0x4E487B71 PUSH1 0xE0 SHL PUSH1 0x0 MSTORE PUSH1 0x41 PUSH1 0x4 MSTORE PUSH1 0x24 PUSH1 0x0 REVERT JUMPDEST PUSH1 0x1 PUSH1 0x1 PUSH1 0x40 SHL SUB DUP2 GT PUSH2 0x7EB JUMPI PUSH1 0x40 MSTORE JUMP JUMPDEST PUSH2 0x7C2 JUMP JUMPDEST PUSH1 0x40 DUP2 ADD SWAP1 DUP2 LT PUSH1 0x1 PUSH1 0x1 PUSH1 0x40 SHL SUB DUP3 GT OR PUSH2 0x7EB JUMPI PUSH1 0x40 MSTORE JUMP JUMPDEST PUSH1 0x80 DUP2 ADD SWAP1 DUP2 LT PUSH1 0x1 PUSH1 0x1 PUSH1 0x40 SHL SUB DUP3 GT OR PUSH2 0x7EB JUMPI PUSH1 0x40 MSTORE JUMP JUMPDEST SWAP1 PUSH1 0x1F DUP1 NOT SWAP2 ADD AND DUP2 ADD SWAP1 DUP2 LT PUSH1 0x1 PUSH1 0x1 PUSH1 0x40 SHL SUB DUP3 GT OR PUSH2 0x7EB JUMPI PUSH1 0x40 MSTORE JUMP JUMPDEST PUSH1 0x40 MLOAD SWAP1 PUSH2 0x854 DUP3 PUSH2 0x80B JUMP JUMPDEST JUMP JUMPDEST PUSH1 0x1 PUSH1 0x1 PUSH1 0x40 SHL SUB DUP2 GT PUSH2 0x7EB JUMPI PUSH1 0x1F ADD PUSH1 0x1F NOT AND PUSH1 0x20 ADD SWAP1 JUMP JUMPDEST SWAP3 SWAP2 SWAP3 PUSH2 0x87D DUP3 PUSH2 0x856 JUMP JUMPDEST SWAP2 PUSH2 0x88B PUSH1 0x40 MLOAD SWAP4 DUP5 PUSH2 0x826 JUMP JUMPDEST DUP3 SWAP5 DUP2 DUP5 MSTORE DUP2 DUP4 ADD GT PUSH2 0x1DC JUMPI DUP3 DUP2 PUSH1 0x20 SWAP4 DUP5 PUSH1 0x0 SWAP7 ADD CALLDATACOPY ADD ADD MSTORE JUMP JUMPDEST SWAP1 DUP1 PUSH1 0x1F DUP4 ADD SLT ISZERO PUSH2 0x1DC JUMPI DUP2 PUSH1 0x20 PUSH2 0x8C3 SWAP4 CALLDATALOAD SWAP2 ADD PUSH2 0x871 JUMP JUMPDEST SWAP1 JUMP JUMPDEST PUSH1 0x40 CALLDATASIZE PUSH1 0x3 NOT ADD SLT PUSH2 0x1DC JUMPI PUSH1 0x4 DUP1 CALLDATALOAD SWAP1 PUSH2 0x8E0 DUP3 PUSH2 0x1CB JUMP JUMPDEST PUSH1 0x24 CALLDATALOAD PUSH1 0x1 PUSH1 0x1 PUSH1 0x40 SHL SUB DUP2 GT PUSH2 0x1DC JUMPI PUSH2 0x8FE SWAP1 CALLDATASIZE SWAP1 DUP4 ADD PUSH2 0x8A8 JUMP JUMPDEST PUSH1 0x1 PUSH1 0x1 PUSH1 0xA0 SHL SUB PUSH32 0x0 DUP2 AND ADDRESS DUP2 EQ SWAP1 DUP2 ISZERO PUSH2 0xA14 JUMPI JUMPDEST POP PUSH2 0xA03 JUMPI SWAP1 PUSH1 0x20 DUP4 SWAP3 PUSH2 0x946 PUSH2 0x20E1 JUMP JUMPDEST PUSH1 0x40 MLOAD PUSH4 0x52D1902D PUSH1 0xE0 SHL DUP2 MSTORE SWAP4 DUP5 SWAP2 DUP3 SWAP1 DUP9 AND GAS STATICCALL PUSH1 0x0 SWAP3 DUP2 PUSH2 0x9D2 JUMPI JUMPDEST POP PUSH2 0x993 JUMPI POP POP PUSH1 0x40 MLOAD PUSH4 0x4C9C8CE3 PUSH1 0xE0 SHL DUP2 MSTORE PUSH1 0x1 PUSH1 0x1 PUSH1 0xA0 SHL SUB SWAP1 SWAP3 AND SWAP1 DUP3 ADD SWAP1 DUP2 MSTORE DUP2 SWAP1 PUSH1 0x20 ADD SUB SWAP1 REVERT JUMPDEST DUP4 DUP4 PUSH1 0x0 DUP1 MLOAD PUSH1 0x20 PUSH2 0x2C15 DUP4 CODECOPY DUP2 MLOAD SWAP2 MSTORE DUP5 SUB PUSH2 0x9B6 JUMPI PUSH2 0x9B4 DUP4 DUP4 PUSH2 0x2891 JUMP JUMPDEST STOP JUMPDEST PUSH1 0x40 MLOAD PUSH4 0x2A875269 PUSH1 0xE2 SHL DUP2 MSTORE SWAP1 DUP2 ADD DUP5 DUP2 MSTORE DUP2 SWAP1 PUSH1 0x20 ADD SUB SWAP1 REVERT JUMPDEST PUSH2 0x9F5 SWAP2 SWAP4 POP PUSH1 0x20 RETURNDATASIZE PUSH1 0x20 GT PUSH2 0x9FC JUMPI JUMPDEST PUSH2 0x9ED DUP2 DUP4 PUSH2 0x826 JUMP JUMPDEST DUP2 ADD SWAP1 PUSH2 0x1A06 JUMP JUMPDEST SWAP2 CODESIZE PUSH2 0x965 JUMP JUMPDEST POP RETURNDATASIZE PUSH2 0x9E3 JUMP JUMPDEST PUSH1 0x40 MLOAD PUSH4 0x703E46DD PUSH1 0xE1 SHL DUP2 MSTORE DUP4 SWAP1 REVERT JUMPDEST SWAP1 POP DUP2 PUSH1 0x0 DUP1 MLOAD PUSH1 0x20 PUSH2 0x2C15 DUP4 CODECOPY DUP2 MLOAD SWAP2 MSTORE SLOAD AND EQ ISZERO CODESIZE PUSH2 0x934 JUMP JUMPDEST CALLVALUE PUSH2 0x1DC JUMPI PUSH1 0x0 CALLDATASIZE PUSH1 0x3 NOT ADD SLT PUSH2 0x1DC JUMPI PUSH32 0x0 PUSH1 0x1 PUSH1 0x1 PUSH1 0xA0 SHL SUB AND ADDRESS SUB PUSH2 0xA89 JUMPI PUSH1 0x20 PUSH1 0x40 MLOAD PUSH1 0x0 DUP1 MLOAD PUSH1 0x20 PUSH2 0x2C15 DUP4 CODECOPY DUP2 MLOAD SWAP2 MSTORE DUP2 MSTORE RETURN JUMPDEST PUSH1 0x40 MLOAD PUSH4 0x703E46DD PUSH1 0xE1 SHL DUP2 MSTORE PUSH1 0x4 SWAP1 REVERT JUMPDEST CALLVALUE PUSH2 0x1DC JUMPI PUSH1 0x20 CALLDATASIZE PUSH1 0x3 NOT ADD SLT PUSH2 0x1DC JUMPI PUSH1 0x40 PUSH2 0xACB PUSH1 0x4 CALLDATALOAD PUSH2 0xABD DUP2 PUSH2 0x1CB JUMP JUMPDEST PUSH2 0xAC5 PUSH2 0x16BA JUMP JUMPDEST POP PUSH2 0x211A JUMP JUMPDEST PUSH1 0x20 DUP3 MLOAD SWAP2 PUSH16 0xFFFFFFFFFFFFFFFFFFFFFFFFFFFFFFFF DUP2 MLOAD AND DUP4 MSTORE ADD MLOAD ISZERO ISZERO PUSH1 0x20 DUP3 ADD MSTORE RETURN JUMPDEST CALLVALUE PUSH2 0x1DC JUMPI PUSH1 0x40 CALLDATASIZE PUSH1 0x3 NOT ADD SLT PUSH2 0x1DC JUMPI PUSH1 0x24 CALLDATALOAD PUSH1 0x1 PUSH1 0x1 PUSH1 0x40 SHL SUB DUP2 GT PUSH2 0x1DC JUMPI PUSH2 0xB3A PUSH2 0xB31 PUSH2 0xB29 PUSH1 0x20 SWAP4 CALLDATASIZE SWAP1 PUSH1 0x4 ADD PUSH2 0x8A8 JUMP JUMPDEST PUSH1 0x4 CALLDATALOAD PUSH2 0x2935 JUMP JUMPDEST SWAP1 SWAP3 SWAP2 SWAP3 PUSH2 0x297B JUMP JUMPDEST PUSH1 0x40 MLOAD PUSH1 0x1 PUSH1 0x1 PUSH1 0xA0 SHL SUB SWAP1 SWAP2 AND DUP2 MSTORE RETURN JUMPDEST CALLVALUE PUSH2 0x1DC JUMPI PUSH1 0x0 DUP1 PUSH1 0x3 NOT CALLDATASIZE ADD SLT PUSH2 0x703 JUMPI PUSH2 0xB66 PUSH2 0x20E1 JUMP JUMPDEST PUSH1 0x0 DUP1 MLOAD PUSH1 0x20 PUSH2 0x2B95 DUP4 CODECOPY DUP2 MLOAD SWAP2 MSTORE DUP1 SLOAD PUSH1 0x1 PUSH1 0x1 PUSH1 0xA0 SHL SUB NOT DUP2 AND SWAP1 SWAP2 SSTORE DUP2 SWAP1 PUSH1 0x1 PUSH1 0x1 PUSH1 0xA0 SHL SUB AND PUSH32 0x8BE0079C531659141344CD1FD0A4F28419497F9722A3DAAFE3B4186F6B6457E0 DUP3 DUP1 LOG3 DUP1 RETURN JUMPDEST CALLVALUE PUSH2 0x1DC JUMPI PUSH1 0x0 CALLDATASIZE PUSH1 0x3 NOT ADD SLT PUSH2 0x1DC JUMPI PUSH1 0x20 PUSH1 0x1 PUSH1 0x1 PUSH1 0x40 SHL SUB PUSH32 0xAF993094C8EAA0ABDFFCC638BC8D87F9C9A50F945DB9B99AB0B6681EAB4F4F03 SLOAD AND PUSH1 0x40 MLOAD SWAP1 DUP2 MSTORE RETURN JUMPDEST CALLVALUE PUSH2 0x1DC JUMPI PUSH1 0x20 CALLDATASIZE PUSH1 0x3 NOT ADD SLT PUSH2 0x1DC JUMPI PUSH1 0x4 CALLDATALOAD PUSH1 0x1 PUSH1 0x1 PUSH1 0x40 SHL SUB DUP2 AND DUP2 SUB PUSH2 0x1DC JUMPI PUSH2 0x9B4 SWAP1 PUSH2 0xC2D PUSH2 0x20E1 JUMP JUMPDEST PUSH2 0x1AED JUMP JUMPDEST CALLVALUE PUSH2 0x1DC JUMPI PUSH1 0x0 CALLDATASIZE PUSH1 0x3 NOT ADD SLT PUSH2 0x1DC JUMPI PUSH1 0x0 DUP1 MLOAD PUSH1 0x20 PUSH2 0x2B95 DUP4 CODECOPY DUP2 MLOAD SWAP2 MSTORE SLOAD PUSH1 0x40 MLOAD PUSH1 0x1 PUSH1 0x1 PUSH1 0xA0 SHL SUB SWAP1 SWAP2 AND DUP2 MSTORE PUSH1 0x20 SWAP1 RETURN JUMPDEST CALLVALUE PUSH2 0x1DC JUMPI PUSH1 0x40 DUP1 PUSH1 0x3 NOT CALLDATASIZE ADD SLT PUSH2 0x1DC JUMPI PUSH1 0x24 CALLDATALOAD PUSH1 0x1 PUSH1 0x1 PUSH1 0x40 SHL SUB SWAP2 DUP3 DUP3 GT PUSH2 0x1DC JUMPI CALLDATASIZE PUSH1 0x23 DUP4 ADD SLT ISZERO PUSH2 0x1DC JUMPI DUP2 PUSH1 0x4 ADD CALLDATALOAD SWAP3 DUP4 GT PUSH2 0x1DC JUMPI PUSH1 0x24 DUP3 ADD SWAP2 PUSH1 0x24 CALLDATASIZE SWAP2 DUP6 PUSH1 0x5 SHL ADD ADD GT PUSH2 0x1DC JUMPI PUSH2 0xCC0 PUSH2 0x20E1 JUMP JUMPDEST PUSH2 0xCCB PUSH1 0x4 CALLDATALOAD PUSH2 0x2192 JUMP JUMPDEST PUSH1 0x0 JUMPDEST DUP4 DUP2 LT PUSH2 0xD6D JUMPI POP POP PUSH1 0x2 SLOAD PUSH2 0xCEC SWAP1 PUSH1 0x1 PUSH1 0x1 PUSH1 0xA0 SHL SUB AND PUSH2 0x515 JUMP JUMPDEST SWAP2 DUP3 EXTCODESIZE ISZERO PUSH2 0x1DC JUMPI PUSH2 0xD19 SWAP3 PUSH1 0x0 SWAP3 DUP4 PUSH1 0x40 MLOAD DUP1 SWAP7 DUP2 SWAP6 DUP3 SWAP5 PUSH4 0x4E5CD2FD PUSH1 0xE1 SHL DUP5 MSTORE ADDRESS PUSH1 0x4 DUP6 ADD PUSH2 0x186F JUMP JUMPDEST SUB SWAP3 GAS CALL DUP1 ISZERO PUSH2 0xD68 JUMPI PUSH2 0xD4F JUMPI JUMPDEST PUSH32 0x410F403ED28055EE05512C23D09C2B582FA6D23119E026C0CFC4AA615CAB07BB PUSH1 0x0 DUP1 LOG1 STOP JUMPDEST DUP1 PUSH2 0xD5C PUSH2 0xD62 SWAP3 PUSH2 0x7D8 JUMP JUMPDEST DUP1 PUSH2 0x355 JUMP JUMPDEST CODESIZE PUSH2 0xD28 JUMP JUMPDEST PUSH2 0x19FA JUMP JUMPDEST PUSH2 0xD78 DUP2 DUP6 DUP6 PUSH2 0x16D3 JUMP JUMPDEST PUSH1 0x0 SWAP1 DUP4 DUP2 ADD PUSH2 0xD88 DUP2 DUP4 PUSH2 0x16F5 JUMP JUMPDEST DUP5 SWAP3 SWAP2 POP JUMPDEST DUP1 DUP4 LT PUSH2 0xDD1 JUMPI POP POP POP PUSH1 0x1 SWAP3 SWAP2 PUSH2 0xDB0 PUSH2 0x515 PUSH2 0x515 PUSH1 0x20 PUSH2 0xDCB SWAP6 ADD PUSH2 0x1770 JUMP JUMPDEST PUSH1 0x2 SLOAD PUSH2 0xDC5 SWAP1 PUSH1 0x1 PUSH1 0x1 PUSH1 0xA0 SHL SUB AND PUSH2 0x515 JUMP JUMPDEST SWAP1 PUSH2 0x2279 JUMP JUMPDEST ADD PUSH2 0xCCE JUMP JUMPDEST SWAP1 SWAP2 SWAP4 PUSH2 0xDF8 PUSH1 0x1 SWAP2 PUSH1 0x20 PUSH2 0xDF0 DUP9 PUSH2 0xDEA DUP9 DUP11 PUSH2 0x16F5 JUMP JUMPDEST SWAP1 PUSH2 0x172A JUMP JUMPDEST ADD CALLDATALOAD SWAP1 PUSH2 0x1763 JUMP JUMPDEST SWAP5 ADD SWAP2 SWAP1 PUSH2 0xD8D JUMP JUMPDEST CALLVALUE PUSH2 0x1DC JUMPI PUSH1 0x0 PUSH1 0x20 CALLDATASIZE PUSH1 0x3 NOT ADD SLT PUSH2 0x703 JUMPI PUSH1 0x4 CALLDATALOAD PUSH2 0xE20 DUP2 PUSH2 0x1CB JUMP JUMPDEST PUSH2 0xE28 PUSH2 0x20E1 JUMP JUMPDEST PUSH1 0x2 SLOAD PUSH1 0x1 PUSH1 0x1 PUSH1 0xA0 SHL SUB SWAP1 DUP2 AND SWAP2 DUP4 SWAP2 SWAP1 DUP4 EXTCODESIZE ISZERO PUSH2 0xE79 JUMPI PUSH1 0x24 SWAP1 DUP4 PUSH1 0x40 MLOAD SWAP6 DUP7 SWAP5 DUP6 SWAP4 PUSH4 0xA0169DDD PUSH1 0xE0 SHL DUP6 MSTORE AND PUSH1 0x4 DUP5 ADD MSTORE GAS CALL DUP1 ISZERO PUSH2 0xD68 JUMPI PUSH2 0xE6D JUMPI POP DUP1 RETURN JUMPDEST PUSH2 0xE76 SWAP1 PUSH2 0x7D8 JUMP JUMPDEST DUP1 RETURN JUMPDEST DUP3 DUP1 REVERT JUMPDEST CALLVALUE PUSH2 0x1DC JUMPI PUSH1 0x80 CALLDATASIZE PUSH1 0x3 NOT ADD SLT PUSH2 0x1DC JUMPI PUSH1 0x4 DUP1 CALLDATALOAD PUSH2 0xE9B DUP2 PUSH2 0x1CB JUMP JUMPDEST PUSH1 0x24 CALLDATALOAD SWAP1 PUSH2 0xEA8 DUP3 PUSH2 0x1CB JUMP JUMPDEST PUSH1 0x3 SLOAD PUSH1 0x20 SWAP1 PUSH2 0xEC0 SWAP1 PUSH1 0x1 PUSH1 0x1 PUSH1 0xA0 SHL SUB AND PUSH2 0x515 JUMP JUMPDEST PUSH1 0x40 MLOAD PUSH4 0xF698DA25 PUSH1 0xE0 SHL DUP2 MSTORE SWAP5 DUP6 SWAP2 DUP3 SWAP1 GAS STATICCALL SWAP2 DUP3 ISZERO PUSH2 0xD68 JUMPI PUSH2 0x4F6 SWAP4 PUSH1 0x0 SWAP4 PUSH2 0xFAA JUMPI JUMPDEST POP PUSH1 0x40 DUP1 MLOAD PUSH32 0xDA2C89BAFDD34776A2B8BB9C83C82F419E20CC8C67207F70EDD58249B92661BD PUSH1 0x20 DUP3 ADD SWAP1 DUP2 MSTORE PUSH1 0x1 PUSH1 0x1 PUSH1 0xA0 SHL SUB SWAP5 DUP6 AND SWAP3 DUP3 ADD SWAP3 SWAP1 SWAP3 MSTORE SWAP3 SWAP1 SWAP2 AND PUSH1 0x60 DUP4 ADD MSTORE PUSH1 0x44 CALLDATALOAD PUSH1 0x80 DUP4 ADD MSTORE PUSH1 0x64 CALLDATALOAD PUSH1 0xA0 DUP4 ADD MSTORE PUSH2 0xF8B SWAP2 PUSH2 0xF97 SWAP2 DUP2 PUSH1 0xC0 DUP2 ADD JUMPDEST SUB SWAP2 PUSH2 0xF61 PUSH1 0x1F NOT SWAP4 DUP5 DUP2 ADD DUP4 MSTORE DUP3 PUSH2 0x826 JUMP JUMPDEST MLOAD SWAP1 KECCAK256 PUSH1 0x40 MLOAD SWAP4 DUP5 SWAP2 PUSH1 0x20 DUP4 ADD SWAP7 DUP8 SWAP1 SWAP2 PUSH1 0x42 SWAP3 PUSH2 0x1901 PUSH1 0xF0 SHL DUP4 MSTORE PUSH1 0x2 DUP4 ADD MSTORE PUSH1 0x22 DUP3 ADD MSTORE ADD SWAP1 JUMP JUMPDEST SUB SWAP1 DUP2 ADD DUP4 MSTORE DUP3 PUSH2 0x826 JUMP JUMPDEST MLOAD SWAP1 KECCAK256 PUSH1 0x40 MLOAD SWAP1 DUP2 MSTORE SWAP1 DUP2 SWAP1 PUSH1 0x20 DUP3 ADD SWAP1 JUMP JUMPDEST PUSH2 0xF97 SWAP2 SWAP4 POP PUSH2 0xF8B SWAP3 PUSH2 0xFCF PUSH2 0xF4D SWAP3 PUSH1 0x20 RETURNDATASIZE PUSH1 0x20 GT PUSH2 0x9FC JUMPI PUSH2 0x9ED DUP2 DUP4 PUSH2 0x826 JUMP JUMPDEST SWAP5 SWAP3 POP SWAP3 POP PUSH2 0xEE7 JUMP JUMPDEST CALLVALUE PUSH2 0x1DC JUMPI PUSH1 0x0 PUSH1 0x20 CALLDATASIZE PUSH1 0x3 NOT ADD SLT PUSH2 0x703 JUMPI DUP1 PUSH1 0x4 CALLDATALOAD PUSH1 0x1 PUSH1 0x1 PUSH1 0x40 SHL SUB DUP2 GT PUSH2 0x1071 JUMPI CALLDATASIZE PUSH1 0x23 DUP3 ADD SLT ISZERO PUSH2 0x1071 JUMPI PUSH2 0x101D SWAP1 CALLDATASIZE SWAP1 PUSH1 0x24 DUP2 PUSH1 0x4 ADD CALLDATALOAD SWAP2 ADD PUSH2 0x871 JUMP JUMPDEST PUSH2 0x1025 PUSH2 0x20E1 JUMP JUMPDEST PUSH1 0x3 SLOAD PUSH1 0x1 PUSH1 0x1 PUSH1 0xA0 SHL SUB AND SWAP1 DUP2 EXTCODESIZE ISZERO PUSH2 0x106D JUMPI DUP3 SWAP2 PUSH2 0x105B SWAP2 PUSH1 0x40 MLOAD SWAP5 DUP6 DUP1 SWAP5 DUP2 SWAP4 PUSH4 0xA98FB355 PUSH1 0xE0 SHL DUP4 MSTORE PUSH1 0x4 DUP4 ADD PUSH2 0x1074 JUMP JUMPDEST SUB SWAP3 GAS CALL DUP1 ISZERO PUSH2 0xD68 JUMPI PUSH2 0xE6D JUMPI POP DUP1 RETURN JUMPDEST POP POP REVERT JUMPDEST POP REVERT JUMPDEST PUSH1 0x20 DUP1 DUP3 MSTORE DUP3 MLOAD DUP2 DUP4 ADD DUP2 SWAP1 MSTORE SWAP1 SWAP4 SWAP3 PUSH1 0x0 JUMPDEST DUP3 DUP2 LT PUSH2 0x10A9 JUMPI POP POP PUSH1 0x40 SWAP3 SWAP4 POP PUSH1 0x0 DUP4 DUP3 DUP5 ADD ADD MSTORE PUSH1 0x1F DUP1 NOT SWAP2 ADD AND ADD ADD SWAP1 JUMP JUMPDEST DUP2 DUP2 ADD DUP7 ADD MLOAD DUP5 DUP3 ADD PUSH1 0x40 ADD MSTORE DUP6 ADD PUSH2 0x1087 JUMP JUMPDEST CALLVALUE PUSH2 0x1DC JUMPI PUSH1 0x0 CALLDATASIZE PUSH1 0x3 NOT ADD SLT PUSH2 0x1DC JUMPI PUSH2 0x4F6 PUSH1 0x40 MLOAD PUSH2 0x10DD DUP2 PUSH2 0x7F0 JUMP JUMPDEST PUSH1 0x5 DUP2 MSTORE PUSH5 0x352E302E3 PUSH1 0xDC SHL PUSH1 0x20 DUP3 ADD MSTORE PUSH1 0x40 MLOAD SWAP2 DUP3 SWAP2 DUP3 PUSH2 0x1074 JUMP JUMPDEST CALLVALUE PUSH2 0x1DC JUMPI PUSH1 0x0 CALLDATASIZE PUSH1 0x3 NOT ADD SLT PUSH2 0x1DC JUMPI PUSH1 0x3 SLOAD PUSH1 0x40 MLOAD PUSH1 0x1 PUSH1 0x1 PUSH1 0xA0 SHL SUB SWAP1 SWAP2 AND DUP2 MSTORE PUSH1 0x20 SWAP1 RETURN JUMPDEST CALLVALUE PUSH2 0x1DC JUMPI PUSH1 0x3 NOT PUSH1 0x40 CALLDATASIZE DUP3 ADD SLT PUSH2 0x1DC JUMPI PUSH1 0x4 CALLDATALOAD SWAP1 PUSH1 0x1 PUSH1 0x1 PUSH1 0x40 SHL SUB DUP3 GT PUSH2 0x1DC JUMPI PUSH1 0x60 SWAP1 DUP3 CALLDATASIZE SUB ADD SLT PUSH2 0x1DC JUMPI PUSH1 0x3 SLOAD PUSH2 0x1169 SWAP1 PUSH1 0x1 PUSH1 0x1 PUSH1 0xA0 SHL SUB AND PUSH2 0x515 JUMP JUMPDEST SWAP1 DUP2 EXTCODESIZE ISZERO PUSH2 0x1DC JUMPI PUSH2 0x119A PUSH1 0x40 MLOAD DUP1 SWAP4 DUP2 DUP1 SWAP5 PUSH4 0x9926EE7D PUSH1 0xE0 SHL DUP3 MSTORE PUSH1 0x0 SWAP7 DUP8 SWAP6 DUP7 SWAP3 PUSH1 0x4 ADD CALLER PUSH1 0x4 DUP5 ADD PUSH2 0x1A15 JUMP JUMPDEST SUB SWAP3 GAS CALL DUP1 ISZERO PUSH2 0xD68 JUMPI PUSH2 0x11EC JUMPI JUMPDEST POP PUSH1 0x24 CALLDATALOAD PUSH1 0x1 PUSH2 0x11B8 CALLER PUSH2 0x1604 JUMP JUMPDEST ADD SSTORE PUSH2 0x11C3 CALLER PUSH2 0x27F7 JUMP JUMPDEST POP CALLER PUSH32 0x4D0EB1F4BAC8744FD2BE119845E23B3BEFC88094B42BCDA1204C65694A00F9E5 DUP3 DUP1 LOG2 DUP1 RETURN JUMPDEST DUP1 PUSH2 0xD5C PUSH2 0x11F9 SWAP3 PUSH2 0x7D8 JUMP JUMPDEST CODESIZE PUSH2 0x11A9 JUMP JUMPDEST CALLVALUE PUSH2 0x1DC JUMPI PUSH1 0x0 DUP1 PUSH1 0x3 NOT CALLDATASIZE ADD SLT PUSH2 0x703 JUMPI PUSH2 0x121A CALLER PUSH2 0x1C34 JUMP JUMPDEST PUSH1 0x2 DUP2 LT ISZERO PUSH2 0x6FE JUMPI ISZERO PUSH2 0x6EC JUMPI PUSH2 0x1241 PUSH2 0x1234 CALLER PUSH2 0x1604 JUMP JUMPDEST SLOAD PUSH1 0x1 PUSH1 0x1 PUSH1 0x40 SHL SUB AND SWAP1 JUMP JUMPDEST PUSH1 0x1 PUSH1 0x1 PUSH1 0x40 SHL SUB DUP2 AND ISZERO PUSH2 0x1362 JUMPI PUSH2 0x128E PUSH2 0x129A SWAP2 PUSH2 0x1288 PUSH32 0xAF993094C8EAA0ABDFFCC638BC8D87F9C9A50F945DB9B99AB0B6681EAB4F4F03 SLOAD PUSH1 0x1 PUSH1 0x1 PUSH1 0x40 SHL SUB AND SWAP1 JUMP JUMPDEST SWAP1 PUSH2 0x1A5E JUMP JUMPDEST PUSH1 0x1 PUSH1 0x1 PUSH1 0x40 SHL SUB AND SWAP1 JUMP JUMPDEST NUMBER LT PUSH2 0x1350 JUMPI PUSH1 0x3 SLOAD PUSH2 0x12B5 SWAP1 PUSH1 0x1 PUSH1 0x1 PUSH1 0xA0 SHL SUB AND PUSH2 0x515 JUMP JUMPDEST DUP1 EXTCODESIZE ISZERO PUSH2 0x134C JUMPI PUSH1 0x40 MLOAD PUSH4 0x51B27A6D PUSH1 0xE1 SHL DUP2 MSTORE CALLER PUSH1 0x4 DUP3 ADD MSTORE SWAP1 DUP3 SWAP1 DUP3 SWAP1 PUSH1 0x24 SWAP1 DUP3 SWAP1 DUP5 SWAP1 GAS CALL DUP1 ISZERO PUSH2 0xD68 JUMPI PUSH2 0x1339 JUMPI JUMPDEST POP PUSH2 0x1307 PUSH2 0x12F5 CALLER PUSH2 0x1604 JUMP JUMPDEST PUSH1 0x2 PUSH1 0x0 SWAP2 DUP3 DUP2 SSTORE DUP3 PUSH1 0x1 DUP3 ADD SSTORE ADD SSTORE JUMP JUMPDEST PUSH2 0x1310 CALLER PUSH2 0x26A2 JUMP JUMPDEST POP CALLER PUSH32 0x6DD4CA66565FB3DEE8076C654634C6C4AD949022D809D0394308617D6791218D DUP3 DUP1 LOG2 DUP1 RETURN JUMPDEST DUP1 PUSH2 0xD5C PUSH2 0x1346 SWAP3 PUSH2 0x7D8 JUMP JUMPDEST CODESIZE PUSH2 0x12E8 JUMP JUMPDEST POP DUP1 REVERT JUMPDEST PUSH1 0x40 MLOAD PUSH4 0x207C1161 PUSH1 0xE0 SHL DUP2 MSTORE PUSH1 0x4 SWAP1 REVERT JUMPDEST PUSH1 0x40 MLOAD PUSH4 0xA9E6E7EB PUSH1 0xE0 SHL DUP2 MSTORE PUSH1 0x4 SWAP1 REVERT JUMPDEST CALLVALUE PUSH2 0x1DC JUMPI PUSH1 0x0 CALLDATASIZE PUSH1 0x3 NOT ADD SLT PUSH2 0x1DC JUMPI PUSH1 0x40 MLOAD DUP1 PUSH1 0x0 DUP1 MLOAD PUSH1 0x20 PUSH2 0x2C55 DUP4 CODECOPY DUP2 MLOAD SWAP2 MSTORE SWAP2 DUP3 SLOAD DUP1 DUP3 MSTORE PUSH1 0x20 DUP1 SWAP3 ADD SWAP4 PUSH1 0x0 MSTORE PUSH1 0x0 DUP1 MLOAD PUSH1 0x20 PUSH2 0x2BF5 DUP4 CODECOPY DUP2 MLOAD SWAP2 MSTORE SWAP2 PUSH1 0x0 SWAP1 JUMPDEST DUP3 DUP3 LT PUSH2 0x13D2 JUMPI PUSH2 0x4F6 DUP6 PUSH2 0x621 DUP2 DUP10 SUB DUP3 PUSH2 0x826 JUMP JUMPDEST DUP4 SLOAD DUP7 MSTORE SWAP5 DUP6 ADD SWAP5 PUSH1 0x1 SWAP4 DUP5 ADD SWAP4 SWAP1 SWAP2 ADD SWAP1 PUSH2 0x13BB JUMP JUMPDEST CALLVALUE PUSH2 0x1DC JUMPI PUSH1 0x0 CALLDATASIZE PUSH1 0x3 NOT ADD SLT PUSH2 0x1DC JUMPI PUSH1 0x1 SLOAD PUSH1 0x40 MLOAD PUSH1 0x1 PUSH1 0x1 PUSH1 0xA0 SHL SUB SWAP1 SWAP2 AND DUP2 MSTORE PUSH1 0x20 SWAP1 RETURN JUMPDEST CALLVALUE PUSH2 0x1DC JUMPI PUSH1 0x20 CALLDATASIZE PUSH1 0x3 NOT ADD SLT PUSH2 0x1DC JUMPI PUSH2 0x9B4 PUSH1 0x4 CALLDATALOAD PUSH2 0x1432 DUP2 PUSH2 0x1CB JUMP JUMPDEST PUSH2 0x143A PUSH2 0x20E1 JUMP JUMPDEST PUSH2 0x1A79 JUMP JUMPDEST SWAP3 SWAP4 SWAP3 PUSH1 0x1 PUSH1 0x1 PUSH1 0xA0 SHL SUB SWAP1 DUP2 AND SWAP3 SWAP2 DUP4 ISZERO PUSH2 0x153C JUMPI DUP2 AND SWAP2 DUP3 ISZERO PUSH2 0x152A JUMPI DUP2 AND SWAP5 DUP6 ISZERO PUSH2 0x1518 JUMPI AND SWAP1 DUP2 ISZERO PUSH2 0x1506 JUMPI PUSH2 0x14F5 SWAP5 PUSH2 0x14BB PUSH2 0x14D8 SWAP3 PUSH2 0x149E PUSH2 0xC2D SWAP7 PUSH1 0x1 DUP1 PUSH1 0xA0 SHL SUB AND PUSH1 0x1 PUSH1 0x1 PUSH1 0x60 SHL SUB PUSH1 0xA0 SHL PUSH1 0x0 SLOAD AND OR PUSH1 0x0 SSTORE JUMP JUMPDEST PUSH1 0x1 DUP1 PUSH1 0xA0 SHL SUB AND PUSH1 0x1 PUSH1 0x1 PUSH1 0x60 SHL SUB PUSH1 0xA0 SHL PUSH1 0x1 SLOAD AND OR PUSH1 0x1 SSTORE JUMP JUMPDEST PUSH1 0x1 DUP1 PUSH1 0xA0 SHL SUB AND PUSH1 0x1 PUSH1 0x1 PUSH1 0x60 SHL SUB PUSH1 0xA0 SHL PUSH1 0x3 SLOAD AND OR PUSH1 0x3 SSTORE JUMP JUMPDEST PUSH1 0x1 DUP1 PUSH1 0xA0 SHL SUB AND PUSH1 0x1 PUSH1 0x1 PUSH1 0x60 SHL SUB PUSH1 0xA0 SHL PUSH1 0x2 SLOAD AND OR PUSH1 0x2 SSTORE JUMP JUMPDEST PUSH2 0x14FE CALLER PUSH2 0x1B5E JUMP JUMPDEST PUSH2 0x854 PUSH2 0x23D8 JUMP JUMPDEST PUSH1 0x40 MLOAD PUSH4 0x7D2B055F PUSH1 0xE1 SHL DUP2 MSTORE PUSH1 0x4 SWAP1 REVERT JUMPDEST PUSH1 0x40 MLOAD PUSH4 0x2225CDCF PUSH1 0xE1 SHL DUP2 MSTORE PUSH1 0x4 SWAP1 REVERT JUMPDEST PUSH1 0x40 MLOAD PUSH4 0x2023DE53 PUSH1 0xE1 SHL DUP2 MSTORE PUSH1 0x4 SWAP1 REVERT JUMPDEST PUSH1 0x40 MLOAD PUSH4 0x5B9D55C7 PUSH1 0xE1 SHL DUP2 MSTORE PUSH1 0x4 SWAP1 REVERT JUMPDEST PUSH1 0x1 PUSH1 0x1 PUSH1 0x40 SHL SUB DUP2 GT PUSH2 0x7EB JUMPI PUSH1 0x5 SHL PUSH1 0x20 ADD SWAP1 JUMP JUMPDEST SWAP1 PUSH2 0x156F DUP3 PUSH2 0x154E JUMP JUMPDEST PUSH1 0x40 SWAP1 PUSH2 0x157F PUSH1 0x40 MLOAD SWAP2 DUP3 PUSH2 0x826 JUMP JUMPDEST DUP4 DUP2 MSTORE DUP1 SWAP4 PUSH2 0x1590 PUSH1 0x1F NOT SWAP2 PUSH2 0x154E JUMP JUMPDEST ADD SWAP1 PUSH1 0x0 SWAP3 PUSH1 0x0 JUMPDEST DUP4 DUP2 LT PUSH2 0x15A6 JUMPI POP POP POP POP POP JUMP JUMPDEST DUP2 MLOAD SWAP1 PUSH1 0x80 DUP3 ADD SWAP2 DUP1 DUP4 LT PUSH1 0x1 PUSH1 0x1 PUSH1 0x40 SHL SUB DUP5 GT OR PUSH2 0x7EB JUMPI PUSH1 0x20 SWAP3 DUP5 MSTORE DUP7 DUP2 MSTORE DUP3 DUP8 DUP2 DUP4 ADD MSTORE DUP8 DUP6 DUP4 ADD MSTORE PUSH1 0x60 DUP1 DUP4 ADD MSTORE DUP3 DUP7 ADD ADD MSTORE ADD PUSH2 0x1598 JUMP JUMPDEST PUSH4 0x4E487B71 PUSH1 0xE0 SHL PUSH1 0x0 MSTORE PUSH1 0x21 PUSH1 0x4 MSTORE PUSH1 0x24 PUSH1 0x0 REVERT JUMPDEST PUSH1 0x2 GT ISZERO PUSH2 0x6FE JUMPI JUMP JUMPDEST PUSH1 0x1 PUSH1 0x1 PUSH1 0xA0 SHL SUB AND PUSH1 0x0 SWAP1 DUP2 MSTORE PUSH32 0xAF993094C8EAA0ABDFFCC638BC8D87F9C9A50F945DB9B99AB0B6681EAB4F4F00 PUSH1 0x20 MSTORE PUSH1 0x40 SWAP1 KECCAK256 SWAP1 JUMP JUMPDEST SWAP1 PUSH1 0x40 MLOAD PUSH1 0x60 DUP2 ADD PUSH1 0x1 PUSH1 0x1 PUSH1 0x40 SHL SUB SWAP4 DUP3 DUP3 LT DUP6 DUP4 GT OR PUSH2 0x7EB JUMPI PUSH1 0x2 PUSH1 0xFF SWAP2 PUSH1 0x40 SWAP4 DUP5 MSTORE DUP5 SWAP7 DUP2 SLOAD AND DUP6 MSTORE PUSH1 0x1 DUP2 ADD SLOAD PUSH1 0x20 DUP7 ADD MSTORE ADD SLOAD AND ISZERO ISZERO SWAP2 ADD MSTORE JUMP JUMPDEST PUSH4 0x4E487B71 PUSH1 0xE0 SHL PUSH1 0x0 MSTORE PUSH1 0x32 PUSH1 0x4 MSTORE PUSH1 0x24 PUSH1 0x0 REVERT JUMPDEST DUP1 MLOAD ISZERO PUSH2 0x16A1 JUMPI PUSH1 0x20 ADD SWAP1 JUMP JUMPDEST PUSH2 0x167E JUMP JUMPDEST DUP1 MLOAD DUP3 LT ISZERO PUSH2 0x16A1 JUMPI PUSH1 0x20 SWAP2 PUSH1 0x5 SHL ADD ADD SWAP1 JUMP JUMPDEST PUSH1 0x40 MLOAD SWAP1 PUSH2 0x16C7 DUP3 PUSH2 0x7F0 JUMP JUMPDEST PUSH1 0x0 PUSH1 0x20 DUP4 DUP3 DUP2 MSTORE ADD MSTORE JUMP JUMPDEST SWAP2 SWAP1 DUP2 LT ISZERO PUSH2 0x16A1 JUMPI PUSH1 0x5 SHL DUP2 ADD CALLDATALOAD SWAP1 PUSH1 0xBE NOT DUP2 CALLDATASIZE SUB ADD DUP3 SLT ISZERO PUSH2 0x1DC JUMPI ADD SWAP1 JUMP JUMPDEST SWAP1 CALLDATALOAD SWAP1 PUSH1 0x1E NOT DUP2 CALLDATASIZE SUB ADD DUP3 SLT ISZERO PUSH2 0x1DC JUMPI ADD DUP1 CALLDATALOAD SWAP1 PUSH1 0x1 PUSH1 0x1 PUSH1 0x40 SHL SUB DUP3 GT PUSH2 0x1DC JUMPI PUSH1 0x20 ADD SWAP2 DUP2 PUSH1 0x6 SHL CALLDATASIZE SUB DUP4 SGT PUSH2 0x1DC JUMPI JUMP JUMPDEST SWAP2 SWAP1 DUP2 LT ISZERO PUSH2 0x16A1 JUMPI PUSH1 0x6 SHL ADD SWAP1 JUMP JUMPDEST PUSH4 0x4E487B71 PUSH1 0xE0 SHL PUSH1 0x0 MSTORE PUSH1 0x11 PUSH1 0x4 MSTORE PUSH1 0x24 PUSH1 0x0 REVERT JUMPDEST SWAP1 PUSH1 0x1 DUP3 ADD DUP1 SWAP3 GT PUSH2 0x175E JUMPI JUMP JUMPDEST PUSH2 0x173A JUMP JUMPDEST SWAP2 SWAP1 DUP3 ADD DUP1 SWAP3 GT PUSH2 0x175E JUMPI JUMP JUMPDEST CALLDATALOAD PUSH2 0x8C3 DUP2 PUSH2 0x1CB JUMP JUMPDEST SWAP1 CALLDATALOAD PUSH1 0x1E NOT DUP3 CALLDATASIZE SUB ADD DUP2 SLT ISZERO PUSH2 0x1DC JUMPI ADD PUSH1 0x20 DUP2 CALLDATALOAD SWAP2 ADD SWAP2 PUSH1 0x1 PUSH1 0x1 PUSH1 0x40 SHL SUB DUP3 GT PUSH2 0x1DC JUMPI DUP2 PUSH1 0x6 SHL CALLDATASIZE SUB DUP4 SGT PUSH2 0x1DC JUMPI JUMP JUMPDEST CALLDATALOAD SWAP1 PUSH2 0x854 DUP3 PUSH2 0x1CB JUMP JUMPDEST SWAP2 SWAP1 DUP1 DUP3 MSTORE PUSH1 0x20 DUP1 SWAP3 ADD SWAP3 SWAP2 PUSH1 0x0 SWAP1 JUMPDEST DUP3 DUP3 LT PUSH2 0x17D7 JUMPI POP POP POP POP SWAP1 JUMP JUMPDEST SWAP1 SWAP2 SWAP3 SWAP4 PUSH1 0x1 SWAP1 DUP6 CALLDATALOAD PUSH2 0x17E9 DUP2 PUSH2 0x1CB JUMP JUMPDEST DUP3 DUP1 PUSH1 0xA0 SHL SUB AND DUP2 MSTORE DUP3 DUP7 ADD CALLDATALOAD DUP4 DUP3 ADD MSTORE PUSH1 0x40 DUP1 SWAP2 ADD SWAP6 ADD SWAP3 ADD SWAP1 SWAP3 SWAP2 SWAP3 PUSH2 0x17C9 JUMP JUMPDEST CALLDATALOAD SWAP1 PUSH4 0xFFFFFFFF DUP3 AND DUP3 SUB PUSH2 0x1DC JUMPI JUMP JUMPDEST SWAP1 CALLDATALOAD PUSH1 0x1E NOT DUP3 CALLDATASIZE SUB ADD DUP2 SLT ISZERO PUSH2 0x1DC JUMPI ADD PUSH1 0x20 DUP2 CALLDATALOAD SWAP2 ADD SWAP2 PUSH1 0x1 PUSH1 0x1 PUSH1 0x40 SHL SUB DUP3 GT PUSH2 0x1DC JUMPI DUP2 CALLDATASIZE SUB DUP4 SGT PUSH2 0x1DC JUMPI JUMP JUMPDEST SWAP1 DUP1 PUSH1 0x20 SWAP4 SWAP3 DUP2 DUP5 MSTORE DUP5 DUP5 ADD CALLDATACOPY PUSH1 0x0 DUP3 DUP3 ADD DUP5 ADD MSTORE PUSH1 0x1F ADD PUSH1 0x1F NOT AND ADD ADD SWAP1 JUMP JUMPDEST SWAP3 PUSH1 0x40 SWAP4 DUP5 DUP2 ADD SWAP1 PUSH1 0x1 DUP1 PUSH1 0xA0 SHL SUB DUP1 SWAP5 AND DUP2 MSTORE DUP3 PUSH1 0x20 SWAP3 DUP8 DUP5 DUP5 ADD MSTORE MSTORE PUSH1 0x60 DUP1 DUP3 ADD SWAP1 PUSH1 0x60 DUP6 PUSH1 0x5 SHL DUP5 ADD ADD SWAP8 DUP8 PUSH1 0x0 SWAP5 JUMPDEST DUP8 DUP7 LT PUSH2 0x18B6 JUMPI POP POP POP POP POP POP POP POP POP POP SWAP1 JUMP JUMPDEST SWAP1 SWAP2 SWAP3 SWAP4 SWAP5 SWAP6 SWAP7 SWAP8 SWAP9 SWAP10 PUSH1 0x5F NOT DUP3 DUP3 SUB ADD DUP7 MSTORE DUP11 CALLDATALOAD PUSH1 0xBE NOT DUP5 CALLDATASIZE SUB ADD DUP2 SLT ISZERO PUSH2 0x1DC JUMPI DUP4 DUP10 SWAP2 ADD SWAP2 PUSH1 0xC0 DUP1 DUP3 ADD PUSH2 0x18ED DUP6 DUP1 PUSH2 0x177A JUMP JUMPDEST SWAP3 DUP5 MSTORE SWAP1 DUP3 SWAP1 MSTORE PUSH1 0xE0 DUP4 ADD SWAP2 PUSH1 0x0 SWAP1 DUP16 JUMPDEST DUP2 DUP4 LT PUSH2 0x19B3 JUMPI POP POP POP POP DUP4 DUP4 SWAP3 PUSH2 0x194B PUSH2 0x199F SWAP4 PUSH2 0x1932 PUSH2 0x1923 DUP8 PUSH1 0x1 SWAP11 ADD PUSH2 0x17AE JUMP JUMPDEST PUSH1 0x1 PUSH1 0x1 PUSH1 0xA0 SHL SUB AND DUP5 DUP9 ADD MSTORE JUMP JUMPDEST PUSH2 0x193E DUP12 DUP6 ADD DUP6 PUSH2 0x177A JUMP JUMPDEST SWAP1 DUP5 DUP4 SUB DUP14 DUP7 ADD MSTORE PUSH2 0x17B9 JUMP JUMPDEST SWAP2 PUSH2 0x1966 PUSH2 0x195A DUP13 DUP4 ADD PUSH2 0x180C JUMP JUMPDEST PUSH4 0xFFFFFFFF AND DUP4 DUP14 ADD MSTORE JUMP JUMPDEST PUSH2 0x1982 PUSH1 0x80 PUSH2 0x1976 DUP2 DUP5 ADD PUSH2 0x180C JUMP JUMPDEST PUSH4 0xFFFFFFFF AND SWAP1 DUP5 ADD MSTORE JUMP JUMPDEST PUSH2 0x1991 PUSH1 0xA0 SWAP2 DUP3 DUP2 ADD SWAP1 PUSH2 0x181D JUMP JUMPDEST SWAP3 SWAP1 SWAP2 DUP2 DUP6 SUB SWAP2 ADD MSTORE PUSH2 0x184E JUMP JUMPDEST SWAP13 ADD SWAP7 ADD SWAP7 ADD SWAP5 SWAP9 SWAP8 SWAP7 SWAP6 SWAP4 SWAP3 SWAP2 SWAP1 PUSH2 0x18A2 JUMP JUMPDEST SWAP1 SWAP3 DUP1 SWAP6 SWAP7 POP SWAP4 SWAP2 SWAP4 CALLDATALOAD PUSH2 0x19C6 DUP2 PUSH2 0x1CB JUMP JUMPDEST AND DUP2 MSTORE DUP13 DUP5 ADD CALLDATALOAD SWAP1 PUSH1 0x1 PUSH1 0x1 PUSH1 0x60 SHL SUB DUP3 AND DUP1 SWAP3 SUB PUSH2 0x1DC JUMPI DUP10 DUP2 DUP16 SWAP4 PUSH1 0x1 SWAP5 DUP4 SWAP5 ADD MSTORE ADD SWAP5 ADD SWAP3 ADD DUP13 SWAP5 SWAP4 SWAP3 SWAP2 DUP16 PUSH2 0x18FE JUMP JUMPDEST PUSH1 0x40 MLOAD RETURNDATASIZE PUSH1 0x0 DUP3 RETURNDATACOPY RETURNDATASIZE SWAP1 REVERT JUMPDEST SWAP1 DUP2 PUSH1 0x20 SWAP2 SUB SLT PUSH2 0x1DC JUMPI MLOAD SWAP1 JUMP JUMPDEST PUSH1 0x1 PUSH1 0x1 PUSH1 0xA0 SHL SUB SWAP1 SWAP2 AND DUP2 MSTORE PUSH1 0x40 PUSH1 0x20 DUP3 ADD DUP2 SWAP1 MSTORE PUSH1 0x80 SWAP1 PUSH2 0x1A4B PUSH2 0x1A3B DUP6 DUP1 PUSH2 0x181D JUMP JUMPDEST PUSH1 0x60 DUP5 DUP8 ADD MSTORE PUSH1 0xA0 DUP7 ADD SWAP2 PUSH2 0x184E JUMP JUMPDEST SWAP4 PUSH1 0x20 DUP2 ADD CALLDATALOAD PUSH1 0x60 DUP6 ADD MSTORE ADD CALLDATALOAD SWAP2 ADD MSTORE SWAP1 JUMP JUMPDEST SWAP2 SWAP1 SWAP2 PUSH1 0x1 PUSH1 0x1 PUSH1 0x40 SHL SUB DUP1 DUP1 SWAP5 AND SWAP2 AND ADD SWAP2 DUP3 GT PUSH2 0x175E JUMPI JUMP JUMPDEST PUSH1 0x1 PUSH1 0x1 PUSH1 0xA0 SHL SUB SWAP1 DUP2 AND SWAP1 DUP2 ISZERO PUSH2 0x1AD4 JUMPI PUSH1 0x0 DUP1 MLOAD PUSH1 0x20 PUSH2 0x2B95 DUP4 CODECOPY DUP2 MLOAD SWAP2 MSTORE DUP1 SLOAD PUSH1 0x1 PUSH1 0x1 PUSH1 0xA0 SHL SUB NOT DUP2 AND DUP5 OR SWAP1 SWAP2 SSTORE AND PUSH32 0x8BE0079C531659141344CD1FD0A4F28419497F9722A3DAAFE3B4186F6B6457E0 PUSH1 0x0 DUP1 LOG3 JUMP JUMPDEST PUSH1 0x40 MLOAD PUSH4 0x1E4FBDF7 PUSH1 0xE0 SHL DUP2 MSTORE PUSH1 0x0 PUSH1 0x4 DUP3 ADD MSTORE PUSH1 0x24 SWAP1 REVERT JUMPDEST PUSH1 0x40 PUSH32 0x7D9C9CE14FD1F11F09BF0FACA4D408D3BB5815CEB44368D65B408EBC4401165C SWAP2 PUSH32 0xAF993094C8EAA0ABDFFCC638BC8D87F9C9A50F945DB9B99AB0B6681EAB4F4F03 DUP1 SLOAD SWAP2 PUSH1 0x1 PUSH1 0x1 PUSH1 0x40 SHL SUB DUP1 SWAP2 AND SWAP2 DUP3 PUSH1 0x1 PUSH1 0x1 PUSH1 0x40 SHL SUB NOT DUP6 AND OR SWAP1 SSTORE DUP4 MLOAD SWAP3 AND DUP3 MSTORE PUSH1 0x20 DUP3 ADD MSTORE LOG1 JUMP JUMPDEST PUSH2 0x854 SWAP1 PUSH2 0x1B6A PUSH2 0x23D8 JUMP JUMPDEST PUSH2 0x143A PUSH2 0x23D8 JUMP JUMPDEST SWAP1 PUSH2 0x1B7C DUP3 PUSH2 0x154E JUMP JUMPDEST PUSH2 0x1B89 PUSH1 0x40 MLOAD SWAP2 DUP3 PUSH2 0x826 JUMP JUMPDEST DUP3 DUP2 MSTORE DUP1 SWAP3 PUSH2 0x1B9A PUSH1 0x1F NOT SWAP2 PUSH2 0x154E JUMP JUMPDEST ADD SWAP1 PUSH1 0x20 CALLDATASIZE SWAP2 ADD CALLDATACOPY JUMP JUMPDEST PUSH1 0x0 DUP1 MLOAD PUSH1 0x20 PUSH2 0x2C55 DUP4 CODECOPY DUP2 MLOAD SWAP2 MSTORE DUP1 SLOAD PUSH2 0x1BBE DUP2 PUSH2 0x1B72 JUMP JUMPDEST SWAP2 PUSH1 0x0 DUP1 JUMPDEST DUP4 DUP2 LT PUSH2 0x1BD1 JUMPI POP POP POP POP SWAP1 JUMP JUMPDEST DUP3 DUP3 MSTORE PUSH1 0x0 DUP1 MLOAD PUSH1 0x20 PUSH2 0x2BF5 DUP4 CODECOPY DUP2 MLOAD SWAP2 MSTORE DUP2 ADD SLOAD PUSH1 0x1 SWAP2 SWAP1 PUSH1 0x1 PUSH1 0x1 PUSH1 0xA0 SHL SUB AND PUSH2 0x1BFD DUP3 DUP9 PUSH2 0x16A6 JUMP JUMPDEST MSTORE ADD PUSH2 0x1BC3 JUMP JUMPDEST RETURNDATASIZE ISZERO PUSH2 0x1C2F JUMPI RETURNDATASIZE SWAP1 PUSH2 0x1C15 DUP3 PUSH2 0x856 JUMP JUMPDEST SWAP2 PUSH2 0x1C23 PUSH1 0x40 MLOAD SWAP4 DUP5 PUSH2 0x826 JUMP JUMPDEST DUP3 MSTORE RETURNDATASIZE PUSH1 0x0 PUSH1 0x20 DUP5 ADD RETURNDATACOPY JUMP JUMPDEST PUSH1 0x60 SWAP1 JUMP JUMPDEST PUSH1 0x3 SLOAD PUSH1 0x40 MLOAD PUSH4 0x49075DA3 PUSH1 0xE0 SHL PUSH1 0x20 DUP3 ADD SWAP1 DUP2 MSTORE ADDRESS PUSH1 0x24 DUP4 ADD MSTORE PUSH1 0x1 PUSH1 0x1 PUSH1 0xA0 SHL SUB SWAP4 DUP5 AND PUSH1 0x44 DUP4 ADD MSTORE SWAP2 SWAP1 SWAP3 AND SWAP2 PUSH2 0x1C7B DUP2 PUSH1 0x64 DUP2 ADD JUMPDEST SUB PUSH1 0x1F NOT DUP2 ADD DUP4 MSTORE DUP3 PUSH2 0x826 JUMP JUMPDEST PUSH1 0x0 SWAP3 DUP4 SWAP3 DUP4 SWAP3 MLOAD SWAP2 GAS STATICCALL PUSH2 0x1C8E PUSH2 0x1C04 JUMP JUMPDEST SWAP1 ISZERO PUSH2 0x1CB3 JUMPI PUSH1 0x20 DUP2 DUP1 MLOAD DUP2 ADD SUB SLT PUSH2 0x134C JUMPI PUSH1 0x20 ADD MLOAD SWAP1 PUSH1 0x2 DUP3 LT ISZERO PUSH2 0x703 JUMPI POP SWAP1 JUMP JUMPDEST PUSH1 0x40 MLOAD PUSH4 0x3D635FE9 PUSH1 0xE1 SHL DUP2 MSTORE PUSH1 0x4 SWAP1 REVERT JUMPDEST PUSH1 0x20 SWAP1 DUP2 DUP2 DUP5 SUB SLT PUSH2 0x1DC JUMPI DUP1 MLOAD SWAP1 PUSH1 0x1 PUSH1 0x1 PUSH1 0x40 SHL SUB DUP3 GT PUSH2 0x1DC JUMPI ADD SWAP2 DUP1 PUSH1 0x1F DUP5 ADD SLT ISZERO PUSH2 0x1DC JUMPI DUP3 MLOAD PUSH2 0x1CFA DUP2 PUSH2 0x154E JUMP JUMPDEST SWAP4 PUSH2 0x1D08 PUSH1 0x40 MLOAD SWAP6 DUP7 PUSH2 0x826 JUMP JUMPDEST DUP2 DUP6 MSTORE DUP4 DUP1 DUP7 ADD SWAP3 PUSH1 0x5 SHL DUP3 ADD ADD SWAP3 DUP4 GT PUSH2 0x1DC JUMPI DUP4 ADD SWAP1 JUMPDEST DUP3 DUP3 LT PUSH2 0x1D2F JUMPI POP POP POP POP SWAP1 JUMP JUMPDEST DUP2 MLOAD DUP2 MSTORE SWAP1 DUP4 ADD SWAP1 DUP4 ADD PUSH2 0x1D21 JUMP JUMPDEST PUSH1 0x1 PUSH1 0x1 PUSH1 0xA0 SHL SUB SWAP2 DUP3 AND DUP2 MSTORE PUSH1 0x40 PUSH1 0x20 DUP1 DUP4 ADD DUP3 SWAP1 MSTORE DUP5 MLOAD SWAP2 DUP4 ADD DUP3 SWAP1 MSTORE PUSH1 0x60 SWAP1 SWAP3 ADD SWAP4 DUP3 ADD SWAP2 PUSH1 0x0 JUMPDEST DUP3 DUP2 LT PUSH2 0x1D78 JUMPI POP POP POP POP POP SWAP1 JUMP JUMPDEST DUP4 MLOAD DUP6 AND DUP7 MSTORE SWAP5 DUP2 ADD SWAP5 SWAP3 DUP2 ADD SWAP3 PUSH1 0x1 ADD PUSH2 0x1D69 JUMP JUMPDEST PUSH1 0x1 DUP1 SLOAD PUSH1 0x40 MLOAD PUSH4 0x90041347 PUSH1 0xE0 SHL DUP2 MSTORE SWAP4 SWAP2 SWAP3 PUSH1 0x0 SWAP3 DUP6 SWAP3 PUSH1 0x1 PUSH1 0x1 PUSH1 0xA0 SHL SUB AND SWAP2 DUP4 SWAP2 DUP3 SWAP2 PUSH2 0x1DC3 SWAP2 SWAP1 PUSH1 0x4 DUP5 ADD PUSH2 0x1D3E JUMP JUMPDEST SUB SWAP2 GAS STATICCALL SWAP2 DUP3 ISZERO PUSH2 0xD68 JUMPI PUSH1 0x0 SWAP3 PUSH2 0x1E1E JUMPI JUMPDEST POP DUP1 PUSH1 0x0 SWAP3 PUSH1 0x0 SWAP3 JUMPDEST PUSH2 0x1DEA JUMPI JUMPDEST POP POP POP SWAP1 JUMP JUMPDEST DUP1 SWAP4 SWAP2 SWAP3 SWAP4 MLOAD DUP5 LT ISZERO PUSH2 0x1E16 JUMPI PUSH2 0x1E01 DUP5 DUP3 PUSH2 0x16A6 JUMP JUMPDEST MLOAD DUP3 ADD DUP1 SWAP3 GT PUSH2 0x175E JUMPI DUP3 DUP1 SWAP3 SWAP5 ADD SWAP3 PUSH2 0x1DDF JUMP JUMPDEST DUP2 SWAP4 POP PUSH2 0x1DE4 JUMP JUMPDEST PUSH2 0x1E3C SWAP2 SWAP3 POP RETURNDATASIZE DUP1 PUSH1 0x0 DUP4 RETURNDATACOPY PUSH2 0x1E34 DUP2 DUP4 PUSH2 0x826 JUMP JUMPDEST DUP2 ADD SWAP1 PUSH2 0x1CC5 JUMP JUMPDEST SWAP1 CODESIZE PUSH2 0x1DD6 JUMP JUMPDEST PUSH1 0x0 NOT DUP2 EQ PUSH2 0x175E JUMPI PUSH1 0x1 ADD SWAP1 JUMP JUMPDEST SWAP1 PUSH1 0x60 SWAP2 PUSH2 0x1E6B PUSH1 0x20 PUSH2 0x1E64 DUP4 PUSH2 0x211A JUMP JUMPDEST ADD MLOAD ISZERO ISZERO SWAP1 JUMP JUMPDEST PUSH2 0x1E73 JUMPI JUMPDEST POP JUMP JUMPDEST SWAP2 POP PUSH1 0x0 DUP1 MLOAD PUSH1 0x20 PUSH2 0x2C55 DUP4 CODECOPY DUP2 MLOAD SWAP2 MSTORE SLOAD PUSH2 0x1E8E DUP2 PUSH2 0x1B72 JUMP JUMPDEST SWAP3 PUSH1 0x0 JUMPDEST DUP3 DUP2 LT PUSH2 0x1F8F JUMPI POP PUSH1 0x1 DUP1 SLOAD PUSH2 0x1ED8 SWAP4 SWAP3 PUSH1 0x0 SWAP2 DUP8 SWAP2 SWAP1 PUSH2 0x1EBB SWAP1 PUSH1 0x1 PUSH1 0x1 PUSH1 0xA0 SHL SUB AND PUSH2 0x515 JUMP JUMPDEST SWAP1 PUSH1 0x40 MLOAD DUP1 SWAP8 DUP2 SWAP5 DUP3 SWAP4 PUSH4 0x90041347 PUSH1 0xE0 SHL DUP5 MSTORE PUSH1 0x4 DUP5 ADD PUSH2 0x1D3E JUMP JUMPDEST SUB SWAP2 GAS STATICCALL SWAP3 DUP4 ISZERO PUSH2 0xD68 JUMPI PUSH1 0x0 SWAP4 PUSH2 0x1F72 JUMPI JUMPDEST POP PUSH1 0x0 SWAP3 PUSH2 0x1EF8 DUP4 PUSH2 0x1B72 JUMP JUMPDEST SWAP6 DUP5 JUMPDEST DUP5 DUP2 LT PUSH2 0x1F13 JUMPI POP POP POP POP DUP2 LT PUSH2 0x1F0F JUMPI POP JUMP JUMPDEST DUP3 MSTORE JUMP JUMPDEST DUP1 PUSH2 0x1F1F DUP6 SWAP3 DUP6 PUSH2 0x16A6 JUMP JUMPDEST MLOAD PUSH2 0x1F2B JUMPI JUMPDEST ADD PUSH2 0x1EFB JUMP JUMPDEST PUSH2 0x1F6D PUSH2 0x1F4B PUSH2 0x515 PUSH2 0x1F3E DUP5 DUP8 PUSH2 0x16A6 JUMP JUMPDEST MLOAD PUSH1 0x1 PUSH1 0x1 PUSH1 0xA0 SHL SUB AND SWAP1 JUMP JUMPDEST PUSH2 0x1F5E PUSH2 0x1F57 DUP11 PUSH2 0x1E43 JUMP JUMPDEST SWAP10 DUP13 PUSH2 0x16A6 JUMP JUMPDEST PUSH1 0x1 PUSH1 0x1 PUSH1 0xA0 SHL SUB SWAP1 SWAP2 AND SWAP1 MSTORE JUMP JUMPDEST PUSH2 0x1F25 JUMP JUMPDEST PUSH2 0x1F88 SWAP2 SWAP4 POP RETURNDATASIZE DUP1 PUSH1 0x0 DUP4 RETURNDATACOPY PUSH2 0x1E34 DUP2 DUP4 PUSH2 0x826 JUMP JUMPDEST SWAP2 CODESIZE PUSH2 0x1EEB JUMP JUMPDEST DUP1 PUSH2 0x1FB1 PUSH2 0x1FA7 PUSH2 0x515 PUSH2 0x515 PUSH2 0x515 PUSH1 0x1 SWAP7 PUSH2 0x24BC JUMP JUMPDEST PUSH2 0x1F5E DUP4 DUP10 PUSH2 0x16A6 JUMP JUMPDEST ADD PUSH2 0x1E92 JUMP JUMPDEST PUSH1 0x0 NOT DUP2 ADD SWAP2 SWAP1 DUP3 GT PUSH2 0x175E JUMPI JUMP JUMPDEST SWAP2 SWAP1 DUP3 SUB SWAP2 DUP3 GT PUSH2 0x175E JUMPI JUMP JUMPDEST DUP1 MLOAD DUP1 ISZERO PUSH2 0x20DD JUMPI PUSH2 0x1FE4 SWAP1 PUSH2 0x1B72 JUMP JUMPDEST SWAP1 PUSH1 0x0 JUMPDEST DUP2 MLOAD DUP2 LT ISZERO PUSH2 0x2014 JUMPI DUP1 PUSH2 0x200E PUSH2 0x2004 PUSH2 0x1F3E PUSH1 0x1 SWAP5 DUP7 PUSH2 0x16A6 JUMP JUMPDEST PUSH2 0x1F5E DUP4 DUP8 PUSH2 0x16A6 JUMP JUMPDEST ADD PUSH2 0x1FE8 JUMP JUMPDEST POP POP PUSH1 0x0 SWAP1 JUMPDEST PUSH2 0x2024 DUP2 MLOAD PUSH2 0x1FB7 JUMP JUMPDEST DUP3 LT ISZERO PUSH2 0x20D8 JUMPI PUSH1 0x0 JUMPDEST PUSH2 0x2041 PUSH2 0x203C DUP5 DUP5 MLOAD PUSH2 0x1FC6 JUMP JUMPDEST PUSH2 0x1FB7 JUMP JUMPDEST DUP2 LT ISZERO PUSH2 0x20CD JUMPI DUP1 PUSH2 0x205B PUSH2 0x515 PUSH2 0x1F3E PUSH1 0x1 SWAP5 DUP7 PUSH2 0x16A6 JUMP JUMPDEST PUSH2 0x2076 PUSH2 0x515 PUSH2 0x515 PUSH2 0x1F3E PUSH2 0x2070 DUP7 PUSH2 0x1750 JUMP JUMPDEST DUP9 PUSH2 0x16A6 JUMP JUMPDEST SWAP1 DUP4 DUP1 PUSH1 0xA0 SHL SUB AND GT PUSH2 0x208A JUMPI JUMPDEST ADD PUSH2 0x202E JUMP JUMPDEST PUSH2 0x20C8 PUSH2 0x20A2 PUSH2 0x1F3E PUSH2 0x209C DUP5 PUSH2 0x1750 JUMP JUMPDEST DUP7 PUSH2 0x16A6 JUMP JUMPDEST PUSH2 0x20BE PUSH2 0x20B2 PUSH2 0x1F3E DUP6 DUP9 PUSH2 0x16A6 JUMP JUMPDEST PUSH2 0x1F5E PUSH2 0x2070 DUP7 PUSH2 0x1750 JUMP JUMPDEST PUSH2 0x1F5E DUP4 DUP7 PUSH2 0x16A6 JUMP JUMPDEST PUSH2 0x2084 JUMP JUMPDEST POP SWAP1 PUSH1 0x1 ADD SWAP1 PUSH2 0x201A JUMP JUMPDEST SWAP1 POP SWAP1 JUMP JUMPDEST POP SWAP1 JUMP JUMPDEST PUSH1 0x0 DUP1 MLOAD PUSH1 0x20 PUSH2 0x2B95 DUP4 CODECOPY DUP2 MLOAD SWAP2 MSTORE SLOAD PUSH1 0x1 PUSH1 0x1 PUSH1 0xA0 SHL SUB AND CALLER SUB PUSH2 0x2102 JUMPI JUMP JUMPDEST PUSH1 0x40 MLOAD PUSH4 0x118CDAA7 PUSH1 0xE0 SHL DUP2 MSTORE CALLER PUSH1 0x4 DUP3 ADD MSTORE PUSH1 0x24 SWAP1 REVERT JUMPDEST PUSH2 0x2122 PUSH2 0x16BA JUMP JUMPDEST POP PUSH1 0x1 PUSH1 0x1 PUSH1 0xA0 SHL SUB DUP2 AND PUSH1 0x0 SWAP1 DUP2 MSTORE PUSH32 0xAF993094C8EAA0ABDFFCC638BC8D87F9C9A50F945DB9B99AB0B6681EAB4F4F00 PUSH1 0x20 MSTORE PUSH1 0x40 SWAP1 KECCAK256 SLOAD PUSH1 0x1 PUSH1 0x1 PUSH1 0x40 SHL SUB AND SWAP1 PUSH2 0x216E SWAP1 PUSH2 0x1C34 JUMP JUMPDEST PUSH1 0x2 DUP2 LT ISZERO PUSH2 0x6FE JUMPI PUSH1 0x1 SWAP1 PUSH1 0x40 MLOAD SWAP3 PUSH2 0x2187 DUP5 PUSH2 0x7F0 JUMP JUMPDEST DUP4 MSTORE EQ PUSH1 0x20 DUP3 ADD MSTORE SWAP1 JUMP JUMPDEST DUP1 ISZERO PUSH2 0x2234 JUMPI PUSH1 0x0 DUP1 MLOAD PUSH1 0x20 PUSH2 0x2BB5 DUP4 CODECOPY DUP2 MLOAD SWAP2 MSTORE SLOAD DUP1 PUSH2 0x21C0 JUMPI POP PUSH1 0x0 DUP1 MLOAD PUSH1 0x20 PUSH2 0x2BB5 DUP4 CODECOPY DUP2 MLOAD SWAP2 MSTORE SSTORE JUMP JUMPDEST PUSH1 0x1 DUP2 ADD DUP1 SWAP2 GT PUSH2 0x175E JUMPI DUP2 SUB PUSH2 0x21E3 JUMPI PUSH1 0x0 DUP1 MLOAD PUSH1 0x20 PUSH2 0x2BB5 DUP4 CODECOPY DUP2 MLOAD SWAP2 MSTORE SSTORE JUMP JUMPDEST PUSH1 0x40 MLOAD PUSH3 0x461BCD PUSH1 0xE5 SHL DUP2 MSTORE PUSH1 0x20 PUSH1 0x4 DUP3 ADD MSTORE PUSH1 0x24 DUP1 DUP3 ADD MSTORE PUSH32 0x6C617465737420726577617264656420657261206D75737420626520696E2061 PUSH1 0x44 DUP3 ADD MSTORE PUSH4 0x20726F77 PUSH1 0xE0 SHL PUSH1 0x64 DUP3 ADD MSTORE PUSH1 0x84 SWAP1 REVERT JUMPDEST PUSH1 0x40 MLOAD PUSH3 0x461BCD PUSH1 0xE5 SHL DUP2 MSTORE PUSH1 0x20 PUSH1 0x4 DUP3 ADD MSTORE PUSH1 0x1B PUSH1 0x24 DUP3 ADD MSTORE PUSH32 0x72657761726420657261206D757374206D6F7265207468616E20300000000000 PUSH1 0x44 DUP3 ADD MSTORE PUSH1 0x64 SWAP1 REVERT JUMPDEST PUSH1 0x40 MLOAD PUSH4 0x6EB1769F PUSH1 0xE1 SHL DUP2 MSTORE ADDRESS PUSH1 0x4 DUP3 ADD MSTORE PUSH1 0x1 PUSH1 0x1 PUSH1 0xA0 SHL SUB DUP4 DUP2 AND PUSH1 0x24 DUP4 ADD MSTORE SWAP3 SWAP4 SWAP1 SWAP3 PUSH1 0x20 SWAP2 DUP4 DUP3 AND SWAP1 DUP4 DUP7 PUSH1 0x44 DUP2 DUP6 GAS STATICCALL SWAP6 DUP7 ISZERO PUSH2 0xD68 JUMPI PUSH1 0x0 SWAP7 PUSH2 0x23A9 JUMPI JUMPDEST POP DUP6 ADD DUP1 SWAP6 GT PUSH2 0x175E JUMPI PUSH1 0x0 DUP1 PUSH1 0x40 MLOAD SWAP7 DUP6 DUP9 ADD SWAP1 PUSH4 0x95EA7B3 PUSH1 0xE0 SHL SWAP6 DUP7 DUP4 MSTORE DUP11 AND PUSH1 0x24 DUP11 ADD MSTORE PUSH1 0x44 DUP10 ADD MSTORE PUSH1 0x44 DUP9 MSTORE PUSH2 0x22F8 DUP9 PUSH2 0x80B JUMP JUMPDEST DUP8 MLOAD SWAP1 DUP3 DUP6 GAS CALL SWAP1 PUSH2 0x2308 PUSH2 0x1C04 JUMP JUMPDEST DUP3 PUSH2 0x2376 JUMPI JUMPDEST POP DUP2 PUSH2 0x236B JUMPI JUMPDEST POP ISZERO PUSH2 0x2323 JUMPI JUMPDEST POP POP POP POP POP JUMP JUMPDEST PUSH1 0x40 MLOAD SWAP2 DUP3 ADD MSTORE PUSH1 0x1 PUSH1 0x1 PUSH1 0xA0 SHL SUB SWAP1 SWAP4 AND PUSH1 0x24 DUP5 ADD MSTORE PUSH1 0x0 PUSH1 0x44 DUP5 ADD MSTORE PUSH2 0x2361 SWAP3 PUSH2 0x235C SWAP1 PUSH2 0x2356 DUP2 PUSH1 0x64 DUP2 ADD PUSH2 0x1C6D JUMP JUMPDEST DUP3 PUSH2 0x2ABF JUMP JUMPDEST PUSH2 0x2ABF JUMP JUMPDEST CODESIZE DUP1 DUP1 DUP1 DUP1 PUSH2 0x231C JUMP JUMPDEST SWAP1 POP EXTCODESIZE ISZERO ISZERO CODESIZE PUSH2 0x2315 JUMP JUMPDEST DUP1 SWAP2 SWAP3 POP MLOAD SWAP1 DUP5 DUP3 ISZERO SWAP3 DUP4 ISZERO PUSH2 0x2391 JUMPI JUMPDEST POP POP POP SWAP1 CODESIZE PUSH2 0x230E JUMP JUMPDEST PUSH2 0x23A1 SWAP4 POP DUP3 ADD DUP2 ADD SWAP2 ADD PUSH2 0x2AAA JUMP JUMPDEST CODESIZE DUP5 DUP2 PUSH2 0x2387 JUMP JUMPDEST SWAP1 SWAP6 POP DUP4 DUP2 DUP2 RETURNDATASIZE DUP4 GT PUSH2 0x23D1 JUMPI JUMPDEST PUSH2 0x23C1 DUP2 DUP4 PUSH2 0x826 JUMP JUMPDEST DUP2 ADD SUB SLT PUSH2 0x1DC JUMPI MLOAD SWAP5 CODESIZE PUSH2 0x22BE JUMP JUMPDEST POP RETURNDATASIZE PUSH2 0x23B7 JUMP JUMPDEST PUSH1 0xFF PUSH1 0x0 DUP1 MLOAD PUSH1 0x20 PUSH2 0x2C35 DUP4 CODECOPY DUP2 MLOAD SWAP2 MSTORE SLOAD PUSH1 0x40 SHR AND ISZERO PUSH2 0x23F5 JUMPI JUMP JUMPDEST PUSH1 0x40 MLOAD PUSH4 0x1AFCD79F PUSH1 0xE3 SHL DUP2 MSTORE PUSH1 0x4 SWAP1 REVERT JUMPDEST PUSH1 0x0 DUP1 MLOAD PUSH1 0x20 PUSH2 0x2C55 DUP4 CODECOPY DUP2 MLOAD SWAP2 MSTORE DUP1 SLOAD DUP3 LT ISZERO PUSH2 0x16A1 JUMPI PUSH1 0x0 MSTORE PUSH1 0x0 DUP1 MLOAD PUSH1 0x20 PUSH2 0x2BF5 DUP4 CODECOPY DUP2 MLOAD SWAP2 MSTORE ADD SWAP1 PUSH1 0x0 SWAP1 JUMP JUMPDEST PUSH1 0x0 DUP1 MLOAD PUSH1 0x20 PUSH2 0x2BD5 DUP4 CODECOPY DUP2 MLOAD SWAP2 MSTORE DUP1 SLOAD DUP3 LT ISZERO PUSH2 0x16A1 JUMPI PUSH1 0x0 MSTORE PUSH32 0x6D5632CD9A7B6DFEE21FDCF6C7874238D88C254239C9613977670FB28D0DF36B ADD SWAP1 PUSH1 0x0 SWAP1 JUMP JUMPDEST PUSH1 0x0 DUP1 MLOAD PUSH1 0x20 PUSH2 0x2BD5 DUP4 CODECOPY DUP2 MLOAD SWAP2 MSTORE DUP1 SLOAD DUP3 LT ISZERO PUSH2 0x16A1 JUMPI PUSH1 0x0 MSTORE PUSH32 0x6D5632CD9A7B6DFEE21FDCF6C7874238D88C254239C9613977670FB28D0DF36B ADD SLOAD SWAP1 JUMP JUMPDEST PUSH1 0x0 DUP1 MLOAD PUSH1 0x20 PUSH2 0x2C55 DUP4 CODECOPY DUP2 MLOAD SWAP2 MSTORE DUP1 SLOAD DUP3 LT ISZERO PUSH2 0x16A1 JUMPI PUSH1 0x0 MSTORE PUSH1 0x0 DUP1 MLOAD PUSH1 0x20 PUSH2 0x2BF5 DUP4 CODECOPY DUP2 MLOAD SWAP2 MSTORE ADD SLOAD SWAP1 JUMP JUMPDEST PUSH1 0x0 DUP1 MLOAD PUSH1 0x20 PUSH2 0x2C55 DUP4 CODECOPY DUP2 MLOAD SWAP2 MSTORE DUP1 SLOAD SWAP1 DUP2 ISZERO PUSH2 0x253D JUMPI PUSH1 0x0 NOT DUP3 ADD SWAP2 DUP1 DUP4 LT ISZERO PUSH2 0x16A1 JUMPI PUSH32 0xF7D7E697360407AF72F21B9DD15AD33DCCEC16D662D65C043A3B77C0C9D1B269 PUSH1 0x0 SWAP2 DUP4 DUP4 MSTORE ADD SSTORE SSTORE JUMP JUMPDEST PUSH4 0x4E487B71 PUSH1 0xE0 SHL PUSH1 0x0 MSTORE PUSH1 0x31 PUSH1 0x4 MSTORE PUSH1 0x24 PUSH1 0x0 REVERT JUMPDEST PUSH1 0x0 DUP1 MLOAD PUSH1 0x20 PUSH2 0x2BD5 DUP4 CODECOPY DUP2 MLOAD SWAP2 MSTORE DUP1 SLOAD SWAP1 DUP2 ISZERO PUSH2 0x253D JUMPI PUSH1 0x0 NOT DUP3 ADD SWAP2 DUP1 DUP4 LT ISZERO PUSH2 0x16A1 JUMPI PUSH32 0x6D5632CD9A7B6DFEE21FDCF6C7874238D88C254239C9613977670FB28D0DF36A PUSH1 0x0 SWAP2 DUP4 DUP4 MSTORE ADD SSTORE SSTORE JUMP JUMPDEST PUSH1 0x0 DUP2 DUP2 MSTORE PUSH32 0xAF993094C8EAA0ABDFFCC638BC8D87F9C9A50F945DB9B99AB0B6681EAB4F4F07 PUSH1 0x20 MSTORE PUSH1 0x40 SWAP1 KECCAK256 SLOAD DUP1 ISZERO PUSH2 0x269B JUMPI PUSH1 0x0 NOT SWAP2 DUP2 DUP4 ADD SWAP2 DUP1 DUP4 GT PUSH2 0x175E JUMPI PUSH1 0x0 DUP1 MLOAD PUSH1 0x20 PUSH2 0x2C55 DUP4 CODECOPY DUP2 MLOAD SWAP2 MSTORE SLOAD SWAP4 DUP5 ADD SWAP4 DUP5 GT PUSH2 0x175E JUMPI DUP4 DUP4 PUSH1 0x0 SWAP6 PUSH2 0x264B SWAP6 SUB PUSH2 0x2651 JUMPI JUMPDEST POP POP POP PUSH2 0x261C PUSH2 0x24EB JUMP JUMPDEST PUSH1 0x0 MSTORE PUSH32 0xAF993094C8EAA0ABDFFCC638BC8D87F9C9A50F945DB9B99AB0B6681EAB4F4F07 PUSH1 0x20 MSTORE PUSH1 0x40 PUSH1 0x0 KECCAK256 SWAP1 JUMP JUMPDEST SSTORE PUSH1 0x1 SWAP1 JUMP JUMPDEST PUSH2 0x261C PUSH2 0x2679 SWAP2 PUSH2 0x2671 PUSH2 0x2667 PUSH2 0x2692 SWAP6 PUSH2 0x2407 JUMP JUMPDEST SWAP1 SLOAD SWAP1 PUSH1 0x3 SHL SHR SWAP1 JUMP JUMPDEST SWAP3 DUP4 SWAP2 PUSH2 0x2407 JUMP JUMPDEST SWAP1 SWAP2 SWAP1 DUP3 SLOAD SWAP1 PUSH1 0x3 SHL SWAP2 DUP3 SHL SWAP2 PUSH1 0x0 NOT SWAP1 SHL NOT AND OR SWAP1 SSTORE JUMP JUMPDEST SSTORE CODESIZE DUP1 DUP1 PUSH2 0x2611 JUMP JUMPDEST POP POP PUSH1 0x0 SWAP1 JUMP JUMPDEST PUSH1 0x0 DUP2 DUP2 MSTORE PUSH32 0xAF993094C8EAA0ABDFFCC638BC8D87F9C9A50F945DB9B99AB0B6681EAB4F4F02 PUSH1 0x20 MSTORE PUSH1 0x40 SWAP1 KECCAK256 SLOAD DUP1 ISZERO PUSH2 0x269B JUMPI PUSH1 0x0 NOT SWAP2 DUP2 DUP4 ADD SWAP2 DUP1 DUP4 GT PUSH2 0x175E JUMPI PUSH1 0x0 DUP1 MLOAD PUSH1 0x20 PUSH2 0x2BD5 DUP4 CODECOPY DUP2 MLOAD SWAP2 MSTORE SLOAD SWAP4 DUP5 ADD SWAP4 DUP5 GT PUSH2 0x175E JUMPI DUP4 DUP4 PUSH1 0x0 SWAP6 PUSH2 0x264B SWAP6 SUB PUSH2 0x2748 JUMPI JUMPDEST POP POP POP PUSH2 0x2719 PUSH2 0x2553 JUMP JUMPDEST PUSH1 0x0 MSTORE PUSH32 0xAF993094C8EAA0ABDFFCC638BC8D87F9C9A50F945DB9B99AB0B6681EAB4F4F02 PUSH1 0x20 MSTORE PUSH1 0x40 PUSH1 0x0 KECCAK256 SWAP1 JUMP JUMPDEST PUSH2 0x2719 PUSH2 0x2679 SWAP2 PUSH2 0x275E PUSH2 0x2667 PUSH2 0x2766 SWAP6 PUSH2 0x2438 JUMP JUMPDEST SWAP3 DUP4 SWAP2 PUSH2 0x2438 JUMP JUMPDEST SSTORE CODESIZE DUP1 DUP1 PUSH2 0x270E JUMP JUMPDEST DUP1 PUSH1 0x0 MSTORE PUSH32 0xAF993094C8EAA0ABDFFCC638BC8D87F9C9A50F945DB9B99AB0B6681EAB4F4F07 DUP1 PUSH1 0x20 MSTORE PUSH1 0x40 PUSH1 0x0 KECCAK256 SLOAD ISZERO PUSH1 0x0 EQ PUSH2 0x269B JUMPI PUSH1 0x0 DUP1 MLOAD PUSH1 0x20 PUSH2 0x2C55 DUP4 CODECOPY DUP2 MLOAD SWAP2 MSTORE DUP1 SLOAD PUSH1 0x1 PUSH1 0x40 SHL DUP2 LT ISZERO PUSH2 0x7EB JUMPI PUSH1 0x1 DUP2 ADD DUP1 DUP4 SSTORE DUP2 LT ISZERO PUSH2 0x16A1 JUMPI DUP4 SWAP1 PUSH1 0x0 DUP1 MLOAD PUSH1 0x20 PUSH2 0x2BF5 DUP4 CODECOPY DUP2 MLOAD SWAP2 MSTORE ADD SSTORE SLOAD SWAP2 PUSH1 0x0 MSTORE PUSH1 0x20 MSTORE PUSH1 0x40 PUSH1 0x0 KECCAK256 SSTORE PUSH1 0x1 SWAP1 JUMP JUMPDEST DUP1 PUSH1 0x0 MSTORE PUSH32 0xAF993094C8EAA0ABDFFCC638BC8D87F9C9A50F945DB9B99AB0B6681EAB4F4F02 DUP1 PUSH1 0x20 MSTORE PUSH1 0x40 PUSH1 0x0 KECCAK256 SLOAD ISZERO PUSH1 0x0 EQ PUSH2 0x269B JUMPI PUSH1 0x0 DUP1 MLOAD PUSH1 0x20 PUSH2 0x2BD5 DUP4 CODECOPY DUP2 MLOAD SWAP2 MSTORE DUP1 SLOAD PUSH1 0x1 PUSH1 0x40 SHL DUP2 LT ISZERO PUSH2 0x7EB JUMPI PUSH1 0x1 DUP2 ADD DUP1 DUP4 SSTORE DUP2 LT ISZERO PUSH2 0x16A1 JUMPI DUP4 SWAP1 PUSH32 0x6D5632CD9A7B6DFEE21FDCF6C7874238D88C254239C9613977670FB28D0DF36B ADD SSTORE SLOAD SWAP2 PUSH1 0x0 MSTORE PUSH1 0x20 MSTORE PUSH1 0x40 PUSH1 0x0 KECCAK256 SSTORE PUSH1 0x1 SWAP1 JUMP JUMPDEST SWAP1 DUP2 EXTCODESIZE ISZERO PUSH2 0x2914 JUMPI PUSH1 0x0 DUP1 MLOAD PUSH1 0x20 PUSH2 0x2C15 DUP4 CODECOPY DUP2 MLOAD SWAP2 MSTORE DUP1 SLOAD PUSH1 0x1 PUSH1 0x1 PUSH1 0xA0 SHL SUB NOT AND PUSH1 0x1 PUSH1 0x1 PUSH1 0xA0 SHL SUB DUP5 AND SWAP1 DUP2 OR SWAP1 SWAP2 SSTORE PUSH32 0xBC7CD75A20EE27FD9ADEBAB32041F755214DBC6BFFA90CC0225B39DA2E5C2D3B PUSH1 0x0 DUP1 LOG2 DUP1 MLOAD ISZERO PUSH2 0x28F9 JUMPI PUSH2 0x1E70 SWAP2 PUSH2 0x2A08 JUMP JUMPDEST POP POP CALLVALUE PUSH2 0x2902 JUMPI JUMP JUMPDEST PUSH1 0x40 MLOAD PUSH4 0xB398979F PUSH1 0xE0 SHL DUP2 MSTORE PUSH1 0x4 SWAP1 REVERT JUMPDEST PUSH1 0x40 MLOAD PUSH4 0x4C9C8CE3 PUSH1 0xE0 SHL DUP2 MSTORE PUSH1 0x1 PUSH1 0x1 PUSH1 0xA0 SHL SUB DUP4 AND PUSH1 0x4 DUP3 ADD MSTORE PUSH1 0x24 SWAP1 REVERT JUMPDEST DUP2 MLOAD SWAP2 SWAP1 PUSH1 0x41 DUP4 SUB PUSH2 0x2966 JUMPI PUSH2 0x295F SWAP3 POP PUSH1 0x20 DUP3 ADD MLOAD SWAP1 PUSH1 0x60 PUSH1 0x40 DUP5 ADD MLOAD SWAP4 ADD MLOAD PUSH1 0x0 BYTE SWAP1 PUSH2 0x2A26 JUMP JUMPDEST SWAP2 SWAP3 SWAP1 SWAP2 SWAP1 JUMP JUMPDEST POP POP PUSH1 0x0 SWAP2 PUSH1 0x2 SWAP2 SWAP1 JUMP JUMPDEST PUSH1 0x4 GT ISZERO PUSH2 0x6FE JUMPI JUMP JUMPDEST PUSH2 0x2984 DUP2 PUSH2 0x2971 JUMP JUMPDEST DUP1 PUSH2 0x298D JUMPI POP POP JUMP JUMPDEST PUSH2 0x2996 DUP2 PUSH2 0x2971 JUMP JUMPDEST PUSH1 0x1 DUP2 SUB PUSH2 0x29B0 JUMPI PUSH1 0x40 MLOAD PUSH4 0xF645EEDF PUSH1 0xE0 SHL DUP2 MSTORE PUSH1 0x4 SWAP1 REVERT JUMPDEST PUSH2 0x29B9 DUP2 PUSH2 0x2971 JUMP JUMPDEST PUSH1 0x2 DUP2 SUB PUSH2 0x29DA JUMPI PUSH1 0x40 MLOAD PUSH4 0xFCE698F7 PUSH1 0xE0 SHL DUP2 MSTORE PUSH1 0x4 DUP2 ADD DUP4 SWAP1 MSTORE PUSH1 0x24 SWAP1 REVERT JUMPDEST DUP1 PUSH2 0x29E6 PUSH1 0x3 SWAP3 PUSH2 0x2971 JUMP JUMPDEST EQ PUSH2 0x29EE JUMPI POP JUMP JUMPDEST PUSH1 0x40 MLOAD PUSH4 0x35E2F383 PUSH1 0xE2 SHL DUP2 MSTORE PUSH1 0x4 DUP2 ADD SWAP2 SWAP1 SWAP2 MSTORE PUSH1 0x24 SWAP1 REVERT JUMPDEST PUSH1 0x0 DUP1 PUSH2 0x8C3 SWAP4 PUSH1 0x20 DUP2 MLOAD SWAP2 ADD DUP5 GAS DELEGATECALL PUSH2 0x2A20 PUSH2 0x1C04 JUMP JUMPDEST SWAP2 PUSH2 0x2B31 JUMP JUMPDEST SWAP2 SWAP1 PUSH32 0x7FFFFFFFFFFFFFFFFFFFFFFFFFFFFFFF5D576E7357A4501DDFE92F46681B20A0 DUP5 GT PUSH2 0x2A9E JUMPI SWAP3 PUSH1 0x20 SWAP3 SWAP2 PUSH1 0xFF PUSH1 0x80 SWAP6 PUSH1 0x40 MLOAD SWAP5 DUP6 MSTORE AND DUP5 DUP5 ADD MSTORE PUSH1 0x40 DUP4 ADD MSTORE PUSH1 0x60 DUP3 ADD MSTORE PUSH1 0x0 SWAP3 DUP4 SWAP2 DUP3 DUP1 MSTORE PUSH1 0x1 GAS STATICCALL ISZERO PUSH2 0xD68 JUMPI DUP1 MLOAD PUSH1 0x1 PUSH1 0x1 PUSH1 0xA0 SHL SUB DUP2 AND ISZERO PUSH2 0x2A95 JUMPI SWAP2 DUP2 SWAP1 JUMP JUMPDEST POP DUP1 SWAP2 PUSH1 0x1 SWAP2 SWAP1 JUMP JUMPDEST POP POP POP PUSH1 0x0 SWAP2 PUSH1 0x3 SWAP2 SWAP1 JUMP JUMPDEST SWAP1 DUP2 PUSH1 0x20 SWAP2 SUB SLT PUSH2 0x1DC JUMPI MLOAD PUSH2 0x8C3 DUP2 PUSH2 0x706 JUMP JUMPDEST PUSH1 0x0 DUP1 PUSH2 0x2AE8 SWAP3 PUSH1 0x1 DUP1 PUSH1 0xA0 SHL SUB AND SWAP4 PUSH1 0x20 DUP2 MLOAD SWAP2 ADD DUP3 DUP7 GAS CALL PUSH2 0x2AE1 PUSH2 0x1C04 JUMP JUMPDEST SWAP1 DUP4 PUSH2 0x2B31 JUMP JUMPDEST DUP1 MLOAD SWAP1 DUP2 ISZERO ISZERO SWAP2 DUP3 PUSH2 0x2B16 JUMPI JUMPDEST POP POP PUSH2 0x2AFE JUMPI POP JUMP JUMPDEST PUSH1 0x24 SWAP1 PUSH1 0x40 MLOAD SWAP1 PUSH4 0x5274AFE7 PUSH1 0xE0 SHL DUP3 MSTORE PUSH1 0x4 DUP3 ADD MSTORE REVERT JUMPDEST PUSH2 0x2B29 SWAP3 POP PUSH1 0x20 DUP1 SWAP2 DUP4 ADD ADD SWAP2 ADD PUSH2 0x2AAA JUMP JUMPDEST ISZERO CODESIZE DUP1 PUSH2 0x2AF5 JUMP JUMPDEST SWAP1 PUSH2 0x2B58 JUMPI POP DUP1 MLOAD ISZERO PUSH2 0x2B46 JUMPI DUP1 MLOAD SWAP1 PUSH1 0x20 ADD REVERT JUMPDEST PUSH1 0x40 MLOAD PUSH4 0xA12F521 PUSH1 0xE1 SHL DUP2 MSTORE PUSH1 0x4 SWAP1 REVERT JUMPDEST DUP2 MLOAD ISZERO DUP1 PUSH2 0x2B8B JUMPI JUMPDEST PUSH2 0x2B69 JUMPI POP SWAP1 JUMP JUMPDEST PUSH1 0x40 MLOAD PUSH4 0x9996B315 PUSH1 0xE0 SHL DUP2 MSTORE PUSH1 0x1 PUSH1 0x1 PUSH1 0xA0 SHL SUB SWAP1 SWAP2 AND PUSH1 0x4 DUP3 ADD MSTORE PUSH1 0x24 SWAP1 REVERT JUMPDEST POP DUP1 EXTCODESIZE ISZERO PUSH2 0x2B61 JUMP INVALID SWAP1 AND 0xD0 SWAP14 PUSH19 0xD40FDAE2FD8CEAC6B6234C7706214FD39C1CD1 0xE6 MULMOD LOG0 MSTORE DUP13 NOT SWAP4 STOP 0xAF SWAP10 ADDRESS SWAP5 0xC8 0xEA LOG0 0xAB 0xDF 0xFC 0xC6 CODESIZE 0xBC DUP14 DUP8 0xF9 0xC9 0xA5 0xF SWAP5 TSTORE 0xB9 0xB9 SWAP11 0xB0 0xB6 PUSH9 0x1EAB4F4F05AF993094 0xC8 0xEA LOG0 0xAB 0xDF 0xFC 0xC6 CODESIZE 0xBC DUP14 DUP8 0xF9 0xC9 0xA5 0xF SWAP5 TSTORE 0xB9 0xB9 SWAP11 0xB0 0xB6 PUSH9 0x1EAB4F4F01F7D7E697 CALLDATASIZE DIV SMOD 0xAF PUSH19 0xF21B9DD15AD33DCCEC16D662D65C043A3B77C0 0xC9 0xD1 0xB2 PUSH11 0x360894A13BA1A3210667C8 0x28 BLOBHASH 0x2D 0xB9 DUP14 0xCA RETURNDATACOPY KECCAK256 PUSH23 0xCC3735A920A3CA505D382BBCF0C57E16840DF040F15088 0xDC 0x2F DUP2 INVALID CODECOPY SHR CODECOPY 0x23 0xBE 0xC7 RETURNDATACOPY 0x23 0xA9 PUSH7 0x2EFC9C229C6A00 0xAF SWAP10 ADDRESS SWAP5 0xC8 0xEA LOG0 0xAB 0xDF 0xFC 0xC6 CODESIZE 0xBC DUP14 DUP8 0xF9 0xC9 0xA5 0xF SWAP5 TSTORE 0xB9 0xB9 SWAP11 0xB0 0xB6 PUSH9 0x1EAB4F4F06A2646970 PUSH7 0x73582212204C2B PUSH8 0x4C8474FF844D687F CREATE2 0x2E 0xEB 0x2C CHAINID 0x29 DUP5 DUP13 0x26 0xDB LT 0xB3 0xB8 PUSH15 0x39A97F75E5343264736F6C63430008 XOR STOP CALLER "},"methodIdentifiers":{"AVS_DIRECTORY()":"ad656c56","EIGEN_DELEGATION_MANAGER()":"f2251b0f","EIGEN_POD_MANAGER()":"0a732358","EIGEN_REWARDS_COORDINATOR()":"141fbdf2","UPGRADE_INTERFACE_VERSION()":"ad3cb1cc","calculateOperatorAVSRegistrationDigestHash(address,address,bytes32,uint256)":"a1060c88","ecdsa_check(bytes32,bytes)":"6d50275d","finishDeregisterOperator()":"e3672163","getDeregistrationDelay()":"8495feab","getOperator(address)":"5865c60c","getOperatorRestakedStrategies(address)":"33cfb7b7","getOperators()":"27a099d8","getRestakeableStrategies()":"e481af9d","initialize(address,address,address,address,uint64)":"00feb1d8","latestRewardedEra()":"1ed6e115","owner()":"8da5cb5b","proxiableUUID()":"52d1902d","registerOperator((bytes,bytes32,uint256),bytes32)":"ca1e1d67","renounceOwnership()":"715018a6","setAllowlistRestakingStrategy(address,bool)":"43adc491","setClaimerFor(address)":"a0169ddd","setDeregistrationDelay(uint64)":"84a3f19b","startDeregisterOperator()":"389517e4","submitOperatorRewards(uint256,((address,uint96)[],address,(address,uint256)[],uint32,uint32,string)[])":"9375e713","transferOwnership(address)":"f2fde38b","updateAVSMetadataURI(string)":"a98fb355","upgradeToAndCall(address,bytes)":"4f1ef286"}},"storageLayout":{"storage":[{"astId":3896,"contract":"contracts/VerisenseAVSManager.sol:VerisenseAVSManager","label":"EIGEN_POD_MANAGER","offset":0,"slot":"0","type":"t_contract(IEigenPodManager)6613"},{"astId":3899,"contract":"contracts/VerisenseAVSManager.sol:VerisenseAVSManager","label":"EIGEN_DELEGATION_MANAGER","offset":0,"slot":"1","type":"t_contract(IDelegationManager)6097"},{"astId":3902,"contract":"contracts/VerisenseAVSManager.sol:VerisenseAVSManager","label":"EIGEN_REWARDS_COORDINATOR","offset":0,"slot":"2","type":"t_contract(IRewardsCoordinator)7242"},{"astId":3905,"contract":"contracts/VerisenseAVSManager.sol:VerisenseAVSManager","label":"AVS_DIRECTORY","offset":0,"slot":"3","type":"t_contract(IAVSDirectory)5572"}],"types":{"t_contract(IAVSDirectory)5572":{"encoding":"inplace","label":"contract IAVSDirectory","numberOfBytes":"20"},"t_contract(IDelegationManager)6097":{"encoding":"inplace","label":"contract IDelegationManager","numberOfBytes":"20"},"t_contract(IEigenPodManager)6613":{"encoding":"inplace","label":"contract IEigenPodManager","numberOfBytes":"20"},"t_contract(IRewardsCoordinator)7242":{"encoding":"inplace","label":"contract IRewardsCoordinator","numberOfBytes":"20"}}}}}}