{"contracts/VerisenseAVSManager.sol":{"VerisenseAVSManager":{"abi":[{"inputs":[],"name":"AVSOperatorStatusCallFailed","type":"error"},{"inputs":[{"internalType":"address","name":"target","type":"address"}],"name":"AddressEmptyCode","type":"error"},{"inputs":[{"internalType":"address","name":"account","type":"address"}],"name":"AddressInsufficientBalance","type":"error"},{"inputs":[],"name":"CommitmentChangeNotReady","type":"error"},{"inputs":[],"name":"DelegateKeyNotSet","type":"error"},{"inputs":[],"name":"DeregistrationAlreadyStarted","type":"error"},{"inputs":[],"name":"DeregistrationDelayNotElapsed","type":"error"},{"inputs":[],"name":"DeregistrationNotStarted","type":"error"},{"inputs":[],"name":"ECDSAInvalidSignature","type":"error"},{"inputs":[{"internalType":"uint256","name":"length","type":"uint256"}],"name":"ECDSAInvalidSignatureLength","type":"error"},{"inputs":[{"internalType":"bytes32","name":"s","type":"bytes32"}],"name":"ECDSAInvalidSignatureS","type":"error"},{"inputs":[{"internalType":"address","name":"implementation","type":"address"}],"name":"ERC1967InvalidImplementation","type":"error"},{"inputs":[],"name":"ERC1967NonPayable","type":"error"},{"inputs":[],"name":"FailedInnerCall","type":"error"},{"inputs":[],"name":"InvalidAVSDirectoryAddress","type":"error"},{"inputs":[],"name":"InvalidEigenDelegationManagerAddress","type":"error"},{"inputs":[],"name":"InvalidEigenPodManagerAddress","type":"error"},{"inputs":[],"name":"InvalidInitialization","type":"error"},{"inputs":[],"name":"InvalidRewardsCoordinatorAddress","type":"error"},{"inputs":[],"name":"NoEigenPod","type":"error"},{"inputs":[],"name":"NotDelegatedToOperator","type":"error"},{"inputs":[],"name":"NotInitializing","type":"error"},{"inputs":[],"name":"NotOperator","type":"error"},{"inputs":[],"name":"NotValidatorOperator","type":"error"},{"inputs":[],"name":"OperatorHasValidators","type":"error"},{"inputs":[],"name":"OperatorNotRegistered","type":"error"},{"inputs":[{"internalType":"address","name":"owner","type":"address"}],"name":"OwnableInvalidOwner","type":"error"},{"inputs":[{"internalType":"address","name":"account","type":"address"}],"name":"OwnableUnauthorizedAccount","type":"error"},{"inputs":[],"name":"RestakingStrategyAllowlistUpdateFailed","type":"error"},{"inputs":[{"internalType":"address","name":"token","type":"address"}],"name":"SafeERC20FailedOperation","type":"error"},{"inputs":[],"name":"UUPSUnauthorizedCallContext","type":"error"},{"inputs":[{"internalType":"bytes32","name":"slot","type":"bytes32"}],"name":"UUPSUnsupportedProxiableUUID","type":"error"},{"inputs":[],"name":"ValidatorAlreadyDeregistered","type":"error"},{"inputs":[],"name":"ValidatorAlreadyRegistered","type":"error"},{"inputs":[],"name":"ValidatorNotActive","type":"error"},{"anonymous":false,"inputs":[{"indexed":false,"internalType":"uint64","name":"oldDelay","type":"uint64"},{"indexed":false,"internalType":"uint64","name":"newDelay","type":"uint64"}],"name":"DeregistrationDelaySet","type":"event"},{"anonymous":false,"inputs":[{"indexed":false,"internalType":"uint64","name":"version","type":"uint64"}],"name":"Initialized","type":"event"},{"anonymous":false,"inputs":[{"indexed":true,"internalType":"address","name":"operator","type":"address"}],"name":"OperatorDeregisterStarted","type":"event"},{"anonymous":false,"inputs":[{"indexed":true,"internalType":"address","name":"operator","type":"address"}],"name":"OperatorDeregistered","type":"event"},{"anonymous":false,"inputs":[{"indexed":true,"internalType":"address","name":"operator","type":"address"}],"name":"OperatorRegistered","type":"event"},{"anonymous":false,"inputs":[],"name":"OperatorRewardsSubmitted","type":"event"},{"anonymous":false,"inputs":[{"indexed":true,"internalType":"address","name":"previousOwner","type":"address"},{"indexed":true,"internalType":"address","name":"newOwner","type":"address"}],"name":"OwnershipTransferred","type":"event"},{"anonymous":false,"inputs":[{"indexed":true,"internalType":"address","name":"strategy","type":"address"},{"indexed":false,"internalType":"bool","name":"allowed","type":"bool"}],"name":"RestakingStrategyAllowlistUpdated","type":"event"},{"anonymous":false,"inputs":[{"indexed":true,"internalType":"address","name":"implementation","type":"address"}],"name":"Upgraded","type":"event"},{"anonymous":false,"inputs":[{"indexed":true,"internalType":"address","name":"operator","type":"address"},{"indexed":false,"internalType":"bytes32","name":"blsPubKeyHash","type":"bytes32"}],"name":"ValidatorDeregistered","type":"event"},{"anonymous":false,"inputs":[{"indexed":true,"internalType":"address","name":"podOwner","type":"address"},{"indexed":true,"internalType":"address","name":"operator","type":"address"},{"indexed":false,"internalType":"bytes","name":"delegateKey","type":"bytes"},{"indexed":false,"internalType":"bytes32","name":"blsPubKeyHash","type":"bytes32"},{"indexed":false,"internalType":"uint256","name":"validatorIndex","type":"uint256"}],"name":"ValidatorRegistered","type":"event"},{"inputs":[],"name":"AVS_DIRECTORY","outputs":[{"internalType":"contract IAVSDirectory","name":"","type":"address"}],"stateMutability":"view","type":"function"},{"inputs":[],"name":"EIGEN_DELEGATION_MANAGER","outputs":[{"internalType":"contract IDelegationManager","name":"","type":"address"}],"stateMutability":"view","type":"function"},{"inputs":[],"name":"EIGEN_POD_MANAGER","outputs":[{"internalType":"contract IEigenPodManager","name":"","type":"address"}],"stateMutability":"view","type":"function"},{"inputs":[],"name":"EIGEN_REWARDS_COORDINATOR","outputs":[{"internalType":"contract IRewardsCoordinator","name":"","type":"address"}],"stateMutability":"view","type":"function"},{"inputs":[],"name":"UPGRADE_INTERFACE_VERSION","outputs":[{"internalType":"string","name":"","type":"string"}],"stateMutability":"view","type":"function"},{"inputs":[{"internalType":"address","name":"operator","type":"address"},{"internalType":"address","name":"avs","type":"address"},{"internalType":"bytes32","name":"salt","type":"bytes32"},{"internalType":"uint256","name":"expiry","type":"uint256"}],"name":"calculateOperatorAVSRegistrationDigestHash","outputs":[{"internalType":"bytes32","name":"","type":"bytes32"}],"stateMutability":"view","type":"function"},{"inputs":[{"internalType":"bytes32","name":"message_hash","type":"bytes32"},{"internalType":"bytes","name":"signature","type":"bytes"}],"name":"ecdsa_check","outputs":[{"internalType":"address","name":"","type":"address"}],"stateMutability":"pure","type":"function"},{"inputs":[],"name":"finishDeregisterOperator","outputs":[],"stateMutability":"nonpayable","type":"function"},{"inputs":[],"name":"getDeregistrationDelay","outputs":[{"internalType":"uint64","name":"","type":"uint64"}],"stateMutability":"view","type":"function"},{"inputs":[{"internalType":"address","name":"operator","type":"address"}],"name":"getOperator","outputs":[{"components":[{"internalType":"uint128","name":"startDeregisterOperatorBlock","type":"uint128"},{"internalType":"bool","name":"isRegistered","type":"bool"}],"internalType":"struct IVerisenseAVSManager.OperatorDataExtended","name":"","type":"tuple"}],"stateMutability":"view","type":"function"},{"inputs":[{"internalType":"address","name":"operator","type":"address"}],"name":"getOperatorRestakedStrategies","outputs":[{"internalType":"address[]","name":"restakedStrategies","type":"address[]"}],"stateMutability":"view","type":"function"},{"inputs":[],"name":"getOperators","outputs":[{"components":[{"internalType":"address","name":"operator","type":"address"},{"internalType":"uint256","name":"stake","type":"uint256"},{"internalType":"bytes32","name":"substratePubkey","type":"bytes32"},{"internalType":"address[]","name":"restakedStrategies","type":"address[]"}],"internalType":"struct IVerisenseAVSManager.OperatorValidData[]","name":"operatorList","type":"tuple[]"}],"stateMutability":"view","type":"function"},{"inputs":[],"name":"getRestakeableStrategies","outputs":[{"internalType":"address[]","name":"","type":"address[]"}],"stateMutability":"view","type":"function"},{"inputs":[{"internalType":"address","name":"eigenPodManagerAddress","type":"address"},{"internalType":"address","name":"eigenDelegationManagerAddress","type":"address"},{"internalType":"address","name":"avsDirectoryAddress","type":"address"},{"internalType":"address","name":"rewardsCoordinatorAddress","type":"address"},{"internalType":"uint64","name":"initialDeregistrationDelay","type":"uint64"}],"name":"initialize","outputs":[],"stateMutability":"nonpayable","type":"function"},{"inputs":[],"name":"latestRewardedEra","outputs":[{"internalType":"uint256","name":"","type":"uint256"}],"stateMutability":"view","type":"function"},{"inputs":[],"name":"owner","outputs":[{"internalType":"address","name":"","type":"address"}],"stateMutability":"view","type":"function"},{"inputs":[],"name":"proxiableUUID","outputs":[{"internalType":"bytes32","name":"","type":"bytes32"}],"stateMutability":"view","type":"function"},{"inputs":[{"components":[{"internalType":"bytes","name":"signature","type":"bytes"},{"internalType":"bytes32","name":"salt","type":"bytes32"},{"internalType":"uint256","name":"expiry","type":"uint256"}],"internalType":"struct ISignatureUtils.SignatureWithSaltAndExpiry","name":"operatorSignature","type":"tuple"},{"internalType":"bytes32","name":"substrate_pubkey","type":"bytes32"}],"name":"registerOperator","outputs":[],"stateMutability":"nonpayable","type":"function"},{"inputs":[],"name":"renounceOwnership","outputs":[],"stateMutability":"nonpayable","type":"function"},{"inputs":[{"internalType":"address","name":"strategy","type":"address"},{"internalType":"bool","name":"allowed","type":"bool"}],"name":"setAllowlistRestakingStrategy","outputs":[],"stateMutability":"nonpayable","type":"function"},{"inputs":[{"internalType":"address","name":"claimer","type":"address"}],"name":"setClaimerFor","outputs":[],"stateMutability":"nonpayable","type":"function"},{"inputs":[{"internalType":"uint64","name":"newDelay","type":"uint64"}],"name":"setDeregistrationDelay","outputs":[],"stateMutability":"nonpayable","type":"function"},{"inputs":[],"name":"startDeregisterOperator","outputs":[],"stateMutability":"nonpayable","type":"function"},{"inputs":[{"internalType":"uint256","name":"eraIndex","type":"uint256"},{"components":[{"components":[{"internalType":"contract IStrategy","name":"strategy","type":"address"},{"internalType":"uint96","name":"multiplier","type":"uint96"}],"internalType":"struct IRewardsCoordinator.StrategyAndMultiplier[]","name":"strategiesAndMultipliers","type":"tuple[]"},{"internalType":"contract IERC20","name":"token","type":"address"},{"components":[{"internalType":"address","name":"operator","type":"address"},{"internalType":"uint256","name":"amount","type":"uint256"}],"internalType":"struct IRewardsCoordinator.OperatorReward[]","name":"operatorRewards","type":"tuple[]"},{"internalType":"uint32","name":"startTimestamp","type":"uint32"},{"internalType":"uint32","name":"duration","type":"uint32"},{"internalType":"string","name":"description","type":"string"}],"internalType":"struct IRewardsCoordinator.OperatorDirectedRewardsSubmission[]","name":"submissions","type":"tuple[]"}],"name":"submitOperatorRewards","outputs":[],"stateMutability":"nonpayable","type":"function"},{"inputs":[{"internalType":"address","name":"newOwner","type":"address"}],"name":"transferOwnership","outputs":[],"stateMutability":"nonpayable","type":"function"},{"inputs":[{"internalType":"address","name":"allocation_addr","type":"address"},{"internalType":"string","name":"uri","type":"string"}],"name":"updateAVSMetadata","outputs":[],"stateMutability":"nonpayable","type":"function"},{"inputs":[{"internalType":"string","name":"_metadataURI","type":"string"}],"name":"updateAVSMetadataURI","outputs":[],"stateMutability":"nonpayable","type":"function"},{"inputs":[{"internalType":"address","name":"newImplementation","type":"address"},{"internalType":"bytes","name":"data","type":"bytes"}],"name":"upgradeToAndCall","outputs":[],"stateMutability":"payable","type":"function"}],"evm":{"bytecode":{"linkReferences":{},"object":"60a0806040523461002a5730608052612d7d9081610030823960805181818161092d0152610a680152f35b600080fdfe6080604052600436101561001257600080fd5b60003560e01c8062feb1d8146101d65780630a732358146101d1578063141fbdf2146101cc5780631ed6e115146101c757806327a099d8146101c257806333cfb7b7146101bd578063389517e4146101b857806343adc491146101b35780634f1ef286146101ae57806352d1902d146101a95780635865c60c146101a45780636d50275d1461019f578063715018a61461019a5780638495feab1461019557806384a3f19b146101905780638da5cb5b1461018b5780639375e71314610186578063a0169ddd14610181578063a1060c881461017c578063a98fb35514610177578063ad3cb1cc14610172578063ad656c561461016d578063ca1e1d6714610168578063d32f562b14610163578063e36721631461015e578063e481af9d14610159578063f2251b0f146101545763f2fde38b1461014f57600080fd5b6114f2565b6114c9565b611454565b6112df565b611224565b611149565b611120565b6110e2565b610ffe565b610ea2565b610e26565b610c8d565b610c57565b610c22565b610bdc565b610b71565b610b16565b610ac0565b610a55565b6108eb565b610735565b610652565b61061e565b6104b4565b6103c2565b610399565b610370565b610207565b6001600160a01b038116036101ec57565b600080fd5b608435906001600160401b03821682036101ec57565b346101ec5760a03660031901126101ec57600435610224816101db565b60243590610231826101db565b60443561023d816101db565b606435610249816101db565b6102516101f1565b91600080516020612d0883398151915254946001600160401b0360ff8760401c161596168015908161035d575b6001149081610353575b15908161034a575b5061033857600080516020612d08833981519152805467ffffffffffffffff191660011790556102c494866103135761151f565b6102ca57005b600080516020612d08833981519152805460ff60401b19169055604051600181527fc7f505b2f371ae2175ee4913f4499e1f2633a7b5936321eed1cdaeb6115181d290602090a1005b600080516020612d08833981519152805460ff60401b1916600160401b17905561151f565b60405163f92ee8a960e01b8152600490fd5b90501538610290565b303b159150610288565b87915061027e565b60009103126101ec57565b346101ec5760003660031901126101ec576000546040516001600160a01b039091168152602090f35b346101ec5760003660031901126101ec576002546040516001600160a01b039091168152602090f35b346101ec5760003660031901126101ec576020600080516020612c8883398151915254604051908152f35b6020808201908083528351809252604092604081018260408560051b840101960194600080935b86851061042657505050505050505090565b9091929394959697603f198282030185528689519160808260a082840193600180831b039384885116825283880151848301528a8801518b8301526060809801519782015286518095520194019186915b8183106104985750505050806001929a019501950193969594929190610414565b835181168652948401948b949390930192600190920191610477565b346101ec5760003660031901126101ec57600080516020612ca8833981519152546104de81611645565b6104e6611c86565b600090815b84811061051857505061050c928110610510575b50604051918291826103ed565b0390f35b8152386104ff565b6105336105276105278361254e565b6001600160a01b031690565b600161053e82611d16565b610547816116da565b14610556575b506001016104eb565b92906105d260019260208061057261056d896116e4565b61171d565b015161057e8789611e70565b61058f61058a8a611f25565b6120a6565b926105aa61059b61086c565b6001600160a01b03909b168b52565b890152604088015260608701526105c081611774565b956105cb828961179e565b528661179e565b509061054d565b602090602060408183019282815285518094520193019160005b828110610601575050505090565b83516001600160a01b0316855293810193928101926001016105f3565b346101ec5760203660031901126101ec5761050c610646600435610641816101db565b611f25565b604051918291826105d9565b346101ec576000806003193601126107285761066d33611d16565b60028110156107235715610711573381527faf993094c8eaa0abdffcc638bc8d87f9c9a50f945db9b99ab0b6681eab4f4f00602052604081206001600160401b0390818154166106ff576106d79143166001600160401b03166001600160401b0319825416179055565b337f34e20e11f51d19d6e90f5aaea605cb369f34ad23805c51d2e77d05c8208c85858280a280f35b604051630ebf7f5960e31b8152600490fd5b6040516325ec6c1f60e01b8152600490fd5b6116c4565b80fd5b801515036101ec57565b346101ec5760403660031901126101ec57600435610752816101db565b6024359061075f8261072b565b6107676121b4565b81156107d05761077f6001600160a01b038216612842565b156107be5760405191151582526001600160a01b0316907f74d2e573146a4c9fbfd23124ce9007a97aebeb715219b83507ec3a05209486bd90602090a2005b6040516379fdfc7d60e01b8152600490fd5b6107e26001600160a01b038216612678565b61077f565b634e487b7160e01b600052604160045260246000fd5b6001600160401b03811161081057604052565b6107e7565b604081019081106001600160401b0382111761081057604052565b608081019081106001600160401b0382111761081057604052565b90601f801991011681019081106001600160401b0382111761081057604052565b6040519061087982610830565b565b6001600160401b03811161081057601f01601f191660200190565b9291926108a28261087b565b916108b0604051938461084b565b8294818452818301116101ec578281602093846000960137010152565b9080601f830112156101ec578160206108e893359101610896565b90565b60403660031901126101ec576004803590610905826101db565b6024356001600160401b0381116101ec5761092390369083016108cd565b6001600160a01b037f00000000000000000000000000000000000000000000000000000000000000008116308114908115610a39575b50610a2857906020839261096b6121b4565b6040516352d1902d60e01b8152938491829088165afa600092816109f7575b506109b8575050604051634c9c8ce360e01b81526001600160a01b0390921690820190815281906020010390fd5b8383600080516020612ce883398151915284036109db576109d98383612964565b005b604051632a87526960e21b815290810184815281906020010390fd5b610a1a91935060203d602011610a21575b610a12818361084b565b810190611ae8565b913861098a565b503d610a08565b60405163703e46dd60e11b81528390fd5b905081600080516020612ce88339815191525416141538610959565b346101ec5760003660031901126101ec577f00000000000000000000000000000000000000000000000000000000000000006001600160a01b03163003610aae576020604051600080516020612ce88339815191528152f35b60405163703e46dd60e11b8152600490fd5b346101ec5760203660031901126101ec576040610af0600435610ae2816101db565b610aea6117b7565b506121ed565b60208251916fffffffffffffffffffffffffffffffff8151168352015115156020820152f35b346101ec5760403660031901126101ec576024356001600160401b0381116101ec57610b5f610b56610b4e60209336906004016108cd565b600435612a08565b90929192612a4e565b6040516001600160a01b039091168152f35b346101ec5760008060031936011261072857610b8b6121b4565b600080516020612c6883398151915280546001600160a01b0319811690915581906001600160a01b03167f8be0079c531659141344cd1fd0a4f28419497f9722a3daafe3b4186f6b6457e08280a380f35b346101ec5760003660031901126101ec5760206001600160401b037faf993094c8eaa0abdffcc638bc8d87f9c9a50f945db9b99ab0b6681eab4f4f035416604051908152f35b346101ec5760203660031901126101ec576004356001600160401b03811681036101ec576109d990610c526121b4565b611bcf565b346101ec5760003660031901126101ec57600080516020612c68833981519152546040516001600160a01b039091168152602090f35b346101ec576040806003193601126101ec576024356001600160401b03918282116101ec57366023830112156101ec5781600401359283116101ec576024820191602436918560051b0101116101ec57610ce56121b4565b610cf0600435612265565b60005b838110610d92575050600254610d11906001600160a01b0316610527565b91823b156101ec57610d3e9260009283604051809681958294634e5cd2fd60e11b84523060048501611951565b03925af18015610d8d57610d74575b7f410f403ed28055ee05512c23d09c2b582fa6d23119e026c0cfc4aa615cab07bb600080a1005b80610d81610d87926107fd565b80610365565b38610d4d565b611adc565b610d9d8185856117d0565b600090838101610dad81836117f2565b849291505b808310610df65750505060019291610dd56105276105276020610df09501611852565b600254610dea906001600160a01b0316610527565b9061234c565b01610cf3565b909193610e1d6001916020610e1588610e0f888a6117f2565b90611827565b013590611845565b94019190610db2565b346101ec576000602036600319011261072857600435610e45816101db565b610e4d6121b4565b6002546001600160a01b0390811691839190833b15610e9e5760249083604051958694859363a0169ddd60e01b85521660048401525af18015610d8d57610e92575080f35b610e9b906107fd565b80f35b8280fd5b346101ec5760803660031901126101ec5760048035610ec0816101db565b60243590610ecd826101db565b600354602090610ee5906001600160a01b0316610527565b60405163f698da2560e01b815294859182905afa918215610d8d5761050c93600093610fcf575b50604080517fda2c89bafdd34776a2b8bb9c83c82f419e20cc8c67207f70edd58249b92661bd602082019081526001600160a01b0394851692820192909252929091166060830152604435608083015260643560a0830152610fb091610fbc918160c081015b0391610f86601f199384810183528261084b565b519020604051938491602083019687909160429261190160f01b8352600283015260228201520190565b0390810183528261084b565b5190206040519081529081906020820190565b610fbc919350610fb092610ff4610f729260203d602011610a2157610a12818361084b565b9492509250610f0c565b346101ec576000602036600319011261072857806004356001600160401b038111611096573660238201121561109657611042903690602481600401359101610896565b61104a6121b4565b6003546001600160a01b031690813b156110925782916110809160405194858094819363a98fb35560e01b835260048301611099565b03925af18015610d8d57610e92575080f35b5050fd5b50fd5b6020808252825181830181905290939260005b8281106110ce57505060409293506000838284010152601f8019910116010190565b8181018601518482016040015285016110ac565b346101ec5760003660031901126101ec5761050c60405161110281610815565b60058152640352e302e360dc1b602082015260405191829182611099565b346101ec5760003660031901126101ec576003546040516001600160a01b039091168152602090f35b346101ec576003196040368201126101ec57600435906001600160401b0382116101ec5760609082360301126101ec5760035461118e906001600160a01b0316610527565b90813b156101ec576111bf6040518093818094639926ee7d60e01b8252600096879586926004013360048401611af7565b03925af18015610d8d57611211575b5060243560016111dd336116e4565b01556111e8336128ca565b50337f4d0eb1f4bac8744fd2be119845e23b3befc88094b42bcda1204c65694a00f9e58280a280f35b80610d8161121e926107fd565b386111ce565b346101ec5760403660031901126101ec57600435611241816101db565b602435906001600160401b03908183116101ec57366023840112156101ec5782600401359182116101ec5736602483850101116101ec576112806121b4565b6001600160a01b031691823b156101ec576112c6926000928360405180968195829463a982182160e01b8452306004850152604060248501526024604485019201611930565b03925af18015610d8d576112d657005b6109d9906107fd565b346101ec57600080600319360112610728576112fa33611d16565b6002811015610723571561071157611321611314336116e4565b546001600160401b031690565b6001600160401b038116156114425761136e61137a916113687faf993094c8eaa0abdffcc638bc8d87f9c9a50f945db9b99ab0b6681eab4f4f03546001600160401b031690565b90611b40565b6001600160401b031690565b431061143057600354611395906001600160a01b0316610527565b803b1561142c576040516351b27a6d60e11b81523360048201529082908290602490829084905af18015610d8d57611419575b506113e76113d5336116e4565b60026000918281558260018201550155565b6113f033612775565b50337f6dd4ca66565fb3dee8076c654634c6c4ad949022d809d0394308617d6791218d8280a280f35b80610d81611426926107fd565b386113c8565b5080fd5b60405163207c116160e01b8152600490fd5b60405163a9e6e7eb60e01b8152600490fd5b346101ec5760003660031901126101ec5760405180600080516020612d28833981519152918254808252602080920193600052600080516020612cc8833981519152916000905b8282106114b25761050c856106468189038261084b565b83548652948501946001938401939091019061149b565b346101ec5760003660031901126101ec576001546040516001600160a01b039091168152602090f35b346101ec5760203660031901126101ec576109d9600435611512816101db565b61151a6121b4565b611b5b565b9293926001600160a01b039081169291831561161c57811691821561160a5781169485156115f857169081156115e6576115d59461159b6115b89261157e610c529660018060a01b03166001600160601b0360a01b6000541617600055565b60018060a01b03166001600160601b0360a01b6001541617600155565b60018060a01b03166001600160601b0360a01b6003541617600355565b60018060a01b03166001600160601b0360a01b6002541617600255565b6115de33611c40565b6108796124ab565b604051637d2b055f60e11b8152600490fd5b604051632225cdcf60e11b8152600490fd5b604051632023de5360e11b8152600490fd5b604051635b9d55c760e11b8152600490fd5b6001600160401b0381116108105760051b60200190565b9061164f8261162e565b60409061165f604051918261084b565b8381528093611670601f199161162e565b019060009260005b838110611686575050505050565b81519060808201918083106001600160401b038411176108105760209284528681528287818301528785830152606080830152828601015201611678565b634e487b7160e01b600052602160045260246000fd5b6002111561072357565b6001600160a01b031660009081527faf993094c8eaa0abdffcc638bc8d87f9c9a50f945db9b99ab0b6681eab4f4f006020526040902090565b90604051606081016001600160401b03938282108583111761081057600260ff91604093845284968154168552600181015460208601520154161515910152565b634e487b7160e01b600052601160045260246000fd5b60001981146117835760010190565b61175e565b634e487b7160e01b600052603260045260246000fd5b80518210156117b25760209160051b010190565b611788565b604051906117c482610815565b60006020838281520152565b91908110156117b25760051b8101359060be19813603018212156101ec570190565b903590601e19813603018212156101ec57018035906001600160401b0382116101ec57602001918160061b360383136101ec57565b91908110156117b25760061b0190565b906001820180921161178357565b9190820180921161178357565b356108e8816101db565b9035601e19823603018112156101ec5701602081359101916001600160401b0382116101ec578160061b360383136101ec57565b3590610879826101db565b9190808252602080920192916000905b8282106118b9575050505090565b9091929360019085356118cb816101db565b828060a01b031681528286013583820152604080910195019201909291926118ab565b359063ffffffff821682036101ec57565b9035601e19823603018112156101ec5701602081359101916001600160401b0382116101ec5781360383136101ec57565b908060209392818452848401376000828201840152601f01601f1916010190565b926040938481019060018060a01b0380941681528260209287848401525260608082019060608560051b84010197876000945b878610611998575050505050505050505090565b90919293949596979899605f198282030186528a3560be19843603018112156101ec57838991019160c08082016119cf858061185c565b9284529082905260e08301916000908f5b818310611a955750505050838392611a2d611a8193611a14611a058760019a01611890565b6001600160a01b031684880152565b611a208b85018561185c565b908483038d86015261189b565b91611a48611a3c8c83016118ee565b63ffffffff16838d0152565b611a646080611a588184016118ee565b63ffffffff1690840152565b611a7360a091828101906118ff565b929091818503910152611930565b9c0196019601949897969593929190611984565b90928095965093919335611aa8816101db565b1681528c840135906001600160601b0382168092036101ec5789818f936001948394015201940192018c949392918f6119e0565b6040513d6000823e3d90fd5b908160209103126101ec575190565b6001600160a01b039091168152604060208201819052608090611b2d611b1d85806118ff565b60608487015260a0860191611930565b9360208101356060850152013591015290565b9190916001600160401b038080941691160191821161178357565b6001600160a01b03908116908115611bb657600080516020612c6883398151915280546001600160a01b031981168417909155167f8be0079c531659141344cd1fd0a4f28419497f9722a3daafe3b4186f6b6457e0600080a3565b604051631e4fbdf760e01b815260006004820152602490fd5b60407f7d9c9ce14fd1f11f09bf0faca4d408d3bb5815ceb44368d65b408ebc4401165c917faf993094c8eaa0abdffcc638bc8d87f9c9a50f945db9b99ab0b6681eab4f4f038054916001600160401b0380911691826001600160401b031985161790558351921682526020820152a1565b61087990611c4c6124ab565b61151a6124ab565b90611c5e8261162e565b611c6b604051918261084b565b8281528092611c7c601f199161162e565b0190602036910137565b600080516020612d288339815191528054611ca081611c54565b916000805b838110611cb3575050505090565b828252600080516020612cc8833981519152810154600191906001600160a01b0316611cdf828861179e565b5201611ca5565b3d15611d11573d90611cf78261087b565b91611d05604051938461084b565b82523d6000602084013e565b606090565b6003546040516349075da360e01b602082019081523060248301526001600160a01b0393841660448301529190921691611d5d81606481015b03601f19810183528261084b565b6000928392839251915afa611d70611ce6565b9015611d955760208180518101031261142c5760200151906002821015610728575090565b604051633d635fe960e11b8152600490fd5b60209081818403126101ec578051906001600160401b0382116101ec57019180601f840112156101ec578251611ddc8161162e565b93611dea604051958661084b565b818552838086019260051b8201019283116101ec578301905b828210611e11575050505090565b81518152908301908301611e03565b6001600160a01b03918216815260406020808301829052845191830182905260609092019382019160005b828110611e5a57505050505090565b8351851686529481019492810192600101611e4b565b60018054604051639004134760e01b815293919260009285926001600160a01b03169183918291611ea5919060048401611e20565b03915afa918215610d8d57600092611f00575b50806000926000925b611ecc575b50505090565b809391929351841015611ef857611ee3848261179e565b51820180921161178357828092940192611ec1565b819350611ec6565b611f1e9192503d806000833e611f16818361084b565b810190611da7565b9038611eb8565b90606091611f3e6020611f37836121ed565b0151151590565b611f46575b50565b9150600080516020612d2883398151915254611f6181611c54565b9260005b828110612062575060018054611fab9392600091879190611f8e906001600160a01b0316610527565b90604051809781948293639004134760e01b845260048401611e20565b03915afa928315610d8d57600093612045575b50600092611fcb83611c54565b95845b848110611fe657505050508110611fe25750565b8252565b80611ff285928561179e565b51611ffe575b01611fce565b61204061201e610527612011848761179e565b516001600160a01b031690565b61203161202a8a611774565b998c61179e565b6001600160a01b039091169052565b611ff8565b61205b9193503d806000833e611f16818361084b565b9138611fbe565b8061208461207a61052761052761052760019661258f565b612031838961179e565b01611f65565b60001981019190821161178357565b9190820391821161178357565b805180156121b0576120b790611c54565b9060005b81518110156120e757806120e16120d76120116001948661179e565b612031838761179e565b016120bb565b50506000905b6120f7815161208a565b8210156121ab5760005b61211461210f848451612099565b61208a565b8110156121a0578061212e6105276120116001948661179e565b61214961052761052761201161214386611837565b8861179e565b90838060a01b03161161215d575b01612101565b61219b61217561201161216f84611837565b8661179e565b612191612185612011858861179e565b61203161214386611837565b612031838661179e565b612157565b5090600101906120ed565b905090565b5090565b600080516020612c68833981519152546001600160a01b031633036121d557565b60405163118cdaa760e01b8152336004820152602490fd5b6121f56117b7565b506001600160a01b03811660009081527faf993094c8eaa0abdffcc638bc8d87f9c9a50f945db9b99ab0b6681eab4f4f0060205260409020546001600160401b03169061224190611d16565b6002811015610723576001906040519261225a84610815565b835214602082015290565b801561230757600080516020612c8883398151915254806122935750600080516020612c8883398151915255565b600181018091116117835781036122b657600080516020612c8883398151915255565b60405162461bcd60e51b8152602060048201526024808201527f6c617465737420726577617264656420657261206d75737420626520696e206160448201526320726f7760e01b6064820152608490fd5b60405162461bcd60e51b815260206004820152601b60248201527f72657761726420657261206d757374206d6f7265207468616e203000000000006044820152606490fd5b604051636eb1769f60e11b81523060048201526001600160a01b03838116602483015292939092602091838216908386604481855afa958615610d8d5760009661247c575b50850180951161178357600080604051968588019063095ea7b360e01b958683528a1660248a01526044890152604488526123cb88610830565b87519082855af1906123db611ce6565b82612449575b508161243e575b50156123f6575b5050505050565b604051918201526001600160a01b039093166024840152600060448401526124349261242f906124298160648101611d4f565b82612b92565b612b92565b38808080806123ef565b90503b1515386123e8565b809192505190848215928315612464575b50505090386123e1565b6124749350820181019101612b7d565b38848161245a565b9095508381813d83116124a4575b612494818361084b565b810103126101ec57519438612391565b503d61248a565b60ff600080516020612d088339815191525460401c16156124c857565b604051631afcd79f60e31b8152600490fd5b600080516020612d2883398151915280548210156117b257600052600080516020612cc88339815191520190600090565b600080516020612ca883398151915280548210156117b2576000527f6d5632cd9a7b6dfee21fdcf6c7874238d88c254239c9613977670fb28d0df36b0190600090565b600080516020612ca883398151915280548210156117b2576000527f6d5632cd9a7b6dfee21fdcf6c7874238d88c254239c9613977670fb28d0df36b015490565b600080516020612d2883398151915280548210156117b257600052600080516020612cc8833981519152015490565b600080516020612d28833981519152805490811561261057600019820191808310156117b2577ff7d7e697360407af72f21b9dd15ad33dccec16d662d65c043a3b77c0c9d1b269600091838352015555565b634e487b7160e01b600052603160045260246000fd5b600080516020612ca8833981519152805490811561261057600019820191808310156117b2577f6d5632cd9a7b6dfee21fdcf6c7874238d88c254239c9613977670fb28d0df36a600091838352015555565b60008181527faf993094c8eaa0abdffcc638bc8d87f9c9a50f945db9b99ab0b6681eab4f4f076020526040902054801561276e57600019918183019180831161178357600080516020612d288339815191525493840193841161178357838360009561271e9503612724575b5050506126ef6125be565b6000527faf993094c8eaa0abdffcc638bc8d87f9c9a50f945db9b99ab0b6681eab4f4f07602052604060002090565b55600190565b6126ef61274c9161274461273a612765956124da565b90549060031b1c90565b9283916124da565b90919082549060031b91821b91600019901b1916179055565b553880806126e4565b5050600090565b60008181527faf993094c8eaa0abdffcc638bc8d87f9c9a50f945db9b99ab0b6681eab4f4f026020526040902054801561276e57600019918183019180831161178357600080516020612ca88339815191525493840193841161178357838360009561271e950361281b575b5050506127ec612626565b6000527faf993094c8eaa0abdffcc638bc8d87f9c9a50f945db9b99ab0b6681eab4f4f02602052604060002090565b6127ec61274c9161283161273a6128399561250b565b92839161250b565b553880806127e1565b806000527faf993094c8eaa0abdffcc638bc8d87f9c9a50f945db9b99ab0b6681eab4f4f07806020526040600020541560001461276e57600080516020612d288339815191528054600160401b81101561081057600181018083558110156117b2578390600080516020612cc883398151915201555491600052602052604060002055600190565b806000527faf993094c8eaa0abdffcc638bc8d87f9c9a50f945db9b99ab0b6681eab4f4f02806020526040600020541560001461276e57600080516020612ca88339815191528054600160401b81101561081057600181018083558110156117b25783907f6d5632cd9a7b6dfee21fdcf6c7874238d88c254239c9613977670fb28d0df36b01555491600052602052604060002055600190565b90813b156129e757600080516020612ce883398151915280546001600160a01b0319166001600160a01b0384169081179091557fbc7cd75a20ee27fd9adebab32041f755214dbc6bffa90cc0225b39da2e5c2d3b600080a28051156129cc57611f4391612adb565b5050346129d557565b60405163b398979f60e01b8152600490fd5b604051634c9c8ce360e01b81526001600160a01b0383166004820152602490fd5b8151919060418303612a3957612a3292506020820151906060604084015193015160001a90612af9565b9192909190565b505060009160029190565b6004111561072357565b612a5781612a44565b80612a60575050565b612a6981612a44565b60018103612a835760405163f645eedf60e01b8152600490fd5b612a8c81612a44565b60028103612aad5760405163fce698f760e01b815260048101839052602490fd5b80612ab9600392612a44565b14612ac15750565b6040516335e2f38360e21b81526004810191909152602490fd5b6000806108e893602081519101845af4612af3611ce6565b91612c04565b91907f7fffffffffffffffffffffffffffffff5d576e7357a4501ddfe92f46681b20a08411612b7157926020929160ff608095604051948552168484015260408301526060820152600092839182805260015afa15610d8d5780516001600160a01b03811615612b6857918190565b50809160019190565b50505060009160039190565b908160209103126101ec57516108e88161072b565b600080612bbb9260018060a01b03169360208151910182865af1612bb4611ce6565b9083612c04565b8051908115159182612be9575b5050612bd15750565b60249060405190635274afe760e01b82526004820152fd5b612bfc9250602080918301019101612b7d565b153880612bc8565b90612c2b5750805115612c1957805190602001fd5b604051630a12f52160e11b8152600490fd5b81511580612c5e575b612c3c575090565b604051639996b31560e01b81526001600160a01b039091166004820152602490fd5b50803b15612c3456fe9016d09d72d40fdae2fd8ceac6b6234c7706214fd39c1cd1e609a0528c199300af993094c8eaa0abdffcc638bc8d87f9c9a50f945db9b99ab0b6681eab4f4f05af993094c8eaa0abdffcc638bc8d87f9c9a50f945db9b99ab0b6681eab4f4f01f7d7e697360407af72f21b9dd15ad33dccec16d662d65c043a3b77c0c9d1b26a360894a13ba1a3210667c828492db98dca3e2076cc3735a920a3ca505d382bbcf0c57e16840df040f15088dc2f81fe391c3923bec73e23a9662efc9c229c6a00af993094c8eaa0abdffcc638bc8d87f9c9a50f945db9b99ab0b6681eab4f4f06a2646970667358221220d220a77035bf92d11d7c66cd495799567d140eb688f06dd6eb2507324a2be1e164736f6c63430008180033","opcodes":"PUSH1 0xA0 DUP1 PUSH1 0x40 MSTORE CALLVALUE PUSH2 0x2A JUMPI ADDRESS PUSH1 0x80 MSTORE PUSH2 0x2D7D SWAP1 DUP2 PUSH2 0x30 DUP3 CODECOPY PUSH1 0x80 MLOAD DUP2 DUP2 DUP2 PUSH2 0x92D ADD MSTORE PUSH2 0xA68 ADD MSTORE RETURN JUMPDEST PUSH1 0x0 DUP1 REVERT INVALID PUSH1 0x80 PUSH1 0x40 MSTORE PUSH1 0x4 CALLDATASIZE LT ISZERO PUSH2 0x12 JUMPI PUSH1 0x0 DUP1 REVERT JUMPDEST PUSH1 0x0 CALLDATALOAD PUSH1 0xE0 SHR DUP1 PUSH3 0xFEB1D8 EQ PUSH2 0x1D6 JUMPI DUP1 PUSH4 0xA732358 EQ PUSH2 0x1D1 JUMPI DUP1 PUSH4 0x141FBDF2 EQ PUSH2 0x1CC JUMPI DUP1 PUSH4 0x1ED6E115 EQ PUSH2 0x1C7 JUMPI DUP1 PUSH4 0x27A099D8 EQ PUSH2 0x1C2 JUMPI DUP1 PUSH4 0x33CFB7B7 EQ PUSH2 0x1BD JUMPI DUP1 PUSH4 0x389517E4 EQ PUSH2 0x1B8 JUMPI DUP1 PUSH4 0x43ADC491 EQ PUSH2 0x1B3 JUMPI DUP1 PUSH4 0x4F1EF286 EQ PUSH2 0x1AE JUMPI DUP1 PUSH4 0x52D1902D EQ PUSH2 0x1A9 JUMPI DUP1 PUSH4 0x5865C60C EQ PUSH2 0x1A4 JUMPI DUP1 PUSH4 0x6D50275D EQ PUSH2 0x19F JUMPI DUP1 PUSH4 0x715018A6 EQ PUSH2 0x19A JUMPI DUP1 PUSH4 0x8495FEAB EQ PUSH2 0x195 JUMPI DUP1 PUSH4 0x84A3F19B EQ PUSH2 0x190 JUMPI DUP1 PUSH4 0x8DA5CB5B EQ PUSH2 0x18B JUMPI DUP1 PUSH4 0x9375E713 EQ PUSH2 0x186 JUMPI DUP1 PUSH4 0xA0169DDD EQ PUSH2 0x181 JUMPI DUP1 PUSH4 0xA1060C88 EQ PUSH2 0x17C JUMPI DUP1 PUSH4 0xA98FB355 EQ PUSH2 0x177 JUMPI DUP1 PUSH4 0xAD3CB1CC EQ PUSH2 0x172 JUMPI DUP1 PUSH4 0xAD656C56 EQ PUSH2 0x16D JUMPI DUP1 PUSH4 0xCA1E1D67 EQ PUSH2 0x168 JUMPI DUP1 PUSH4 0xD32F562B EQ PUSH2 0x163 JUMPI DUP1 PUSH4 0xE3672163 EQ PUSH2 0x15E JUMPI DUP1 PUSH4 0xE481AF9D EQ PUSH2 0x159 JUMPI DUP1 PUSH4 0xF2251B0F EQ PUSH2 0x154 JUMPI PUSH4 0xF2FDE38B EQ PUSH2 0x14F JUMPI PUSH1 0x0 DUP1 REVERT JUMPDEST PUSH2 0x14F2 JUMP JUMPDEST PUSH2 0x14C9 JUMP JUMPDEST PUSH2 0x1454 JUMP JUMPDEST PUSH2 0x12DF JUMP JUMPDEST PUSH2 0x1224 JUMP JUMPDEST PUSH2 0x1149 JUMP JUMPDEST PUSH2 0x1120 JUMP JUMPDEST PUSH2 0x10E2 JUMP JUMPDEST PUSH2 0xFFE JUMP JUMPDEST PUSH2 0xEA2 JUMP JUMPDEST PUSH2 0xE26 JUMP JUMPDEST PUSH2 0xC8D JUMP JUMPDEST PUSH2 0xC57 JUMP JUMPDEST PUSH2 0xC22 JUMP JUMPDEST PUSH2 0xBDC JUMP JUMPDEST PUSH2 0xB71 JUMP JUMPDEST PUSH2 0xB16 JUMP JUMPDEST PUSH2 0xAC0 JUMP JUMPDEST PUSH2 0xA55 JUMP JUMPDEST PUSH2 0x8EB JUMP JUMPDEST PUSH2 0x735 JUMP JUMPDEST PUSH2 0x652 JUMP JUMPDEST PUSH2 0x61E JUMP JUMPDEST PUSH2 0x4B4 JUMP JUMPDEST PUSH2 0x3C2 JUMP JUMPDEST PUSH2 0x399 JUMP JUMPDEST PUSH2 0x370 JUMP JUMPDEST PUSH2 0x207 JUMP JUMPDEST PUSH1 0x1 PUSH1 0x1 PUSH1 0xA0 SHL SUB DUP2 AND SUB PUSH2 0x1EC JUMPI JUMP JUMPDEST PUSH1 0x0 DUP1 REVERT JUMPDEST PUSH1 0x84 CALLDATALOAD SWAP1 PUSH1 0x1 PUSH1 0x1 PUSH1 0x40 SHL SUB DUP3 AND DUP3 SUB PUSH2 0x1EC JUMPI JUMP JUMPDEST CALLVALUE PUSH2 0x1EC JUMPI PUSH1 0xA0 CALLDATASIZE PUSH1 0x3 NOT ADD SLT PUSH2 0x1EC JUMPI PUSH1 0x4 CALLDATALOAD PUSH2 0x224 DUP2 PUSH2 0x1DB JUMP JUMPDEST PUSH1 0x24 CALLDATALOAD SWAP1 PUSH2 0x231 DUP3 PUSH2 0x1DB JUMP JUMPDEST PUSH1 0x44 CALLDATALOAD PUSH2 0x23D DUP2 PUSH2 0x1DB JUMP JUMPDEST PUSH1 0x64 CALLDATALOAD PUSH2 0x249 DUP2 PUSH2 0x1DB JUMP JUMPDEST PUSH2 0x251 PUSH2 0x1F1 JUMP JUMPDEST SWAP2 PUSH1 0x0 DUP1 MLOAD PUSH1 0x20 PUSH2 0x2D08 DUP4 CODECOPY DUP2 MLOAD SWAP2 MSTORE SLOAD SWAP5 PUSH1 0x1 PUSH1 0x1 PUSH1 0x40 SHL SUB PUSH1 0xFF DUP8 PUSH1 0x40 SHR AND ISZERO SWAP7 AND DUP1 ISZERO SWAP1 DUP2 PUSH2 0x35D JUMPI JUMPDEST PUSH1 0x1 EQ SWAP1 DUP2 PUSH2 0x353 JUMPI JUMPDEST ISZERO SWAP1 DUP2 PUSH2 0x34A JUMPI JUMPDEST POP PUSH2 0x338 JUMPI PUSH1 0x0 DUP1 MLOAD PUSH1 0x20 PUSH2 0x2D08 DUP4 CODECOPY DUP2 MLOAD SWAP2 MSTORE DUP1 SLOAD PUSH8 0xFFFFFFFFFFFFFFFF NOT AND PUSH1 0x1 OR SWAP1 SSTORE PUSH2 0x2C4 SWAP5 DUP7 PUSH2 0x313 JUMPI PUSH2 0x151F JUMP JUMPDEST PUSH2 0x2CA JUMPI STOP JUMPDEST PUSH1 0x0 DUP1 MLOAD PUSH1 0x20 PUSH2 0x2D08 DUP4 CODECOPY DUP2 MLOAD SWAP2 MSTORE DUP1 SLOAD PUSH1 0xFF PUSH1 0x40 SHL NOT AND SWAP1 SSTORE PUSH1 0x40 MLOAD PUSH1 0x1 DUP2 MSTORE PUSH32 0xC7F505B2F371AE2175EE4913F4499E1F2633A7B5936321EED1CDAEB6115181D2 SWAP1 PUSH1 0x20 SWAP1 LOG1 STOP JUMPDEST PUSH1 0x0 DUP1 MLOAD PUSH1 0x20 PUSH2 0x2D08 DUP4 CODECOPY DUP2 MLOAD SWAP2 MSTORE DUP1 SLOAD PUSH1 0xFF PUSH1 0x40 SHL NOT AND PUSH1 0x1 PUSH1 0x40 SHL OR SWAP1 SSTORE PUSH2 0x151F JUMP JUMPDEST PUSH1 0x40 MLOAD PUSH4 0xF92EE8A9 PUSH1 0xE0 SHL DUP2 MSTORE PUSH1 0x4 SWAP1 REVERT JUMPDEST SWAP1 POP ISZERO CODESIZE PUSH2 0x290 JUMP JUMPDEST ADDRESS EXTCODESIZE ISZERO SWAP2 POP PUSH2 0x288 JUMP JUMPDEST DUP8 SWAP2 POP PUSH2 0x27E JUMP JUMPDEST PUSH1 0x0 SWAP2 SUB SLT PUSH2 0x1EC JUMPI JUMP JUMPDEST CALLVALUE PUSH2 0x1EC JUMPI PUSH1 0x0 CALLDATASIZE PUSH1 0x3 NOT ADD SLT PUSH2 0x1EC JUMPI PUSH1 0x0 SLOAD PUSH1 0x40 MLOAD PUSH1 0x1 PUSH1 0x1 PUSH1 0xA0 SHL SUB SWAP1 SWAP2 AND DUP2 MSTORE PUSH1 0x20 SWAP1 RETURN JUMPDEST CALLVALUE PUSH2 0x1EC JUMPI PUSH1 0x0 CALLDATASIZE PUSH1 0x3 NOT ADD SLT PUSH2 0x1EC JUMPI PUSH1 0x2 SLOAD PUSH1 0x40 MLOAD PUSH1 0x1 PUSH1 0x1 PUSH1 0xA0 SHL SUB SWAP1 SWAP2 AND DUP2 MSTORE PUSH1 0x20 SWAP1 RETURN JUMPDEST CALLVALUE PUSH2 0x1EC JUMPI PUSH1 0x0 CALLDATASIZE PUSH1 0x3 NOT ADD SLT PUSH2 0x1EC JUMPI PUSH1 0x20 PUSH1 0x0 DUP1 MLOAD PUSH1 0x20 PUSH2 0x2C88 DUP4 CODECOPY DUP2 MLOAD SWAP2 MSTORE SLOAD PUSH1 0x40 MLOAD SWAP1 DUP2 MSTORE RETURN JUMPDEST PUSH1 0x20 DUP1 DUP3 ADD SWAP1 DUP1 DUP4 MSTORE DUP4 MLOAD DUP1 SWAP3 MSTORE PUSH1 0x40 SWAP3 PUSH1 0x40 DUP2 ADD DUP3 PUSH1 0x40 DUP6 PUSH1 0x5 SHL DUP5 ADD ADD SWAP7 ADD SWAP5 PUSH1 0x0 DUP1 SWAP4 JUMPDEST DUP7 DUP6 LT PUSH2 0x426 JUMPI POP POP POP POP POP POP POP POP SWAP1 JUMP JUMPDEST SWAP1 SWAP2 SWAP3 SWAP4 SWAP5 SWAP6 SWAP7 SWAP8 PUSH1 0x3F NOT DUP3 DUP3 SUB ADD DUP6 MSTORE DUP7 DUP10 MLOAD SWAP2 PUSH1 0x80 DUP3 PUSH1 0xA0 DUP3 DUP5 ADD SWAP4 PUSH1 0x1 DUP1 DUP4 SHL SUB SWAP4 DUP5 DUP9 MLOAD AND DUP3 MSTORE DUP4 DUP9 ADD MLOAD DUP5 DUP4 ADD MSTORE DUP11 DUP9 ADD MLOAD DUP12 DUP4 ADD MSTORE PUSH1 0x60 DUP1 SWAP9 ADD MLOAD SWAP8 DUP3 ADD MSTORE DUP7 MLOAD DUP1 SWAP6 MSTORE ADD SWAP5 ADD SWAP2 DUP7 SWAP2 JUMPDEST DUP2 DUP4 LT PUSH2 0x498 JUMPI POP POP POP POP DUP1 PUSH1 0x1 SWAP3 SWAP11 ADD SWAP6 ADD SWAP6 ADD SWAP4 SWAP7 SWAP6 SWAP5 SWAP3 SWAP2 SWAP1 PUSH2 0x414 JUMP JUMPDEST DUP4 MLOAD DUP2 AND DUP7 MSTORE SWAP5 DUP5 ADD SWAP5 DUP12 SWAP5 SWAP4 SWAP1 SWAP4 ADD SWAP3 PUSH1 0x1 SWAP1 SWAP3 ADD SWAP2 PUSH2 0x477 JUMP JUMPDEST CALLVALUE PUSH2 0x1EC JUMPI PUSH1 0x0 CALLDATASIZE PUSH1 0x3 NOT ADD SLT PUSH2 0x1EC JUMPI PUSH1 0x0 DUP1 MLOAD PUSH1 0x20 PUSH2 0x2CA8 DUP4 CODECOPY DUP2 MLOAD SWAP2 MSTORE SLOAD PUSH2 0x4DE DUP2 PUSH2 0x1645 JUMP JUMPDEST PUSH2 0x4E6 PUSH2 0x1C86 JUMP JUMPDEST PUSH1 0x0 SWAP1 DUP2 JUMPDEST DUP5 DUP2 LT PUSH2 0x518 JUMPI POP POP PUSH2 0x50C SWAP3 DUP2 LT PUSH2 0x510 JUMPI JUMPDEST POP PUSH1 0x40 MLOAD SWAP2 DUP3 SWAP2 DUP3 PUSH2 0x3ED JUMP JUMPDEST SUB SWAP1 RETURN JUMPDEST DUP2 MSTORE CODESIZE PUSH2 0x4FF JUMP JUMPDEST PUSH2 0x533 PUSH2 0x527 PUSH2 0x527 DUP4 PUSH2 0x254E JUMP JUMPDEST PUSH1 0x1 PUSH1 0x1 PUSH1 0xA0 SHL SUB AND SWAP1 JUMP JUMPDEST PUSH1 0x1 PUSH2 0x53E DUP3 PUSH2 0x1D16 JUMP JUMPDEST PUSH2 0x547 DUP2 PUSH2 0x16DA JUMP JUMPDEST EQ PUSH2 0x556 JUMPI JUMPDEST POP PUSH1 0x1 ADD PUSH2 0x4EB JUMP JUMPDEST SWAP3 SWAP1 PUSH2 0x5D2 PUSH1 0x1 SWAP3 PUSH1 0x20 DUP1 PUSH2 0x572 PUSH2 0x56D DUP10 PUSH2 0x16E4 JUMP JUMPDEST PUSH2 0x171D JUMP JUMPDEST ADD MLOAD PUSH2 0x57E DUP8 DUP10 PUSH2 0x1E70 JUMP JUMPDEST PUSH2 0x58F PUSH2 0x58A DUP11 PUSH2 0x1F25 JUMP JUMPDEST PUSH2 0x20A6 JUMP JUMPDEST SWAP3 PUSH2 0x5AA PUSH2 0x59B PUSH2 0x86C JUMP JUMPDEST PUSH1 0x1 PUSH1 0x1 PUSH1 0xA0 SHL SUB SWAP1 SWAP12 AND DUP12 MSTORE JUMP JUMPDEST DUP10 ADD MSTORE PUSH1 0x40 DUP9 ADD MSTORE PUSH1 0x60 DUP8 ADD MSTORE PUSH2 0x5C0 DUP2 PUSH2 0x1774 JUMP JUMPDEST SWAP6 PUSH2 0x5CB DUP3 DUP10 PUSH2 0x179E JUMP JUMPDEST MSTORE DUP7 PUSH2 0x179E JUMP JUMPDEST POP SWAP1 PUSH2 0x54D JUMP JUMPDEST PUSH1 0x20 SWAP1 PUSH1 0x20 PUSH1 0x40 DUP2 DUP4 ADD SWAP3 DUP3 DUP2 MSTORE DUP6 MLOAD DUP1 SWAP5 MSTORE ADD SWAP4 ADD SWAP2 PUSH1 0x0 JUMPDEST DUP3 DUP2 LT PUSH2 0x601 JUMPI POP POP POP POP SWAP1 JUMP JUMPDEST DUP4 MLOAD PUSH1 0x1 PUSH1 0x1 PUSH1 0xA0 SHL SUB AND DUP6 MSTORE SWAP4 DUP2 ADD SWAP4 SWAP3 DUP2 ADD SWAP3 PUSH1 0x1 ADD PUSH2 0x5F3 JUMP JUMPDEST CALLVALUE PUSH2 0x1EC JUMPI PUSH1 0x20 CALLDATASIZE PUSH1 0x3 NOT ADD SLT PUSH2 0x1EC JUMPI PUSH2 0x50C PUSH2 0x646 PUSH1 0x4 CALLDATALOAD PUSH2 0x641 DUP2 PUSH2 0x1DB JUMP JUMPDEST PUSH2 0x1F25 JUMP JUMPDEST PUSH1 0x40 MLOAD SWAP2 DUP3 SWAP2 DUP3 PUSH2 0x5D9 JUMP JUMPDEST CALLVALUE PUSH2 0x1EC JUMPI PUSH1 0x0 DUP1 PUSH1 0x3 NOT CALLDATASIZE ADD SLT PUSH2 0x728 JUMPI PUSH2 0x66D CALLER PUSH2 0x1D16 JUMP JUMPDEST PUSH1 0x2 DUP2 LT ISZERO PUSH2 0x723 JUMPI ISZERO PUSH2 0x711 JUMPI CALLER DUP2 MSTORE PUSH32 0xAF993094C8EAA0ABDFFCC638BC8D87F9C9A50F945DB9B99AB0B6681EAB4F4F00 PUSH1 0x20 MSTORE PUSH1 0x40 DUP2 KECCAK256 PUSH1 0x1 PUSH1 0x1 PUSH1 0x40 SHL SUB SWAP1 DUP2 DUP2 SLOAD AND PUSH2 0x6FF JUMPI PUSH2 0x6D7 SWAP2 NUMBER AND PUSH1 0x1 PUSH1 0x1 PUSH1 0x40 SHL SUB AND PUSH1 0x1 PUSH1 0x1 PUSH1 0x40 SHL SUB NOT DUP3 SLOAD AND OR SWAP1 SSTORE JUMP JUMPDEST CALLER PUSH32 0x34E20E11F51D19D6E90F5AAEA605CB369F34AD23805C51D2E77D05C8208C8585 DUP3 DUP1 LOG2 DUP1 RETURN JUMPDEST PUSH1 0x40 MLOAD PUSH4 0xEBF7F59 PUSH1 0xE3 SHL DUP2 MSTORE PUSH1 0x4 SWAP1 REVERT JUMPDEST PUSH1 0x40 MLOAD PUSH4 0x25EC6C1F PUSH1 0xE0 SHL DUP2 MSTORE PUSH1 0x4 SWAP1 REVERT JUMPDEST PUSH2 0x16C4 JUMP JUMPDEST DUP1 REVERT JUMPDEST DUP1 ISZERO ISZERO SUB PUSH2 0x1EC JUMPI JUMP JUMPDEST CALLVALUE PUSH2 0x1EC JUMPI PUSH1 0x40 CALLDATASIZE PUSH1 0x3 NOT ADD SLT PUSH2 0x1EC JUMPI PUSH1 0x4 CALLDATALOAD PUSH2 0x752 DUP2 PUSH2 0x1DB JUMP JUMPDEST PUSH1 0x24 CALLDATALOAD SWAP1 PUSH2 0x75F DUP3 PUSH2 0x72B JUMP JUMPDEST PUSH2 0x767 PUSH2 0x21B4 JUMP JUMPDEST DUP2 ISZERO PUSH2 0x7D0 JUMPI PUSH2 0x77F PUSH1 0x1 PUSH1 0x1 PUSH1 0xA0 SHL SUB DUP3 AND PUSH2 0x2842 JUMP JUMPDEST ISZERO PUSH2 0x7BE JUMPI PUSH1 0x40 MLOAD SWAP2 ISZERO ISZERO DUP3 MSTORE PUSH1 0x1 PUSH1 0x1 PUSH1 0xA0 SHL SUB AND SWAP1 PUSH32 0x74D2E573146A4C9FBFD23124CE9007A97AEBEB715219B83507EC3A05209486BD SWAP1 PUSH1 0x20 SWAP1 LOG2 STOP JUMPDEST PUSH1 0x40 MLOAD PUSH4 0x79FDFC7D PUSH1 0xE0 SHL DUP2 MSTORE PUSH1 0x4 SWAP1 REVERT JUMPDEST PUSH2 0x7E2 PUSH1 0x1 PUSH1 0x1 PUSH1 0xA0 SHL SUB DUP3 AND PUSH2 0x2678 JUMP JUMPDEST PUSH2 0x77F JUMP JUMPDEST PUSH4 0x4E487B71 PUSH1 0xE0 SHL PUSH1 0x0 MSTORE PUSH1 0x41 PUSH1 0x4 MSTORE PUSH1 0x24 PUSH1 0x0 REVERT JUMPDEST PUSH1 0x1 PUSH1 0x1 PUSH1 0x40 SHL SUB DUP2 GT PUSH2 0x810 JUMPI PUSH1 0x40 MSTORE JUMP JUMPDEST PUSH2 0x7E7 JUMP JUMPDEST PUSH1 0x40 DUP2 ADD SWAP1 DUP2 LT PUSH1 0x1 PUSH1 0x1 PUSH1 0x40 SHL SUB DUP3 GT OR PUSH2 0x810 JUMPI PUSH1 0x40 MSTORE JUMP JUMPDEST PUSH1 0x80 DUP2 ADD SWAP1 DUP2 LT PUSH1 0x1 PUSH1 0x1 PUSH1 0x40 SHL SUB DUP3 GT OR PUSH2 0x810 JUMPI PUSH1 0x40 MSTORE JUMP JUMPDEST SWAP1 PUSH1 0x1F DUP1 NOT SWAP2 ADD AND DUP2 ADD SWAP1 DUP2 LT PUSH1 0x1 PUSH1 0x1 PUSH1 0x40 SHL SUB DUP3 GT OR PUSH2 0x810 JUMPI PUSH1 0x40 MSTORE JUMP JUMPDEST PUSH1 0x40 MLOAD SWAP1 PUSH2 0x879 DUP3 PUSH2 0x830 JUMP JUMPDEST JUMP JUMPDEST PUSH1 0x1 PUSH1 0x1 PUSH1 0x40 SHL SUB DUP2 GT PUSH2 0x810 JUMPI PUSH1 0x1F ADD PUSH1 0x1F NOT AND PUSH1 0x20 ADD SWAP1 JUMP JUMPDEST SWAP3 SWAP2 SWAP3 PUSH2 0x8A2 DUP3 PUSH2 0x87B JUMP JUMPDEST SWAP2 PUSH2 0x8B0 PUSH1 0x40 MLOAD SWAP4 DUP5 PUSH2 0x84B JUMP JUMPDEST DUP3 SWAP5 DUP2 DUP5 MSTORE DUP2 DUP4 ADD GT PUSH2 0x1EC JUMPI DUP3 DUP2 PUSH1 0x20 SWAP4 DUP5 PUSH1 0x0 SWAP7 ADD CALLDATACOPY ADD ADD MSTORE JUMP JUMPDEST SWAP1 DUP1 PUSH1 0x1F DUP4 ADD SLT ISZERO PUSH2 0x1EC JUMPI DUP2 PUSH1 0x20 PUSH2 0x8E8 SWAP4 CALLDATALOAD SWAP2 ADD PUSH2 0x896 JUMP JUMPDEST SWAP1 JUMP JUMPDEST PUSH1 0x40 CALLDATASIZE PUSH1 0x3 NOT ADD SLT PUSH2 0x1EC JUMPI PUSH1 0x4 DUP1 CALLDATALOAD SWAP1 PUSH2 0x905 DUP3 PUSH2 0x1DB JUMP JUMPDEST PUSH1 0x24 CALLDATALOAD PUSH1 0x1 PUSH1 0x1 PUSH1 0x40 SHL SUB DUP2 GT PUSH2 0x1EC JUMPI PUSH2 0x923 SWAP1 CALLDATASIZE SWAP1 DUP4 ADD PUSH2 0x8CD JUMP JUMPDEST PUSH1 0x1 PUSH1 0x1 PUSH1 0xA0 SHL SUB PUSH32 0x0 DUP2 AND ADDRESS DUP2 EQ SWAP1 DUP2 ISZERO PUSH2 0xA39 JUMPI JUMPDEST POP PUSH2 0xA28 JUMPI SWAP1 PUSH1 0x20 DUP4 SWAP3 PUSH2 0x96B PUSH2 0x21B4 JUMP JUMPDEST PUSH1 0x40 MLOAD PUSH4 0x52D1902D PUSH1 0xE0 SHL DUP2 MSTORE SWAP4 DUP5 SWAP2 DUP3 SWAP1 DUP9 AND GAS STATICCALL PUSH1 0x0 SWAP3 DUP2 PUSH2 0x9F7 JUMPI JUMPDEST POP PUSH2 0x9B8 JUMPI POP POP PUSH1 0x40 MLOAD PUSH4 0x4C9C8CE3 PUSH1 0xE0 SHL DUP2 MSTORE PUSH1 0x1 PUSH1 0x1 PUSH1 0xA0 SHL SUB SWAP1 SWAP3 AND SWAP1 DUP3 ADD SWAP1 DUP2 MSTORE DUP2 SWAP1 PUSH1 0x20 ADD SUB SWAP1 REVERT JUMPDEST DUP4 DUP4 PUSH1 0x0 DUP1 MLOAD PUSH1 0x20 PUSH2 0x2CE8 DUP4 CODECOPY DUP2 MLOAD SWAP2 MSTORE DUP5 SUB PUSH2 0x9DB JUMPI PUSH2 0x9D9 DUP4 DUP4 PUSH2 0x2964 JUMP JUMPDEST STOP JUMPDEST PUSH1 0x40 MLOAD PUSH4 0x2A875269 PUSH1 0xE2 SHL DUP2 MSTORE SWAP1 DUP2 ADD DUP5 DUP2 MSTORE DUP2 SWAP1 PUSH1 0x20 ADD SUB SWAP1 REVERT JUMPDEST PUSH2 0xA1A SWAP2 SWAP4 POP PUSH1 0x20 RETURNDATASIZE PUSH1 0x20 GT PUSH2 0xA21 JUMPI JUMPDEST PUSH2 0xA12 DUP2 DUP4 PUSH2 0x84B JUMP JUMPDEST DUP2 ADD SWAP1 PUSH2 0x1AE8 JUMP JUMPDEST SWAP2 CODESIZE PUSH2 0x98A JUMP JUMPDEST POP RETURNDATASIZE PUSH2 0xA08 JUMP JUMPDEST PUSH1 0x40 MLOAD PUSH4 0x703E46DD PUSH1 0xE1 SHL DUP2 MSTORE DUP4 SWAP1 REVERT JUMPDEST SWAP1 POP DUP2 PUSH1 0x0 DUP1 MLOAD PUSH1 0x20 PUSH2 0x2CE8 DUP4 CODECOPY DUP2 MLOAD SWAP2 MSTORE SLOAD AND EQ ISZERO CODESIZE PUSH2 0x959 JUMP JUMPDEST CALLVALUE PUSH2 0x1EC JUMPI PUSH1 0x0 CALLDATASIZE PUSH1 0x3 NOT ADD SLT PUSH2 0x1EC JUMPI PUSH32 0x0 PUSH1 0x1 PUSH1 0x1 PUSH1 0xA0 SHL SUB AND ADDRESS SUB PUSH2 0xAAE JUMPI PUSH1 0x20 PUSH1 0x40 MLOAD PUSH1 0x0 DUP1 MLOAD PUSH1 0x20 PUSH2 0x2CE8 DUP4 CODECOPY DUP2 MLOAD SWAP2 MSTORE DUP2 MSTORE RETURN JUMPDEST PUSH1 0x40 MLOAD PUSH4 0x703E46DD PUSH1 0xE1 SHL DUP2 MSTORE PUSH1 0x4 SWAP1 REVERT JUMPDEST CALLVALUE PUSH2 0x1EC JUMPI PUSH1 0x20 CALLDATASIZE PUSH1 0x3 NOT ADD SLT PUSH2 0x1EC JUMPI PUSH1 0x40 PUSH2 0xAF0 PUSH1 0x4 CALLDATALOAD PUSH2 0xAE2 DUP2 PUSH2 0x1DB JUMP JUMPDEST PUSH2 0xAEA PUSH2 0x17B7 JUMP JUMPDEST POP PUSH2 0x21ED JUMP JUMPDEST PUSH1 0x20 DUP3 MLOAD SWAP2 PUSH16 0xFFFFFFFFFFFFFFFFFFFFFFFFFFFFFFFF DUP2 MLOAD AND DUP4 MSTORE ADD MLOAD ISZERO ISZERO PUSH1 0x20 DUP3 ADD MSTORE RETURN JUMPDEST CALLVALUE PUSH2 0x1EC JUMPI PUSH1 0x40 CALLDATASIZE PUSH1 0x3 NOT ADD SLT PUSH2 0x1EC JUMPI PUSH1 0x24 CALLDATALOAD PUSH1 0x1 PUSH1 0x1 PUSH1 0x40 SHL SUB DUP2 GT PUSH2 0x1EC JUMPI PUSH2 0xB5F PUSH2 0xB56 PUSH2 0xB4E PUSH1 0x20 SWAP4 CALLDATASIZE SWAP1 PUSH1 0x4 ADD PUSH2 0x8CD JUMP JUMPDEST PUSH1 0x4 CALLDATALOAD PUSH2 0x2A08 JUMP JUMPDEST SWAP1 SWAP3 SWAP2 SWAP3 PUSH2 0x2A4E JUMP JUMPDEST PUSH1 0x40 MLOAD PUSH1 0x1 PUSH1 0x1 PUSH1 0xA0 SHL SUB SWAP1 SWAP2 AND DUP2 MSTORE RETURN JUMPDEST CALLVALUE PUSH2 0x1EC JUMPI PUSH1 0x0 DUP1 PUSH1 0x3 NOT CALLDATASIZE ADD SLT PUSH2 0x728 JUMPI PUSH2 0xB8B PUSH2 0x21B4 JUMP JUMPDEST PUSH1 0x0 DUP1 MLOAD PUSH1 0x20 PUSH2 0x2C68 DUP4 CODECOPY DUP2 MLOAD SWAP2 MSTORE DUP1 SLOAD PUSH1 0x1 PUSH1 0x1 PUSH1 0xA0 SHL SUB NOT DUP2 AND SWAP1 SWAP2 SSTORE DUP2 SWAP1 PUSH1 0x1 PUSH1 0x1 PUSH1 0xA0 SHL SUB AND PUSH32 0x8BE0079C531659141344CD1FD0A4F28419497F9722A3DAAFE3B4186F6B6457E0 DUP3 DUP1 LOG3 DUP1 RETURN JUMPDEST CALLVALUE PUSH2 0x1EC JUMPI PUSH1 0x0 CALLDATASIZE PUSH1 0x3 NOT ADD SLT PUSH2 0x1EC JUMPI PUSH1 0x20 PUSH1 0x1 PUSH1 0x1 PUSH1 0x40 SHL SUB PUSH32 0xAF993094C8EAA0ABDFFCC638BC8D87F9C9A50F945DB9B99AB0B6681EAB4F4F03 SLOAD AND PUSH1 0x40 MLOAD SWAP1 DUP2 MSTORE RETURN JUMPDEST CALLVALUE PUSH2 0x1EC JUMPI PUSH1 0x20 CALLDATASIZE PUSH1 0x3 NOT ADD SLT PUSH2 0x1EC JUMPI PUSH1 0x4 CALLDATALOAD PUSH1 0x1 PUSH1 0x1 PUSH1 0x40 SHL SUB DUP2 AND DUP2 SUB PUSH2 0x1EC JUMPI PUSH2 0x9D9 SWAP1 PUSH2 0xC52 PUSH2 0x21B4 JUMP JUMPDEST PUSH2 0x1BCF JUMP JUMPDEST CALLVALUE PUSH2 0x1EC JUMPI PUSH1 0x0 CALLDATASIZE PUSH1 0x3 NOT ADD SLT PUSH2 0x1EC JUMPI PUSH1 0x0 DUP1 MLOAD PUSH1 0x20 PUSH2 0x2C68 DUP4 CODECOPY DUP2 MLOAD SWAP2 MSTORE SLOAD PUSH1 0x40 MLOAD PUSH1 0x1 PUSH1 0x1 PUSH1 0xA0 SHL SUB SWAP1 SWAP2 AND DUP2 MSTORE PUSH1 0x20 SWAP1 RETURN JUMPDEST CALLVALUE PUSH2 0x1EC JUMPI PUSH1 0x40 DUP1 PUSH1 0x3 NOT CALLDATASIZE ADD SLT PUSH2 0x1EC JUMPI PUSH1 0x24 CALLDATALOAD PUSH1 0x1 PUSH1 0x1 PUSH1 0x40 SHL SUB SWAP2 DUP3 DUP3 GT PUSH2 0x1EC JUMPI CALLDATASIZE PUSH1 0x23 DUP4 ADD SLT ISZERO PUSH2 0x1EC JUMPI DUP2 PUSH1 0x4 ADD CALLDATALOAD SWAP3 DUP4 GT PUSH2 0x1EC JUMPI PUSH1 0x24 DUP3 ADD SWAP2 PUSH1 0x24 CALLDATASIZE SWAP2 DUP6 PUSH1 0x5 SHL ADD ADD GT PUSH2 0x1EC JUMPI PUSH2 0xCE5 PUSH2 0x21B4 JUMP JUMPDEST PUSH2 0xCF0 PUSH1 0x4 CALLDATALOAD PUSH2 0x2265 JUMP JUMPDEST PUSH1 0x0 JUMPDEST DUP4 DUP2 LT PUSH2 0xD92 JUMPI POP POP PUSH1 0x2 SLOAD PUSH2 0xD11 SWAP1 PUSH1 0x1 PUSH1 0x1 PUSH1 0xA0 SHL SUB AND PUSH2 0x527 JUMP JUMPDEST SWAP2 DUP3 EXTCODESIZE ISZERO PUSH2 0x1EC JUMPI PUSH2 0xD3E SWAP3 PUSH1 0x0 SWAP3 DUP4 PUSH1 0x40 MLOAD DUP1 SWAP7 DUP2 SWAP6 DUP3 SWAP5 PUSH4 0x4E5CD2FD PUSH1 0xE1 SHL DUP5 MSTORE ADDRESS PUSH1 0x4 DUP6 ADD PUSH2 0x1951 JUMP JUMPDEST SUB SWAP3 GAS CALL DUP1 ISZERO PUSH2 0xD8D JUMPI PUSH2 0xD74 JUMPI JUMPDEST PUSH32 0x410F403ED28055EE05512C23D09C2B582FA6D23119E026C0CFC4AA615CAB07BB PUSH1 0x0 DUP1 LOG1 STOP JUMPDEST DUP1 PUSH2 0xD81 PUSH2 0xD87 SWAP3 PUSH2 0x7FD JUMP JUMPDEST DUP1 PUSH2 0x365 JUMP JUMPDEST CODESIZE PUSH2 0xD4D JUMP JUMPDEST PUSH2 0x1ADC JUMP JUMPDEST PUSH2 0xD9D DUP2 DUP6 DUP6 PUSH2 0x17D0 JUMP JUMPDEST PUSH1 0x0 SWAP1 DUP4 DUP2 ADD PUSH2 0xDAD DUP2 DUP4 PUSH2 0x17F2 JUMP JUMPDEST DUP5 SWAP3 SWAP2 POP JUMPDEST DUP1 DUP4 LT PUSH2 0xDF6 JUMPI POP POP POP PUSH1 0x1 SWAP3 SWAP2 PUSH2 0xDD5 PUSH2 0x527 PUSH2 0x527 PUSH1 0x20 PUSH2 0xDF0 SWAP6 ADD PUSH2 0x1852 JUMP JUMPDEST PUSH1 0x2 SLOAD PUSH2 0xDEA SWAP1 PUSH1 0x1 PUSH1 0x1 PUSH1 0xA0 SHL SUB AND PUSH2 0x527 JUMP JUMPDEST SWAP1 PUSH2 0x234C JUMP JUMPDEST ADD PUSH2 0xCF3 JUMP JUMPDEST SWAP1 SWAP2 SWAP4 PUSH2 0xE1D PUSH1 0x1 SWAP2 PUSH1 0x20 PUSH2 0xE15 DUP9 PUSH2 0xE0F DUP9 DUP11 PUSH2 0x17F2 JUMP JUMPDEST SWAP1 PUSH2 0x1827 JUMP JUMPDEST ADD CALLDATALOAD SWAP1 PUSH2 0x1845 JUMP JUMPDEST SWAP5 ADD SWAP2 SWAP1 PUSH2 0xDB2 JUMP JUMPDEST CALLVALUE PUSH2 0x1EC JUMPI PUSH1 0x0 PUSH1 0x20 CALLDATASIZE PUSH1 0x3 NOT ADD SLT PUSH2 0x728 JUMPI PUSH1 0x4 CALLDATALOAD PUSH2 0xE45 DUP2 PUSH2 0x1DB JUMP JUMPDEST PUSH2 0xE4D PUSH2 0x21B4 JUMP JUMPDEST PUSH1 0x2 SLOAD PUSH1 0x1 PUSH1 0x1 PUSH1 0xA0 SHL SUB SWAP1 DUP2 AND SWAP2 DUP4 SWAP2 SWAP1 DUP4 EXTCODESIZE ISZERO PUSH2 0xE9E JUMPI PUSH1 0x24 SWAP1 DUP4 PUSH1 0x40 MLOAD SWAP6 DUP7 SWAP5 DUP6 SWAP4 PUSH4 0xA0169DDD PUSH1 0xE0 SHL DUP6 MSTORE AND PUSH1 0x4 DUP5 ADD MSTORE GAS CALL DUP1 ISZERO PUSH2 0xD8D JUMPI PUSH2 0xE92 JUMPI POP DUP1 RETURN JUMPDEST PUSH2 0xE9B SWAP1 PUSH2 0x7FD JUMP JUMPDEST DUP1 RETURN JUMPDEST DUP3 DUP1 REVERT JUMPDEST CALLVALUE PUSH2 0x1EC JUMPI PUSH1 0x80 CALLDATASIZE PUSH1 0x3 NOT ADD SLT PUSH2 0x1EC JUMPI PUSH1 0x4 DUP1 CALLDATALOAD PUSH2 0xEC0 DUP2 PUSH2 0x1DB JUMP JUMPDEST PUSH1 0x24 CALLDATALOAD SWAP1 PUSH2 0xECD DUP3 PUSH2 0x1DB JUMP JUMPDEST PUSH1 0x3 SLOAD PUSH1 0x20 SWAP1 PUSH2 0xEE5 SWAP1 PUSH1 0x1 PUSH1 0x1 PUSH1 0xA0 SHL SUB AND PUSH2 0x527 JUMP JUMPDEST PUSH1 0x40 MLOAD PUSH4 0xF698DA25 PUSH1 0xE0 SHL DUP2 MSTORE SWAP5 DUP6 SWAP2 DUP3 SWAP1 GAS STATICCALL SWAP2 DUP3 ISZERO PUSH2 0xD8D JUMPI PUSH2 0x50C SWAP4 PUSH1 0x0 SWAP4 PUSH2 0xFCF JUMPI JUMPDEST POP PUSH1 0x40 DUP1 MLOAD PUSH32 0xDA2C89BAFDD34776A2B8BB9C83C82F419E20CC8C67207F70EDD58249B92661BD PUSH1 0x20 DUP3 ADD SWAP1 DUP2 MSTORE PUSH1 0x1 PUSH1 0x1 PUSH1 0xA0 SHL SUB SWAP5 DUP6 AND SWAP3 DUP3 ADD SWAP3 SWAP1 SWAP3 MSTORE SWAP3 SWAP1 SWAP2 AND PUSH1 0x60 DUP4 ADD MSTORE PUSH1 0x44 CALLDATALOAD PUSH1 0x80 DUP4 ADD MSTORE PUSH1 0x64 CALLDATALOAD PUSH1 0xA0 DUP4 ADD MSTORE PUSH2 0xFB0 SWAP2 PUSH2 0xFBC SWAP2 DUP2 PUSH1 0xC0 DUP2 ADD JUMPDEST SUB SWAP2 PUSH2 0xF86 PUSH1 0x1F NOT SWAP4 DUP5 DUP2 ADD DUP4 MSTORE DUP3 PUSH2 0x84B JUMP JUMPDEST MLOAD SWAP1 KECCAK256 PUSH1 0x40 MLOAD SWAP4 DUP5 SWAP2 PUSH1 0x20 DUP4 ADD SWAP7 DUP8 SWAP1 SWAP2 PUSH1 0x42 SWAP3 PUSH2 0x1901 PUSH1 0xF0 SHL DUP4 MSTORE PUSH1 0x2 DUP4 ADD MSTORE PUSH1 0x22 DUP3 ADD MSTORE ADD SWAP1 JUMP JUMPDEST SUB SWAP1 DUP2 ADD DUP4 MSTORE DUP3 PUSH2 0x84B JUMP JUMPDEST MLOAD SWAP1 KECCAK256 PUSH1 0x40 MLOAD SWAP1 DUP2 MSTORE SWAP1 DUP2 SWAP1 PUSH1 0x20 DUP3 ADD SWAP1 JUMP JUMPDEST PUSH2 0xFBC SWAP2 SWAP4 POP PUSH2 0xFB0 SWAP3 PUSH2 0xFF4 PUSH2 0xF72 SWAP3 PUSH1 0x20 RETURNDATASIZE PUSH1 0x20 GT PUSH2 0xA21 JUMPI PUSH2 0xA12 DUP2 DUP4 PUSH2 0x84B JUMP JUMPDEST SWAP5 SWAP3 POP SWAP3 POP PUSH2 0xF0C JUMP JUMPDEST CALLVALUE PUSH2 0x1EC JUMPI PUSH1 0x0 PUSH1 0x20 CALLDATASIZE PUSH1 0x3 NOT ADD SLT PUSH2 0x728 JUMPI DUP1 PUSH1 0x4 CALLDATALOAD PUSH1 0x1 PUSH1 0x1 PUSH1 0x40 SHL SUB DUP2 GT PUSH2 0x1096 JUMPI CALLDATASIZE PUSH1 0x23 DUP3 ADD SLT ISZERO PUSH2 0x1096 JUMPI PUSH2 0x1042 SWAP1 CALLDATASIZE SWAP1 PUSH1 0x24 DUP2 PUSH1 0x4 ADD CALLDATALOAD SWAP2 ADD PUSH2 0x896 JUMP JUMPDEST PUSH2 0x104A PUSH2 0x21B4 JUMP JUMPDEST PUSH1 0x3 SLOAD PUSH1 0x1 PUSH1 0x1 PUSH1 0xA0 SHL SUB AND SWAP1 DUP2 EXTCODESIZE ISZERO PUSH2 0x1092 JUMPI DUP3 SWAP2 PUSH2 0x1080 SWAP2 PUSH1 0x40 MLOAD SWAP5 DUP6 DUP1 SWAP5 DUP2 SWAP4 PUSH4 0xA98FB355 PUSH1 0xE0 SHL DUP4 MSTORE PUSH1 0x4 DUP4 ADD PUSH2 0x1099 JUMP JUMPDEST SUB SWAP3 GAS CALL DUP1 ISZERO PUSH2 0xD8D JUMPI PUSH2 0xE92 JUMPI POP DUP1 RETURN JUMPDEST POP POP REVERT JUMPDEST POP REVERT JUMPDEST PUSH1 0x20 DUP1 DUP3 MSTORE DUP3 MLOAD DUP2 DUP4 ADD DUP2 SWAP1 MSTORE SWAP1 SWAP4 SWAP3 PUSH1 0x0 JUMPDEST DUP3 DUP2 LT PUSH2 0x10CE JUMPI POP POP PUSH1 0x40 SWAP3 SWAP4 POP PUSH1 0x0 DUP4 DUP3 DUP5 ADD ADD MSTORE PUSH1 0x1F DUP1 NOT SWAP2 ADD AND ADD ADD SWAP1 JUMP JUMPDEST DUP2 DUP2 ADD DUP7 ADD MLOAD DUP5 DUP3 ADD PUSH1 0x40 ADD MSTORE DUP6 ADD PUSH2 0x10AC JUMP JUMPDEST CALLVALUE PUSH2 0x1EC JUMPI PUSH1 0x0 CALLDATASIZE PUSH1 0x3 NOT ADD SLT PUSH2 0x1EC JUMPI PUSH2 0x50C PUSH1 0x40 MLOAD PUSH2 0x1102 DUP2 PUSH2 0x815 JUMP JUMPDEST PUSH1 0x5 DUP2 MSTORE PUSH5 0x352E302E3 PUSH1 0xDC SHL PUSH1 0x20 DUP3 ADD MSTORE PUSH1 0x40 MLOAD SWAP2 DUP3 SWAP2 DUP3 PUSH2 0x1099 JUMP JUMPDEST CALLVALUE PUSH2 0x1EC JUMPI PUSH1 0x0 CALLDATASIZE PUSH1 0x3 NOT ADD SLT PUSH2 0x1EC JUMPI PUSH1 0x3 SLOAD PUSH1 0x40 MLOAD PUSH1 0x1 PUSH1 0x1 PUSH1 0xA0 SHL SUB SWAP1 SWAP2 AND DUP2 MSTORE PUSH1 0x20 SWAP1 RETURN JUMPDEST CALLVALUE PUSH2 0x1EC JUMPI PUSH1 0x3 NOT PUSH1 0x40 CALLDATASIZE DUP3 ADD SLT PUSH2 0x1EC JUMPI PUSH1 0x4 CALLDATALOAD SWAP1 PUSH1 0x1 PUSH1 0x1 PUSH1 0x40 SHL SUB DUP3 GT PUSH2 0x1EC JUMPI PUSH1 0x60 SWAP1 DUP3 CALLDATASIZE SUB ADD SLT PUSH2 0x1EC JUMPI PUSH1 0x3 SLOAD PUSH2 0x118E SWAP1 PUSH1 0x1 PUSH1 0x1 PUSH1 0xA0 SHL SUB AND PUSH2 0x527 JUMP JUMPDEST SWAP1 DUP2 EXTCODESIZE ISZERO PUSH2 0x1EC JUMPI PUSH2 0x11BF PUSH1 0x40 MLOAD DUP1 SWAP4 DUP2 DUP1 SWAP5 PUSH4 0x9926EE7D PUSH1 0xE0 SHL DUP3 MSTORE PUSH1 0x0 SWAP7 DUP8 SWAP6 DUP7 SWAP3 PUSH1 0x4 ADD CALLER PUSH1 0x4 DUP5 ADD PUSH2 0x1AF7 JUMP JUMPDEST SUB SWAP3 GAS CALL DUP1 ISZERO PUSH2 0xD8D JUMPI PUSH2 0x1211 JUMPI JUMPDEST POP PUSH1 0x24 CALLDATALOAD PUSH1 0x1 PUSH2 0x11DD CALLER PUSH2 0x16E4 JUMP JUMPDEST ADD SSTORE PUSH2 0x11E8 CALLER PUSH2 0x28CA JUMP JUMPDEST POP CALLER PUSH32 0x4D0EB1F4BAC8744FD2BE119845E23B3BEFC88094B42BCDA1204C65694A00F9E5 DUP3 DUP1 LOG2 DUP1 RETURN JUMPDEST DUP1 PUSH2 0xD81 PUSH2 0x121E SWAP3 PUSH2 0x7FD JUMP JUMPDEST CODESIZE PUSH2 0x11CE JUMP JUMPDEST CALLVALUE PUSH2 0x1EC JUMPI PUSH1 0x40 CALLDATASIZE PUSH1 0x3 NOT ADD SLT PUSH2 0x1EC JUMPI PUSH1 0x4 CALLDATALOAD PUSH2 0x1241 DUP2 PUSH2 0x1DB JUMP JUMPDEST PUSH1 0x24 CALLDATALOAD SWAP1 PUSH1 0x1 PUSH1 0x1 PUSH1 0x40 SHL SUB SWAP1 DUP2 DUP4 GT PUSH2 0x1EC JUMPI CALLDATASIZE PUSH1 0x23 DUP5 ADD SLT ISZERO PUSH2 0x1EC JUMPI DUP3 PUSH1 0x4 ADD CALLDATALOAD SWAP2 DUP3 GT PUSH2 0x1EC JUMPI CALLDATASIZE PUSH1 0x24 DUP4 DUP6 ADD ADD GT PUSH2 0x1EC JUMPI PUSH2 0x1280 PUSH2 0x21B4 JUMP JUMPDEST PUSH1 0x1 PUSH1 0x1 PUSH1 0xA0 SHL SUB AND SWAP2 DUP3 EXTCODESIZE ISZERO PUSH2 0x1EC JUMPI PUSH2 0x12C6 SWAP3 PUSH1 0x0 SWAP3 DUP4 PUSH1 0x40 MLOAD DUP1 SWAP7 DUP2 SWAP6 DUP3 SWAP5 PUSH4 0xA9821821 PUSH1 0xE0 SHL DUP5 MSTORE ADDRESS PUSH1 0x4 DUP6 ADD MSTORE PUSH1 0x40 PUSH1 0x24 DUP6 ADD MSTORE PUSH1 0x24 PUSH1 0x44 DUP6 ADD SWAP3 ADD PUSH2 0x1930 JUMP JUMPDEST SUB SWAP3 GAS CALL DUP1 ISZERO PUSH2 0xD8D JUMPI PUSH2 0x12D6 JUMPI STOP JUMPDEST PUSH2 0x9D9 SWAP1 PUSH2 0x7FD JUMP JUMPDEST CALLVALUE PUSH2 0x1EC JUMPI PUSH1 0x0 DUP1 PUSH1 0x3 NOT CALLDATASIZE ADD SLT PUSH2 0x728 JUMPI PUSH2 0x12FA CALLER PUSH2 0x1D16 JUMP JUMPDEST PUSH1 0x2 DUP2 LT ISZERO PUSH2 0x723 JUMPI ISZERO PUSH2 0x711 JUMPI PUSH2 0x1321 PUSH2 0x1314 CALLER PUSH2 0x16E4 JUMP JUMPDEST SLOAD PUSH1 0x1 PUSH1 0x1 PUSH1 0x40 SHL SUB AND SWAP1 JUMP JUMPDEST PUSH1 0x1 PUSH1 0x1 PUSH1 0x40 SHL SUB DUP2 AND ISZERO PUSH2 0x1442 JUMPI PUSH2 0x136E PUSH2 0x137A SWAP2 PUSH2 0x1368 PUSH32 0xAF993094C8EAA0ABDFFCC638BC8D87F9C9A50F945DB9B99AB0B6681EAB4F4F03 SLOAD PUSH1 0x1 PUSH1 0x1 PUSH1 0x40 SHL SUB AND SWAP1 JUMP JUMPDEST SWAP1 PUSH2 0x1B40 JUMP JUMPDEST PUSH1 0x1 PUSH1 0x1 PUSH1 0x40 SHL SUB AND SWAP1 JUMP JUMPDEST NUMBER LT PUSH2 0x1430 JUMPI PUSH1 0x3 SLOAD PUSH2 0x1395 SWAP1 PUSH1 0x1 PUSH1 0x1 PUSH1 0xA0 SHL SUB AND PUSH2 0x527 JUMP JUMPDEST DUP1 EXTCODESIZE ISZERO PUSH2 0x142C JUMPI PUSH1 0x40 MLOAD PUSH4 0x51B27A6D PUSH1 0xE1 SHL DUP2 MSTORE CALLER PUSH1 0x4 DUP3 ADD MSTORE SWAP1 DUP3 SWAP1 DUP3 SWAP1 PUSH1 0x24 SWAP1 DUP3 SWAP1 DUP5 SWAP1 GAS CALL DUP1 ISZERO PUSH2 0xD8D JUMPI PUSH2 0x1419 JUMPI JUMPDEST POP PUSH2 0x13E7 PUSH2 0x13D5 CALLER PUSH2 0x16E4 JUMP JUMPDEST PUSH1 0x2 PUSH1 0x0 SWAP2 DUP3 DUP2 SSTORE DUP3 PUSH1 0x1 DUP3 ADD SSTORE ADD SSTORE JUMP JUMPDEST PUSH2 0x13F0 CALLER PUSH2 0x2775 JUMP JUMPDEST POP CALLER PUSH32 0x6DD4CA66565FB3DEE8076C654634C6C4AD949022D809D0394308617D6791218D DUP3 DUP1 LOG2 DUP1 RETURN JUMPDEST DUP1 PUSH2 0xD81 PUSH2 0x1426 SWAP3 PUSH2 0x7FD JUMP JUMPDEST CODESIZE PUSH2 0x13C8 JUMP JUMPDEST POP DUP1 REVERT JUMPDEST PUSH1 0x40 MLOAD PUSH4 0x207C1161 PUSH1 0xE0 SHL DUP2 MSTORE PUSH1 0x4 SWAP1 REVERT JUMPDEST PUSH1 0x40 MLOAD PUSH4 0xA9E6E7EB PUSH1 0xE0 SHL DUP2 MSTORE PUSH1 0x4 SWAP1 REVERT JUMPDEST CALLVALUE PUSH2 0x1EC JUMPI PUSH1 0x0 CALLDATASIZE PUSH1 0x3 NOT ADD SLT PUSH2 0x1EC JUMPI PUSH1 0x40 MLOAD DUP1 PUSH1 0x0 DUP1 MLOAD PUSH1 0x20 PUSH2 0x2D28 DUP4 CODECOPY DUP2 MLOAD SWAP2 MSTORE SWAP2 DUP3 SLOAD DUP1 DUP3 MSTORE PUSH1 0x20 DUP1 SWAP3 ADD SWAP4 PUSH1 0x0 MSTORE PUSH1 0x0 DUP1 MLOAD PUSH1 0x20 PUSH2 0x2CC8 DUP4 CODECOPY DUP2 MLOAD SWAP2 MSTORE SWAP2 PUSH1 0x0 SWAP1 JUMPDEST DUP3 DUP3 LT PUSH2 0x14B2 JUMPI PUSH2 0x50C DUP6 PUSH2 0x646 DUP2 DUP10 SUB DUP3 PUSH2 0x84B JUMP JUMPDEST DUP4 SLOAD DUP7 MSTORE SWAP5 DUP6 ADD SWAP5 PUSH1 0x1 SWAP4 DUP5 ADD SWAP4 SWAP1 SWAP2 ADD SWAP1 PUSH2 0x149B JUMP JUMPDEST CALLVALUE PUSH2 0x1EC JUMPI PUSH1 0x0 CALLDATASIZE PUSH1 0x3 NOT ADD SLT PUSH2 0x1EC JUMPI PUSH1 0x1 SLOAD PUSH1 0x40 MLOAD PUSH1 0x1 PUSH1 0x1 PUSH1 0xA0 SHL SUB SWAP1 SWAP2 AND DUP2 MSTORE PUSH1 0x20 SWAP1 RETURN JUMPDEST CALLVALUE PUSH2 0x1EC JUMPI PUSH1 0x20 CALLDATASIZE PUSH1 0x3 NOT ADD SLT PUSH2 0x1EC JUMPI PUSH2 0x9D9 PUSH1 0x4 CALLDATALOAD PUSH2 0x1512 DUP2 PUSH2 0x1DB JUMP JUMPDEST PUSH2 0x151A PUSH2 0x21B4 JUMP JUMPDEST PUSH2 0x1B5B JUMP JUMPDEST SWAP3 SWAP4 SWAP3 PUSH1 0x1 PUSH1 0x1 PUSH1 0xA0 SHL SUB SWAP1 DUP2 AND SWAP3 SWAP2 DUP4 ISZERO PUSH2 0x161C JUMPI DUP2 AND SWAP2 DUP3 ISZERO PUSH2 0x160A JUMPI DUP2 AND SWAP5 DUP6 ISZERO PUSH2 0x15F8 JUMPI AND SWAP1 DUP2 ISZERO PUSH2 0x15E6 JUMPI PUSH2 0x15D5 SWAP5 PUSH2 0x159B PUSH2 0x15B8 SWAP3 PUSH2 0x157E PUSH2 0xC52 SWAP7 PUSH1 0x1 DUP1 PUSH1 0xA0 SHL SUB AND PUSH1 0x1 PUSH1 0x1 PUSH1 0x60 SHL SUB PUSH1 0xA0 SHL PUSH1 0x0 SLOAD AND OR PUSH1 0x0 SSTORE JUMP JUMPDEST PUSH1 0x1 DUP1 PUSH1 0xA0 SHL SUB AND PUSH1 0x1 PUSH1 0x1 PUSH1 0x60 SHL SUB PUSH1 0xA0 SHL PUSH1 0x1 SLOAD AND OR PUSH1 0x1 SSTORE JUMP JUMPDEST PUSH1 0x1 DUP1 PUSH1 0xA0 SHL SUB AND PUSH1 0x1 PUSH1 0x1 PUSH1 0x60 SHL SUB PUSH1 0xA0 SHL PUSH1 0x3 SLOAD AND OR PUSH1 0x3 SSTORE JUMP JUMPDEST PUSH1 0x1 DUP1 PUSH1 0xA0 SHL SUB AND PUSH1 0x1 PUSH1 0x1 PUSH1 0x60 SHL SUB PUSH1 0xA0 SHL PUSH1 0x2 SLOAD AND OR PUSH1 0x2 SSTORE JUMP JUMPDEST PUSH2 0x15DE CALLER PUSH2 0x1C40 JUMP JUMPDEST PUSH2 0x879 PUSH2 0x24AB JUMP JUMPDEST PUSH1 0x40 MLOAD PUSH4 0x7D2B055F PUSH1 0xE1 SHL DUP2 MSTORE PUSH1 0x4 SWAP1 REVERT JUMPDEST PUSH1 0x40 MLOAD PUSH4 0x2225CDCF PUSH1 0xE1 SHL DUP2 MSTORE PUSH1 0x4 SWAP1 REVERT JUMPDEST PUSH1 0x40 MLOAD PUSH4 0x2023DE53 PUSH1 0xE1 SHL DUP2 MSTORE PUSH1 0x4 SWAP1 REVERT JUMPDEST PUSH1 0x40 MLOAD PUSH4 0x5B9D55C7 PUSH1 0xE1 SHL DUP2 MSTORE PUSH1 0x4 SWAP1 REVERT JUMPDEST PUSH1 0x1 PUSH1 0x1 PUSH1 0x40 SHL SUB DUP2 GT PUSH2 0x810 JUMPI PUSH1 0x5 SHL PUSH1 0x20 ADD SWAP1 JUMP JUMPDEST SWAP1 PUSH2 0x164F DUP3 PUSH2 0x162E JUMP JUMPDEST PUSH1 0x40 SWAP1 PUSH2 0x165F PUSH1 0x40 MLOAD SWAP2 DUP3 PUSH2 0x84B JUMP JUMPDEST DUP4 DUP2 MSTORE DUP1 SWAP4 PUSH2 0x1670 PUSH1 0x1F NOT SWAP2 PUSH2 0x162E JUMP JUMPDEST ADD SWAP1 PUSH1 0x0 SWAP3 PUSH1 0x0 JUMPDEST DUP4 DUP2 LT PUSH2 0x1686 JUMPI POP POP POP POP POP JUMP JUMPDEST DUP2 MLOAD SWAP1 PUSH1 0x80 DUP3 ADD SWAP2 DUP1 DUP4 LT PUSH1 0x1 PUSH1 0x1 PUSH1 0x40 SHL SUB DUP5 GT OR PUSH2 0x810 JUMPI PUSH1 0x20 SWAP3 DUP5 MSTORE DUP7 DUP2 MSTORE DUP3 DUP8 DUP2 DUP4 ADD MSTORE DUP8 DUP6 DUP4 ADD MSTORE PUSH1 0x60 DUP1 DUP4 ADD MSTORE DUP3 DUP7 ADD ADD MSTORE ADD PUSH2 0x1678 JUMP JUMPDEST PUSH4 0x4E487B71 PUSH1 0xE0 SHL PUSH1 0x0 MSTORE PUSH1 0x21 PUSH1 0x4 MSTORE PUSH1 0x24 PUSH1 0x0 REVERT JUMPDEST PUSH1 0x2 GT ISZERO PUSH2 0x723 JUMPI JUMP JUMPDEST PUSH1 0x1 PUSH1 0x1 PUSH1 0xA0 SHL SUB AND PUSH1 0x0 SWAP1 DUP2 MSTORE PUSH32 0xAF993094C8EAA0ABDFFCC638BC8D87F9C9A50F945DB9B99AB0B6681EAB4F4F00 PUSH1 0x20 MSTORE PUSH1 0x40 SWAP1 KECCAK256 SWAP1 JUMP JUMPDEST SWAP1 PUSH1 0x40 MLOAD PUSH1 0x60 DUP2 ADD PUSH1 0x1 PUSH1 0x1 PUSH1 0x40 SHL SUB SWAP4 DUP3 DUP3 LT DUP6 DUP4 GT OR PUSH2 0x810 JUMPI PUSH1 0x2 PUSH1 0xFF SWAP2 PUSH1 0x40 SWAP4 DUP5 MSTORE DUP5 SWAP7 DUP2 SLOAD AND DUP6 MSTORE PUSH1 0x1 DUP2 ADD SLOAD PUSH1 0x20 DUP7 ADD MSTORE ADD SLOAD AND ISZERO ISZERO SWAP2 ADD MSTORE JUMP JUMPDEST PUSH4 0x4E487B71 PUSH1 0xE0 SHL PUSH1 0x0 MSTORE PUSH1 0x11 PUSH1 0x4 MSTORE PUSH1 0x24 PUSH1 0x0 REVERT JUMPDEST PUSH1 0x0 NOT DUP2 EQ PUSH2 0x1783 JUMPI PUSH1 0x1 ADD SWAP1 JUMP JUMPDEST PUSH2 0x175E JUMP JUMPDEST PUSH4 0x4E487B71 PUSH1 0xE0 SHL PUSH1 0x0 MSTORE PUSH1 0x32 PUSH1 0x4 MSTORE PUSH1 0x24 PUSH1 0x0 REVERT JUMPDEST DUP1 MLOAD DUP3 LT ISZERO PUSH2 0x17B2 JUMPI PUSH1 0x20 SWAP2 PUSH1 0x5 SHL ADD ADD SWAP1 JUMP JUMPDEST PUSH2 0x1788 JUMP JUMPDEST PUSH1 0x40 MLOAD SWAP1 PUSH2 0x17C4 DUP3 PUSH2 0x815 JUMP JUMPDEST PUSH1 0x0 PUSH1 0x20 DUP4 DUP3 DUP2 MSTORE ADD MSTORE JUMP JUMPDEST SWAP2 SWAP1 DUP2 LT ISZERO PUSH2 0x17B2 JUMPI PUSH1 0x5 SHL DUP2 ADD CALLDATALOAD SWAP1 PUSH1 0xBE NOT DUP2 CALLDATASIZE SUB ADD DUP3 SLT ISZERO PUSH2 0x1EC JUMPI ADD SWAP1 JUMP JUMPDEST SWAP1 CALLDATALOAD SWAP1 PUSH1 0x1E NOT DUP2 CALLDATASIZE SUB ADD DUP3 SLT ISZERO PUSH2 0x1EC JUMPI ADD DUP1 CALLDATALOAD SWAP1 PUSH1 0x1 PUSH1 0x1 PUSH1 0x40 SHL SUB DUP3 GT PUSH2 0x1EC JUMPI PUSH1 0x20 ADD SWAP2 DUP2 PUSH1 0x6 SHL CALLDATASIZE SUB DUP4 SGT PUSH2 0x1EC JUMPI JUMP JUMPDEST SWAP2 SWAP1 DUP2 LT ISZERO PUSH2 0x17B2 JUMPI PUSH1 0x6 SHL ADD SWAP1 JUMP JUMPDEST SWAP1 PUSH1 0x1 DUP3 ADD DUP1 SWAP3 GT PUSH2 0x1783 JUMPI JUMP JUMPDEST SWAP2 SWAP1 DUP3 ADD DUP1 SWAP3 GT PUSH2 0x1783 JUMPI JUMP JUMPDEST CALLDATALOAD PUSH2 0x8E8 DUP2 PUSH2 0x1DB JUMP JUMPDEST SWAP1 CALLDATALOAD PUSH1 0x1E NOT DUP3 CALLDATASIZE SUB ADD DUP2 SLT ISZERO PUSH2 0x1EC JUMPI ADD PUSH1 0x20 DUP2 CALLDATALOAD SWAP2 ADD SWAP2 PUSH1 0x1 PUSH1 0x1 PUSH1 0x40 SHL SUB DUP3 GT PUSH2 0x1EC JUMPI DUP2 PUSH1 0x6 SHL CALLDATASIZE SUB DUP4 SGT PUSH2 0x1EC JUMPI JUMP JUMPDEST CALLDATALOAD SWAP1 PUSH2 0x879 DUP3 PUSH2 0x1DB JUMP JUMPDEST SWAP2 SWAP1 DUP1 DUP3 MSTORE PUSH1 0x20 DUP1 SWAP3 ADD SWAP3 SWAP2 PUSH1 0x0 SWAP1 JUMPDEST DUP3 DUP3 LT PUSH2 0x18B9 JUMPI POP POP POP POP SWAP1 JUMP JUMPDEST SWAP1 SWAP2 SWAP3 SWAP4 PUSH1 0x1 SWAP1 DUP6 CALLDATALOAD PUSH2 0x18CB DUP2 PUSH2 0x1DB JUMP JUMPDEST DUP3 DUP1 PUSH1 0xA0 SHL SUB AND DUP2 MSTORE DUP3 DUP7 ADD CALLDATALOAD DUP4 DUP3 ADD MSTORE PUSH1 0x40 DUP1 SWAP2 ADD SWAP6 ADD SWAP3 ADD SWAP1 SWAP3 SWAP2 SWAP3 PUSH2 0x18AB JUMP JUMPDEST CALLDATALOAD SWAP1 PUSH4 0xFFFFFFFF DUP3 AND DUP3 SUB PUSH2 0x1EC JUMPI JUMP JUMPDEST SWAP1 CALLDATALOAD PUSH1 0x1E NOT DUP3 CALLDATASIZE SUB ADD DUP2 SLT ISZERO PUSH2 0x1EC JUMPI ADD PUSH1 0x20 DUP2 CALLDATALOAD SWAP2 ADD SWAP2 PUSH1 0x1 PUSH1 0x1 PUSH1 0x40 SHL SUB DUP3 GT PUSH2 0x1EC JUMPI DUP2 CALLDATASIZE SUB DUP4 SGT PUSH2 0x1EC JUMPI JUMP JUMPDEST SWAP1 DUP1 PUSH1 0x20 SWAP4 SWAP3 DUP2 DUP5 MSTORE DUP5 DUP5 ADD CALLDATACOPY PUSH1 0x0 DUP3 DUP3 ADD DUP5 ADD MSTORE PUSH1 0x1F ADD PUSH1 0x1F NOT AND ADD ADD SWAP1 JUMP JUMPDEST SWAP3 PUSH1 0x40 SWAP4 DUP5 DUP2 ADD SWAP1 PUSH1 0x1 DUP1 PUSH1 0xA0 SHL SUB DUP1 SWAP5 AND DUP2 MSTORE DUP3 PUSH1 0x20 SWAP3 DUP8 DUP5 DUP5 ADD MSTORE MSTORE PUSH1 0x60 DUP1 DUP3 ADD SWAP1 PUSH1 0x60 DUP6 PUSH1 0x5 SHL DUP5 ADD ADD SWAP8 DUP8 PUSH1 0x0 SWAP5 JUMPDEST DUP8 DUP7 LT PUSH2 0x1998 JUMPI POP POP POP POP POP POP POP POP POP POP SWAP1 JUMP JUMPDEST SWAP1 SWAP2 SWAP3 SWAP4 SWAP5 SWAP6 SWAP7 SWAP8 SWAP9 SWAP10 PUSH1 0x5F NOT DUP3 DUP3 SUB ADD DUP7 MSTORE DUP11 CALLDATALOAD PUSH1 0xBE NOT DUP5 CALLDATASIZE SUB ADD DUP2 SLT ISZERO PUSH2 0x1EC JUMPI DUP4 DUP10 SWAP2 ADD SWAP2 PUSH1 0xC0 DUP1 DUP3 ADD PUSH2 0x19CF DUP6 DUP1 PUSH2 0x185C JUMP JUMPDEST SWAP3 DUP5 MSTORE SWAP1 DUP3 SWAP1 MSTORE PUSH1 0xE0 DUP4 ADD SWAP2 PUSH1 0x0 SWAP1 DUP16 JUMPDEST DUP2 DUP4 LT PUSH2 0x1A95 JUMPI POP POP POP POP DUP4 DUP4 SWAP3 PUSH2 0x1A2D PUSH2 0x1A81 SWAP4 PUSH2 0x1A14 PUSH2 0x1A05 DUP8 PUSH1 0x1 SWAP11 ADD PUSH2 0x1890 JUMP JUMPDEST PUSH1 0x1 PUSH1 0x1 PUSH1 0xA0 SHL SUB AND DUP5 DUP9 ADD MSTORE JUMP JUMPDEST PUSH2 0x1A20 DUP12 DUP6 ADD DUP6 PUSH2 0x185C JUMP JUMPDEST SWAP1 DUP5 DUP4 SUB DUP14 DUP7 ADD MSTORE PUSH2 0x189B JUMP JUMPDEST SWAP2 PUSH2 0x1A48 PUSH2 0x1A3C DUP13 DUP4 ADD PUSH2 0x18EE JUMP JUMPDEST PUSH4 0xFFFFFFFF AND DUP4 DUP14 ADD MSTORE JUMP JUMPDEST PUSH2 0x1A64 PUSH1 0x80 PUSH2 0x1A58 DUP2 DUP5 ADD PUSH2 0x18EE JUMP JUMPDEST PUSH4 0xFFFFFFFF AND SWAP1 DUP5 ADD MSTORE JUMP JUMPDEST PUSH2 0x1A73 PUSH1 0xA0 SWAP2 DUP3 DUP2 ADD SWAP1 PUSH2 0x18FF JUMP JUMPDEST SWAP3 SWAP1 SWAP2 DUP2 DUP6 SUB SWAP2 ADD MSTORE PUSH2 0x1930 JUMP JUMPDEST SWAP13 ADD SWAP7 ADD SWAP7 ADD SWAP5 SWAP9 SWAP8 SWAP7 SWAP6 SWAP4 SWAP3 SWAP2 SWAP1 PUSH2 0x1984 JUMP JUMPDEST SWAP1 SWAP3 DUP1 SWAP6 SWAP7 POP SWAP4 SWAP2 SWAP4 CALLDATALOAD PUSH2 0x1AA8 DUP2 PUSH2 0x1DB JUMP JUMPDEST AND DUP2 MSTORE DUP13 DUP5 ADD CALLDATALOAD SWAP1 PUSH1 0x1 PUSH1 0x1 PUSH1 0x60 SHL SUB DUP3 AND DUP1 SWAP3 SUB PUSH2 0x1EC JUMPI DUP10 DUP2 DUP16 SWAP4 PUSH1 0x1 SWAP5 DUP4 SWAP5 ADD MSTORE ADD SWAP5 ADD SWAP3 ADD DUP13 SWAP5 SWAP4 SWAP3 SWAP2 DUP16 PUSH2 0x19E0 JUMP JUMPDEST PUSH1 0x40 MLOAD RETURNDATASIZE PUSH1 0x0 DUP3 RETURNDATACOPY RETURNDATASIZE SWAP1 REVERT JUMPDEST SWAP1 DUP2 PUSH1 0x20 SWAP2 SUB SLT PUSH2 0x1EC JUMPI MLOAD SWAP1 JUMP JUMPDEST PUSH1 0x1 PUSH1 0x1 PUSH1 0xA0 SHL SUB SWAP1 SWAP2 AND DUP2 MSTORE PUSH1 0x40 PUSH1 0x20 DUP3 ADD DUP2 SWAP1 MSTORE PUSH1 0x80 SWAP1 PUSH2 0x1B2D PUSH2 0x1B1D DUP6 DUP1 PUSH2 0x18FF JUMP JUMPDEST PUSH1 0x60 DUP5 DUP8 ADD MSTORE PUSH1 0xA0 DUP7 ADD SWAP2 PUSH2 0x1930 JUMP JUMPDEST SWAP4 PUSH1 0x20 DUP2 ADD CALLDATALOAD PUSH1 0x60 DUP6 ADD MSTORE ADD CALLDATALOAD SWAP2 ADD MSTORE SWAP1 JUMP JUMPDEST SWAP2 SWAP1 SWAP2 PUSH1 0x1 PUSH1 0x1 PUSH1 0x40 SHL SUB DUP1 DUP1 SWAP5 AND SWAP2 AND ADD SWAP2 DUP3 GT PUSH2 0x1783 JUMPI JUMP JUMPDEST PUSH1 0x1 PUSH1 0x1 PUSH1 0xA0 SHL SUB SWAP1 DUP2 AND SWAP1 DUP2 ISZERO PUSH2 0x1BB6 JUMPI PUSH1 0x0 DUP1 MLOAD PUSH1 0x20 PUSH2 0x2C68 DUP4 CODECOPY DUP2 MLOAD SWAP2 MSTORE DUP1 SLOAD PUSH1 0x1 PUSH1 0x1 PUSH1 0xA0 SHL SUB NOT DUP2 AND DUP5 OR SWAP1 SWAP2 SSTORE AND PUSH32 0x8BE0079C531659141344CD1FD0A4F28419497F9722A3DAAFE3B4186F6B6457E0 PUSH1 0x0 DUP1 LOG3 JUMP JUMPDEST PUSH1 0x40 MLOAD PUSH4 0x1E4FBDF7 PUSH1 0xE0 SHL DUP2 MSTORE PUSH1 0x0 PUSH1 0x4 DUP3 ADD MSTORE PUSH1 0x24 SWAP1 REVERT JUMPDEST PUSH1 0x40 PUSH32 0x7D9C9CE14FD1F11F09BF0FACA4D408D3BB5815CEB44368D65B408EBC4401165C SWAP2 PUSH32 0xAF993094C8EAA0ABDFFCC638BC8D87F9C9A50F945DB9B99AB0B6681EAB4F4F03 DUP1 SLOAD SWAP2 PUSH1 0x1 PUSH1 0x1 PUSH1 0x40 SHL SUB DUP1 SWAP2 AND SWAP2 DUP3 PUSH1 0x1 PUSH1 0x1 PUSH1 0x40 SHL SUB NOT DUP6 AND OR SWAP1 SSTORE DUP4 MLOAD SWAP3 AND DUP3 MSTORE PUSH1 0x20 DUP3 ADD MSTORE LOG1 JUMP JUMPDEST PUSH2 0x879 SWAP1 PUSH2 0x1C4C PUSH2 0x24AB JUMP JUMPDEST PUSH2 0x151A PUSH2 0x24AB JUMP JUMPDEST SWAP1 PUSH2 0x1C5E DUP3 PUSH2 0x162E JUMP JUMPDEST PUSH2 0x1C6B PUSH1 0x40 MLOAD SWAP2 DUP3 PUSH2 0x84B JUMP JUMPDEST DUP3 DUP2 MSTORE DUP1 SWAP3 PUSH2 0x1C7C PUSH1 0x1F NOT SWAP2 PUSH2 0x162E JUMP JUMPDEST ADD SWAP1 PUSH1 0x20 CALLDATASIZE SWAP2 ADD CALLDATACOPY JUMP JUMPDEST PUSH1 0x0 DUP1 MLOAD PUSH1 0x20 PUSH2 0x2D28 DUP4 CODECOPY DUP2 MLOAD SWAP2 MSTORE DUP1 SLOAD PUSH2 0x1CA0 DUP2 PUSH2 0x1C54 JUMP JUMPDEST SWAP2 PUSH1 0x0 DUP1 JUMPDEST DUP4 DUP2 LT PUSH2 0x1CB3 JUMPI POP POP POP POP SWAP1 JUMP JUMPDEST DUP3 DUP3 MSTORE PUSH1 0x0 DUP1 MLOAD PUSH1 0x20 PUSH2 0x2CC8 DUP4 CODECOPY DUP2 MLOAD SWAP2 MSTORE DUP2 ADD SLOAD PUSH1 0x1 SWAP2 SWAP1 PUSH1 0x1 PUSH1 0x1 PUSH1 0xA0 SHL SUB AND PUSH2 0x1CDF DUP3 DUP9 PUSH2 0x179E JUMP JUMPDEST MSTORE ADD PUSH2 0x1CA5 JUMP JUMPDEST RETURNDATASIZE ISZERO PUSH2 0x1D11 JUMPI RETURNDATASIZE SWAP1 PUSH2 0x1CF7 DUP3 PUSH2 0x87B JUMP JUMPDEST SWAP2 PUSH2 0x1D05 PUSH1 0x40 MLOAD SWAP4 DUP5 PUSH2 0x84B JUMP JUMPDEST DUP3 MSTORE RETURNDATASIZE PUSH1 0x0 PUSH1 0x20 DUP5 ADD RETURNDATACOPY JUMP JUMPDEST PUSH1 0x60 SWAP1 JUMP JUMPDEST PUSH1 0x3 SLOAD PUSH1 0x40 MLOAD PUSH4 0x49075DA3 PUSH1 0xE0 SHL PUSH1 0x20 DUP3 ADD SWAP1 DUP2 MSTORE ADDRESS PUSH1 0x24 DUP4 ADD MSTORE PUSH1 0x1 PUSH1 0x1 PUSH1 0xA0 SHL SUB SWAP4 DUP5 AND PUSH1 0x44 DUP4 ADD MSTORE SWAP2 SWAP1 SWAP3 AND SWAP2 PUSH2 0x1D5D DUP2 PUSH1 0x64 DUP2 ADD JUMPDEST SUB PUSH1 0x1F NOT DUP2 ADD DUP4 MSTORE DUP3 PUSH2 0x84B JUMP JUMPDEST PUSH1 0x0 SWAP3 DUP4 SWAP3 DUP4 SWAP3 MLOAD SWAP2 GAS STATICCALL PUSH2 0x1D70 PUSH2 0x1CE6 JUMP JUMPDEST SWAP1 ISZERO PUSH2 0x1D95 JUMPI PUSH1 0x20 DUP2 DUP1 MLOAD DUP2 ADD SUB SLT PUSH2 0x142C JUMPI PUSH1 0x20 ADD MLOAD SWAP1 PUSH1 0x2 DUP3 LT ISZERO PUSH2 0x728 JUMPI POP SWAP1 JUMP JUMPDEST PUSH1 0x40 MLOAD PUSH4 0x3D635FE9 PUSH1 0xE1 SHL DUP2 MSTORE PUSH1 0x4 SWAP1 REVERT JUMPDEST PUSH1 0x20 SWAP1 DUP2 DUP2 DUP5 SUB SLT PUSH2 0x1EC JUMPI DUP1 MLOAD SWAP1 PUSH1 0x1 PUSH1 0x1 PUSH1 0x40 SHL SUB DUP3 GT PUSH2 0x1EC JUMPI ADD SWAP2 DUP1 PUSH1 0x1F DUP5 ADD SLT ISZERO PUSH2 0x1EC JUMPI DUP3 MLOAD PUSH2 0x1DDC DUP2 PUSH2 0x162E JUMP JUMPDEST SWAP4 PUSH2 0x1DEA PUSH1 0x40 MLOAD SWAP6 DUP7 PUSH2 0x84B JUMP JUMPDEST DUP2 DUP6 MSTORE DUP4 DUP1 DUP7 ADD SWAP3 PUSH1 0x5 SHL DUP3 ADD ADD SWAP3 DUP4 GT PUSH2 0x1EC JUMPI DUP4 ADD SWAP1 JUMPDEST DUP3 DUP3 LT PUSH2 0x1E11 JUMPI POP POP POP POP SWAP1 JUMP JUMPDEST DUP2 MLOAD DUP2 MSTORE SWAP1 DUP4 ADD SWAP1 DUP4 ADD PUSH2 0x1E03 JUMP JUMPDEST PUSH1 0x1 PUSH1 0x1 PUSH1 0xA0 SHL SUB SWAP2 DUP3 AND DUP2 MSTORE PUSH1 0x40 PUSH1 0x20 DUP1 DUP4 ADD DUP3 SWAP1 MSTORE DUP5 MLOAD SWAP2 DUP4 ADD DUP3 SWAP1 MSTORE PUSH1 0x60 SWAP1 SWAP3 ADD SWAP4 DUP3 ADD SWAP2 PUSH1 0x0 JUMPDEST DUP3 DUP2 LT PUSH2 0x1E5A JUMPI POP POP POP POP POP SWAP1 JUMP JUMPDEST DUP4 MLOAD DUP6 AND DUP7 MSTORE SWAP5 DUP2 ADD SWAP5 SWAP3 DUP2 ADD SWAP3 PUSH1 0x1 ADD PUSH2 0x1E4B JUMP JUMPDEST PUSH1 0x1 DUP1 SLOAD PUSH1 0x40 MLOAD PUSH4 0x90041347 PUSH1 0xE0 SHL DUP2 MSTORE SWAP4 SWAP2 SWAP3 PUSH1 0x0 SWAP3 DUP6 SWAP3 PUSH1 0x1 PUSH1 0x1 PUSH1 0xA0 SHL SUB AND SWAP2 DUP4 SWAP2 DUP3 SWAP2 PUSH2 0x1EA5 SWAP2 SWAP1 PUSH1 0x4 DUP5 ADD PUSH2 0x1E20 JUMP JUMPDEST SUB SWAP2 GAS STATICCALL SWAP2 DUP3 ISZERO PUSH2 0xD8D JUMPI PUSH1 0x0 SWAP3 PUSH2 0x1F00 JUMPI JUMPDEST POP DUP1 PUSH1 0x0 SWAP3 PUSH1 0x0 SWAP3 JUMPDEST PUSH2 0x1ECC JUMPI JUMPDEST POP POP POP SWAP1 JUMP JUMPDEST DUP1 SWAP4 SWAP2 SWAP3 SWAP4 MLOAD DUP5 LT ISZERO PUSH2 0x1EF8 JUMPI PUSH2 0x1EE3 DUP5 DUP3 PUSH2 0x179E JUMP JUMPDEST MLOAD DUP3 ADD DUP1 SWAP3 GT PUSH2 0x1783 JUMPI DUP3 DUP1 SWAP3 SWAP5 ADD SWAP3 PUSH2 0x1EC1 JUMP JUMPDEST DUP2 SWAP4 POP PUSH2 0x1EC6 JUMP JUMPDEST PUSH2 0x1F1E SWAP2 SWAP3 POP RETURNDATASIZE DUP1 PUSH1 0x0 DUP4 RETURNDATACOPY PUSH2 0x1F16 DUP2 DUP4 PUSH2 0x84B JUMP JUMPDEST DUP2 ADD SWAP1 PUSH2 0x1DA7 JUMP JUMPDEST SWAP1 CODESIZE PUSH2 0x1EB8 JUMP JUMPDEST SWAP1 PUSH1 0x60 SWAP2 PUSH2 0x1F3E PUSH1 0x20 PUSH2 0x1F37 DUP4 PUSH2 0x21ED JUMP JUMPDEST ADD MLOAD ISZERO ISZERO SWAP1 JUMP JUMPDEST PUSH2 0x1F46 JUMPI JUMPDEST POP JUMP JUMPDEST SWAP2 POP PUSH1 0x0 DUP1 MLOAD PUSH1 0x20 PUSH2 0x2D28 DUP4 CODECOPY DUP2 MLOAD SWAP2 MSTORE SLOAD PUSH2 0x1F61 DUP2 PUSH2 0x1C54 JUMP JUMPDEST SWAP3 PUSH1 0x0 JUMPDEST DUP3 DUP2 LT PUSH2 0x2062 JUMPI POP PUSH1 0x1 DUP1 SLOAD PUSH2 0x1FAB SWAP4 SWAP3 PUSH1 0x0 SWAP2 DUP8 SWAP2 SWAP1 PUSH2 0x1F8E SWAP1 PUSH1 0x1 PUSH1 0x1 PUSH1 0xA0 SHL SUB AND PUSH2 0x527 JUMP JUMPDEST SWAP1 PUSH1 0x40 MLOAD DUP1 SWAP8 DUP2 SWAP5 DUP3 SWAP4 PUSH4 0x90041347 PUSH1 0xE0 SHL DUP5 MSTORE PUSH1 0x4 DUP5 ADD PUSH2 0x1E20 JUMP JUMPDEST SUB SWAP2 GAS STATICCALL SWAP3 DUP4 ISZERO PUSH2 0xD8D JUMPI PUSH1 0x0 SWAP4 PUSH2 0x2045 JUMPI JUMPDEST POP PUSH1 0x0 SWAP3 PUSH2 0x1FCB DUP4 PUSH2 0x1C54 JUMP JUMPDEST SWAP6 DUP5 JUMPDEST DUP5 DUP2 LT PUSH2 0x1FE6 JUMPI POP POP POP POP DUP2 LT PUSH2 0x1FE2 JUMPI POP JUMP JUMPDEST DUP3 MSTORE JUMP JUMPDEST DUP1 PUSH2 0x1FF2 DUP6 SWAP3 DUP6 PUSH2 0x179E JUMP JUMPDEST MLOAD PUSH2 0x1FFE JUMPI JUMPDEST ADD PUSH2 0x1FCE JUMP JUMPDEST PUSH2 0x2040 PUSH2 0x201E PUSH2 0x527 PUSH2 0x2011 DUP5 DUP8 PUSH2 0x179E JUMP JUMPDEST MLOAD PUSH1 0x1 PUSH1 0x1 PUSH1 0xA0 SHL SUB AND SWAP1 JUMP JUMPDEST PUSH2 0x2031 PUSH2 0x202A DUP11 PUSH2 0x1774 JUMP JUMPDEST SWAP10 DUP13 PUSH2 0x179E JUMP JUMPDEST PUSH1 0x1 PUSH1 0x1 PUSH1 0xA0 SHL SUB SWAP1 SWAP2 AND SWAP1 MSTORE JUMP JUMPDEST PUSH2 0x1FF8 JUMP JUMPDEST PUSH2 0x205B SWAP2 SWAP4 POP RETURNDATASIZE DUP1 PUSH1 0x0 DUP4 RETURNDATACOPY PUSH2 0x1F16 DUP2 DUP4 PUSH2 0x84B JUMP JUMPDEST SWAP2 CODESIZE PUSH2 0x1FBE JUMP JUMPDEST DUP1 PUSH2 0x2084 PUSH2 0x207A PUSH2 0x527 PUSH2 0x527 PUSH2 0x527 PUSH1 0x1 SWAP7 PUSH2 0x258F JUMP JUMPDEST PUSH2 0x2031 DUP4 DUP10 PUSH2 0x179E JUMP JUMPDEST ADD PUSH2 0x1F65 JUMP JUMPDEST PUSH1 0x0 NOT DUP2 ADD SWAP2 SWAP1 DUP3 GT PUSH2 0x1783 JUMPI JUMP JUMPDEST SWAP2 SWAP1 DUP3 SUB SWAP2 DUP3 GT PUSH2 0x1783 JUMPI JUMP JUMPDEST DUP1 MLOAD DUP1 ISZERO PUSH2 0x21B0 JUMPI PUSH2 0x20B7 SWAP1 PUSH2 0x1C54 JUMP JUMPDEST SWAP1 PUSH1 0x0 JUMPDEST DUP2 MLOAD DUP2 LT ISZERO PUSH2 0x20E7 JUMPI DUP1 PUSH2 0x20E1 PUSH2 0x20D7 PUSH2 0x2011 PUSH1 0x1 SWAP5 DUP7 PUSH2 0x179E JUMP JUMPDEST PUSH2 0x2031 DUP4 DUP8 PUSH2 0x179E JUMP JUMPDEST ADD PUSH2 0x20BB JUMP JUMPDEST POP POP PUSH1 0x0 SWAP1 JUMPDEST PUSH2 0x20F7 DUP2 MLOAD PUSH2 0x208A JUMP JUMPDEST DUP3 LT ISZERO PUSH2 0x21AB JUMPI PUSH1 0x0 JUMPDEST PUSH2 0x2114 PUSH2 0x210F DUP5 DUP5 MLOAD PUSH2 0x2099 JUMP JUMPDEST PUSH2 0x208A JUMP JUMPDEST DUP2 LT ISZERO PUSH2 0x21A0 JUMPI DUP1 PUSH2 0x212E PUSH2 0x527 PUSH2 0x2011 PUSH1 0x1 SWAP5 DUP7 PUSH2 0x179E JUMP JUMPDEST PUSH2 0x2149 PUSH2 0x527 PUSH2 0x527 PUSH2 0x2011 PUSH2 0x2143 DUP7 PUSH2 0x1837 JUMP JUMPDEST DUP9 PUSH2 0x179E JUMP JUMPDEST SWAP1 DUP4 DUP1 PUSH1 0xA0 SHL SUB AND GT PUSH2 0x215D JUMPI JUMPDEST ADD PUSH2 0x2101 JUMP JUMPDEST PUSH2 0x219B PUSH2 0x2175 PUSH2 0x2011 PUSH2 0x216F DUP5 PUSH2 0x1837 JUMP JUMPDEST DUP7 PUSH2 0x179E JUMP JUMPDEST PUSH2 0x2191 PUSH2 0x2185 PUSH2 0x2011 DUP6 DUP9 PUSH2 0x179E JUMP JUMPDEST PUSH2 0x2031 PUSH2 0x2143 DUP7 PUSH2 0x1837 JUMP JUMPDEST PUSH2 0x2031 DUP4 DUP7 PUSH2 0x179E JUMP JUMPDEST PUSH2 0x2157 JUMP JUMPDEST POP SWAP1 PUSH1 0x1 ADD SWAP1 PUSH2 0x20ED JUMP JUMPDEST SWAP1 POP SWAP1 JUMP JUMPDEST POP SWAP1 JUMP JUMPDEST PUSH1 0x0 DUP1 MLOAD PUSH1 0x20 PUSH2 0x2C68 DUP4 CODECOPY DUP2 MLOAD SWAP2 MSTORE SLOAD PUSH1 0x1 PUSH1 0x1 PUSH1 0xA0 SHL SUB AND CALLER SUB PUSH2 0x21D5 JUMPI JUMP JUMPDEST PUSH1 0x40 MLOAD PUSH4 0x118CDAA7 PUSH1 0xE0 SHL DUP2 MSTORE CALLER PUSH1 0x4 DUP3 ADD MSTORE PUSH1 0x24 SWAP1 REVERT JUMPDEST PUSH2 0x21F5 PUSH2 0x17B7 JUMP JUMPDEST POP PUSH1 0x1 PUSH1 0x1 PUSH1 0xA0 SHL SUB DUP2 AND PUSH1 0x0 SWAP1 DUP2 MSTORE PUSH32 0xAF993094C8EAA0ABDFFCC638BC8D87F9C9A50F945DB9B99AB0B6681EAB4F4F00 PUSH1 0x20 MSTORE PUSH1 0x40 SWAP1 KECCAK256 SLOAD PUSH1 0x1 PUSH1 0x1 PUSH1 0x40 SHL SUB AND SWAP1 PUSH2 0x2241 SWAP1 PUSH2 0x1D16 JUMP JUMPDEST PUSH1 0x2 DUP2 LT ISZERO PUSH2 0x723 JUMPI PUSH1 0x1 SWAP1 PUSH1 0x40 MLOAD SWAP3 PUSH2 0x225A DUP5 PUSH2 0x815 JUMP JUMPDEST DUP4 MSTORE EQ PUSH1 0x20 DUP3 ADD MSTORE SWAP1 JUMP JUMPDEST DUP1 ISZERO PUSH2 0x2307 JUMPI PUSH1 0x0 DUP1 MLOAD PUSH1 0x20 PUSH2 0x2C88 DUP4 CODECOPY DUP2 MLOAD SWAP2 MSTORE SLOAD DUP1 PUSH2 0x2293 JUMPI POP PUSH1 0x0 DUP1 MLOAD PUSH1 0x20 PUSH2 0x2C88 DUP4 CODECOPY DUP2 MLOAD SWAP2 MSTORE SSTORE JUMP JUMPDEST PUSH1 0x1 DUP2 ADD DUP1 SWAP2 GT PUSH2 0x1783 JUMPI DUP2 SUB PUSH2 0x22B6 JUMPI PUSH1 0x0 DUP1 MLOAD PUSH1 0x20 PUSH2 0x2C88 DUP4 CODECOPY DUP2 MLOAD SWAP2 MSTORE SSTORE JUMP JUMPDEST PUSH1 0x40 MLOAD PUSH3 0x461BCD PUSH1 0xE5 SHL DUP2 MSTORE PUSH1 0x20 PUSH1 0x4 DUP3 ADD MSTORE PUSH1 0x24 DUP1 DUP3 ADD MSTORE PUSH32 0x6C617465737420726577617264656420657261206D75737420626520696E2061 PUSH1 0x44 DUP3 ADD MSTORE PUSH4 0x20726F77 PUSH1 0xE0 SHL PUSH1 0x64 DUP3 ADD MSTORE PUSH1 0x84 SWAP1 REVERT JUMPDEST PUSH1 0x40 MLOAD PUSH3 0x461BCD PUSH1 0xE5 SHL DUP2 MSTORE PUSH1 0x20 PUSH1 0x4 DUP3 ADD MSTORE PUSH1 0x1B PUSH1 0x24 DUP3 ADD MSTORE PUSH32 0x72657761726420657261206D757374206D6F7265207468616E20300000000000 PUSH1 0x44 DUP3 ADD MSTORE PUSH1 0x64 SWAP1 REVERT JUMPDEST PUSH1 0x40 MLOAD PUSH4 0x6EB1769F PUSH1 0xE1 SHL DUP2 MSTORE ADDRESS PUSH1 0x4 DUP3 ADD MSTORE PUSH1 0x1 PUSH1 0x1 PUSH1 0xA0 SHL SUB DUP4 DUP2 AND PUSH1 0x24 DUP4 ADD MSTORE SWAP3 SWAP4 SWAP1 SWAP3 PUSH1 0x20 SWAP2 DUP4 DUP3 AND SWAP1 DUP4 DUP7 PUSH1 0x44 DUP2 DUP6 GAS STATICCALL SWAP6 DUP7 ISZERO PUSH2 0xD8D JUMPI PUSH1 0x0 SWAP7 PUSH2 0x247C JUMPI JUMPDEST POP DUP6 ADD DUP1 SWAP6 GT PUSH2 0x1783 JUMPI PUSH1 0x0 DUP1 PUSH1 0x40 MLOAD SWAP7 DUP6 DUP9 ADD SWAP1 PUSH4 0x95EA7B3 PUSH1 0xE0 SHL SWAP6 DUP7 DUP4 MSTORE DUP11 AND PUSH1 0x24 DUP11 ADD MSTORE PUSH1 0x44 DUP10 ADD MSTORE PUSH1 0x44 DUP9 MSTORE PUSH2 0x23CB DUP9 PUSH2 0x830 JUMP JUMPDEST DUP8 MLOAD SWAP1 DUP3 DUP6 GAS CALL SWAP1 PUSH2 0x23DB PUSH2 0x1CE6 JUMP JUMPDEST DUP3 PUSH2 0x2449 JUMPI JUMPDEST POP DUP2 PUSH2 0x243E JUMPI JUMPDEST POP ISZERO PUSH2 0x23F6 JUMPI JUMPDEST POP POP POP POP POP JUMP JUMPDEST PUSH1 0x40 MLOAD SWAP2 DUP3 ADD MSTORE PUSH1 0x1 PUSH1 0x1 PUSH1 0xA0 SHL SUB SWAP1 SWAP4 AND PUSH1 0x24 DUP5 ADD MSTORE PUSH1 0x0 PUSH1 0x44 DUP5 ADD MSTORE PUSH2 0x2434 SWAP3 PUSH2 0x242F SWAP1 PUSH2 0x2429 DUP2 PUSH1 0x64 DUP2 ADD PUSH2 0x1D4F JUMP JUMPDEST DUP3 PUSH2 0x2B92 JUMP JUMPDEST PUSH2 0x2B92 JUMP JUMPDEST CODESIZE DUP1 DUP1 DUP1 DUP1 PUSH2 0x23EF JUMP JUMPDEST SWAP1 POP EXTCODESIZE ISZERO ISZERO CODESIZE PUSH2 0x23E8 JUMP JUMPDEST DUP1 SWAP2 SWAP3 POP MLOAD SWAP1 DUP5 DUP3 ISZERO SWAP3 DUP4 ISZERO PUSH2 0x2464 JUMPI JUMPDEST POP POP POP SWAP1 CODESIZE PUSH2 0x23E1 JUMP JUMPDEST PUSH2 0x2474 SWAP4 POP DUP3 ADD DUP2 ADD SWAP2 ADD PUSH2 0x2B7D JUMP JUMPDEST CODESIZE DUP5 DUP2 PUSH2 0x245A JUMP JUMPDEST SWAP1 SWAP6 POP DUP4 DUP2 DUP2 RETURNDATASIZE DUP4 GT PUSH2 0x24A4 JUMPI JUMPDEST PUSH2 0x2494 DUP2 DUP4 PUSH2 0x84B JUMP JUMPDEST DUP2 ADD SUB SLT PUSH2 0x1EC JUMPI MLOAD SWAP5 CODESIZE PUSH2 0x2391 JUMP JUMPDEST POP RETURNDATASIZE PUSH2 0x248A JUMP JUMPDEST PUSH1 0xFF PUSH1 0x0 DUP1 MLOAD PUSH1 0x20 PUSH2 0x2D08 DUP4 CODECOPY DUP2 MLOAD SWAP2 MSTORE SLOAD PUSH1 0x40 SHR AND ISZERO PUSH2 0x24C8 JUMPI JUMP JUMPDEST PUSH1 0x40 MLOAD PUSH4 0x1AFCD79F PUSH1 0xE3 SHL DUP2 MSTORE PUSH1 0x4 SWAP1 REVERT JUMPDEST PUSH1 0x0 DUP1 MLOAD PUSH1 0x20 PUSH2 0x2D28 DUP4 CODECOPY DUP2 MLOAD SWAP2 MSTORE DUP1 SLOAD DUP3 LT ISZERO PUSH2 0x17B2 JUMPI PUSH1 0x0 MSTORE PUSH1 0x0 DUP1 MLOAD PUSH1 0x20 PUSH2 0x2CC8 DUP4 CODECOPY DUP2 MLOAD SWAP2 MSTORE ADD SWAP1 PUSH1 0x0 SWAP1 JUMP JUMPDEST PUSH1 0x0 DUP1 MLOAD PUSH1 0x20 PUSH2 0x2CA8 DUP4 CODECOPY DUP2 MLOAD SWAP2 MSTORE DUP1 SLOAD DUP3 LT ISZERO PUSH2 0x17B2 JUMPI PUSH1 0x0 MSTORE PUSH32 0x6D5632CD9A7B6DFEE21FDCF6C7874238D88C254239C9613977670FB28D0DF36B ADD SWAP1 PUSH1 0x0 SWAP1 JUMP JUMPDEST PUSH1 0x0 DUP1 MLOAD PUSH1 0x20 PUSH2 0x2CA8 DUP4 CODECOPY DUP2 MLOAD SWAP2 MSTORE DUP1 SLOAD DUP3 LT ISZERO PUSH2 0x17B2 JUMPI PUSH1 0x0 MSTORE PUSH32 0x6D5632CD9A7B6DFEE21FDCF6C7874238D88C254239C9613977670FB28D0DF36B ADD SLOAD SWAP1 JUMP JUMPDEST PUSH1 0x0 DUP1 MLOAD PUSH1 0x20 PUSH2 0x2D28 DUP4 CODECOPY DUP2 MLOAD SWAP2 MSTORE DUP1 SLOAD DUP3 LT ISZERO PUSH2 0x17B2 JUMPI PUSH1 0x0 MSTORE PUSH1 0x0 DUP1 MLOAD PUSH1 0x20 PUSH2 0x2CC8 DUP4 CODECOPY DUP2 MLOAD SWAP2 MSTORE ADD SLOAD SWAP1 JUMP JUMPDEST PUSH1 0x0 DUP1 MLOAD PUSH1 0x20 PUSH2 0x2D28 DUP4 CODECOPY DUP2 MLOAD SWAP2 MSTORE DUP1 SLOAD SWAP1 DUP2 ISZERO PUSH2 0x2610 JUMPI PUSH1 0x0 NOT DUP3 ADD SWAP2 DUP1 DUP4 LT ISZERO PUSH2 0x17B2 JUMPI PUSH32 0xF7D7E697360407AF72F21B9DD15AD33DCCEC16D662D65C043A3B77C0C9D1B269 PUSH1 0x0 SWAP2 DUP4 DUP4 MSTORE ADD SSTORE SSTORE JUMP JUMPDEST PUSH4 0x4E487B71 PUSH1 0xE0 SHL PUSH1 0x0 MSTORE PUSH1 0x31 PUSH1 0x4 MSTORE PUSH1 0x24 PUSH1 0x0 REVERT JUMPDEST PUSH1 0x0 DUP1 MLOAD PUSH1 0x20 PUSH2 0x2CA8 DUP4 CODECOPY DUP2 MLOAD SWAP2 MSTORE DUP1 SLOAD SWAP1 DUP2 ISZERO PUSH2 0x2610 JUMPI PUSH1 0x0 NOT DUP3 ADD SWAP2 DUP1 DUP4 LT ISZERO PUSH2 0x17B2 JUMPI PUSH32 0x6D5632CD9A7B6DFEE21FDCF6C7874238D88C254239C9613977670FB28D0DF36A PUSH1 0x0 SWAP2 DUP4 DUP4 MSTORE ADD SSTORE SSTORE JUMP JUMPDEST PUSH1 0x0 DUP2 DUP2 MSTORE PUSH32 0xAF993094C8EAA0ABDFFCC638BC8D87F9C9A50F945DB9B99AB0B6681EAB4F4F07 PUSH1 0x20 MSTORE PUSH1 0x40 SWAP1 KECCAK256 SLOAD DUP1 ISZERO PUSH2 0x276E JUMPI PUSH1 0x0 NOT SWAP2 DUP2 DUP4 ADD SWAP2 DUP1 DUP4 GT PUSH2 0x1783 JUMPI PUSH1 0x0 DUP1 MLOAD PUSH1 0x20 PUSH2 0x2D28 DUP4 CODECOPY DUP2 MLOAD SWAP2 MSTORE SLOAD SWAP4 DUP5 ADD SWAP4 DUP5 GT PUSH2 0x1783 JUMPI DUP4 DUP4 PUSH1 0x0 SWAP6 PUSH2 0x271E SWAP6 SUB PUSH2 0x2724 JUMPI JUMPDEST POP POP POP PUSH2 0x26EF PUSH2 0x25BE JUMP JUMPDEST PUSH1 0x0 MSTORE PUSH32 0xAF993094C8EAA0ABDFFCC638BC8D87F9C9A50F945DB9B99AB0B6681EAB4F4F07 PUSH1 0x20 MSTORE PUSH1 0x40 PUSH1 0x0 KECCAK256 SWAP1 JUMP JUMPDEST SSTORE PUSH1 0x1 SWAP1 JUMP JUMPDEST PUSH2 0x26EF PUSH2 0x274C SWAP2 PUSH2 0x2744 PUSH2 0x273A PUSH2 0x2765 SWAP6 PUSH2 0x24DA JUMP JUMPDEST SWAP1 SLOAD SWAP1 PUSH1 0x3 SHL SHR SWAP1 JUMP JUMPDEST SWAP3 DUP4 SWAP2 PUSH2 0x24DA JUMP JUMPDEST SWAP1 SWAP2 SWAP1 DUP3 SLOAD SWAP1 PUSH1 0x3 SHL SWAP2 DUP3 SHL SWAP2 PUSH1 0x0 NOT SWAP1 SHL NOT AND OR SWAP1 SSTORE JUMP JUMPDEST SSTORE CODESIZE DUP1 DUP1 PUSH2 0x26E4 JUMP JUMPDEST POP POP PUSH1 0x0 SWAP1 JUMP JUMPDEST PUSH1 0x0 DUP2 DUP2 MSTORE PUSH32 0xAF993094C8EAA0ABDFFCC638BC8D87F9C9A50F945DB9B99AB0B6681EAB4F4F02 PUSH1 0x20 MSTORE PUSH1 0x40 SWAP1 KECCAK256 SLOAD DUP1 ISZERO PUSH2 0x276E JUMPI PUSH1 0x0 NOT SWAP2 DUP2 DUP4 ADD SWAP2 DUP1 DUP4 GT PUSH2 0x1783 JUMPI PUSH1 0x0 DUP1 MLOAD PUSH1 0x20 PUSH2 0x2CA8 DUP4 CODECOPY DUP2 MLOAD SWAP2 MSTORE SLOAD SWAP4 DUP5 ADD SWAP4 DUP5 GT PUSH2 0x1783 JUMPI DUP4 DUP4 PUSH1 0x0 SWAP6 PUSH2 0x271E SWAP6 SUB PUSH2 0x281B JUMPI JUMPDEST POP POP POP PUSH2 0x27EC PUSH2 0x2626 JUMP JUMPDEST PUSH1 0x0 MSTORE PUSH32 0xAF993094C8EAA0ABDFFCC638BC8D87F9C9A50F945DB9B99AB0B6681EAB4F4F02 PUSH1 0x20 MSTORE PUSH1 0x40 PUSH1 0x0 KECCAK256 SWAP1 JUMP JUMPDEST PUSH2 0x27EC PUSH2 0x274C SWAP2 PUSH2 0x2831 PUSH2 0x273A PUSH2 0x2839 SWAP6 PUSH2 0x250B JUMP JUMPDEST SWAP3 DUP4 SWAP2 PUSH2 0x250B JUMP JUMPDEST SSTORE CODESIZE DUP1 DUP1 PUSH2 0x27E1 JUMP JUMPDEST DUP1 PUSH1 0x0 MSTORE PUSH32 0xAF993094C8EAA0ABDFFCC638BC8D87F9C9A50F945DB9B99AB0B6681EAB4F4F07 DUP1 PUSH1 0x20 MSTORE PUSH1 0x40 PUSH1 0x0 KECCAK256 SLOAD ISZERO PUSH1 0x0 EQ PUSH2 0x276E JUMPI PUSH1 0x0 DUP1 MLOAD PUSH1 0x20 PUSH2 0x2D28 DUP4 CODECOPY DUP2 MLOAD SWAP2 MSTORE DUP1 SLOAD PUSH1 0x1 PUSH1 0x40 SHL DUP2 LT ISZERO PUSH2 0x810 JUMPI PUSH1 0x1 DUP2 ADD DUP1 DUP4 SSTORE DUP2 LT ISZERO PUSH2 0x17B2 JUMPI DUP4 SWAP1 PUSH1 0x0 DUP1 MLOAD PUSH1 0x20 PUSH2 0x2CC8 DUP4 CODECOPY DUP2 MLOAD SWAP2 MSTORE ADD SSTORE SLOAD SWAP2 PUSH1 0x0 MSTORE PUSH1 0x20 MSTORE PUSH1 0x40 PUSH1 0x0 KECCAK256 SSTORE PUSH1 0x1 SWAP1 JUMP JUMPDEST DUP1 PUSH1 0x0 MSTORE PUSH32 0xAF993094C8EAA0ABDFFCC638BC8D87F9C9A50F945DB9B99AB0B6681EAB4F4F02 DUP1 PUSH1 0x20 MSTORE PUSH1 0x40 PUSH1 0x0 KECCAK256 SLOAD ISZERO PUSH1 0x0 EQ PUSH2 0x276E JUMPI PUSH1 0x0 DUP1 MLOAD PUSH1 0x20 PUSH2 0x2CA8 DUP4 CODECOPY DUP2 MLOAD SWAP2 MSTORE DUP1 SLOAD PUSH1 0x1 PUSH1 0x40 SHL DUP2 LT ISZERO PUSH2 0x810 JUMPI PUSH1 0x1 DUP2 ADD DUP1 DUP4 SSTORE DUP2 LT ISZERO PUSH2 0x17B2 JUMPI DUP4 SWAP1 PUSH32 0x6D5632CD9A7B6DFEE21FDCF6C7874238D88C254239C9613977670FB28D0DF36B ADD SSTORE SLOAD SWAP2 PUSH1 0x0 MSTORE PUSH1 0x20 MSTORE PUSH1 0x40 PUSH1 0x0 KECCAK256 SSTORE PUSH1 0x1 SWAP1 JUMP JUMPDEST SWAP1 DUP2 EXTCODESIZE ISZERO PUSH2 0x29E7 JUMPI PUSH1 0x0 DUP1 MLOAD PUSH1 0x20 PUSH2 0x2CE8 DUP4 CODECOPY DUP2 MLOAD SWAP2 MSTORE DUP1 SLOAD PUSH1 0x1 PUSH1 0x1 PUSH1 0xA0 SHL SUB NOT AND PUSH1 0x1 PUSH1 0x1 PUSH1 0xA0 SHL SUB DUP5 AND SWAP1 DUP2 OR SWAP1 SWAP2 SSTORE PUSH32 0xBC7CD75A20EE27FD9ADEBAB32041F755214DBC6BFFA90CC0225B39DA2E5C2D3B PUSH1 0x0 DUP1 LOG2 DUP1 MLOAD ISZERO PUSH2 0x29CC JUMPI PUSH2 0x1F43 SWAP2 PUSH2 0x2ADB JUMP JUMPDEST POP POP CALLVALUE PUSH2 0x29D5 JUMPI JUMP JUMPDEST PUSH1 0x40 MLOAD PUSH4 0xB398979F PUSH1 0xE0 SHL DUP2 MSTORE PUSH1 0x4 SWAP1 REVERT JUMPDEST PUSH1 0x40 MLOAD PUSH4 0x4C9C8CE3 PUSH1 0xE0 SHL DUP2 MSTORE PUSH1 0x1 PUSH1 0x1 PUSH1 0xA0 SHL SUB DUP4 AND PUSH1 0x4 DUP3 ADD MSTORE PUSH1 0x24 SWAP1 REVERT JUMPDEST DUP2 MLOAD SWAP2 SWAP1 PUSH1 0x41 DUP4 SUB PUSH2 0x2A39 JUMPI PUSH2 0x2A32 SWAP3 POP PUSH1 0x20 DUP3 ADD MLOAD SWAP1 PUSH1 0x60 PUSH1 0x40 DUP5 ADD MLOAD SWAP4 ADD MLOAD PUSH1 0x0 BYTE SWAP1 PUSH2 0x2AF9 JUMP JUMPDEST SWAP2 SWAP3 SWAP1 SWAP2 SWAP1 JUMP JUMPDEST POP POP PUSH1 0x0 SWAP2 PUSH1 0x2 SWAP2 SWAP1 JUMP JUMPDEST PUSH1 0x4 GT ISZERO PUSH2 0x723 JUMPI JUMP JUMPDEST PUSH2 0x2A57 DUP2 PUSH2 0x2A44 JUMP JUMPDEST DUP1 PUSH2 0x2A60 JUMPI POP POP JUMP JUMPDEST PUSH2 0x2A69 DUP2 PUSH2 0x2A44 JUMP JUMPDEST PUSH1 0x1 DUP2 SUB PUSH2 0x2A83 JUMPI PUSH1 0x40 MLOAD PUSH4 0xF645EEDF PUSH1 0xE0 SHL DUP2 MSTORE PUSH1 0x4 SWAP1 REVERT JUMPDEST PUSH2 0x2A8C DUP2 PUSH2 0x2A44 JUMP JUMPDEST PUSH1 0x2 DUP2 SUB PUSH2 0x2AAD JUMPI PUSH1 0x40 MLOAD PUSH4 0xFCE698F7 PUSH1 0xE0 SHL DUP2 MSTORE PUSH1 0x4 DUP2 ADD DUP4 SWAP1 MSTORE PUSH1 0x24 SWAP1 REVERT JUMPDEST DUP1 PUSH2 0x2AB9 PUSH1 0x3 SWAP3 PUSH2 0x2A44 JUMP JUMPDEST EQ PUSH2 0x2AC1 JUMPI POP JUMP JUMPDEST PUSH1 0x40 MLOAD PUSH4 0x35E2F383 PUSH1 0xE2 SHL DUP2 MSTORE PUSH1 0x4 DUP2 ADD SWAP2 SWAP1 SWAP2 MSTORE PUSH1 0x24 SWAP1 REVERT JUMPDEST PUSH1 0x0 DUP1 PUSH2 0x8E8 SWAP4 PUSH1 0x20 DUP2 MLOAD SWAP2 ADD DUP5 GAS DELEGATECALL PUSH2 0x2AF3 PUSH2 0x1CE6 JUMP JUMPDEST SWAP2 PUSH2 0x2C04 JUMP JUMPDEST SWAP2 SWAP1 PUSH32 0x7FFFFFFFFFFFFFFFFFFFFFFFFFFFFFFF5D576E7357A4501DDFE92F46681B20A0 DUP5 GT PUSH2 0x2B71 JUMPI SWAP3 PUSH1 0x20 SWAP3 SWAP2 PUSH1 0xFF PUSH1 0x80 SWAP6 PUSH1 0x40 MLOAD SWAP5 DUP6 MSTORE AND DUP5 DUP5 ADD MSTORE PUSH1 0x40 DUP4 ADD MSTORE PUSH1 0x60 DUP3 ADD MSTORE PUSH1 0x0 SWAP3 DUP4 SWAP2 DUP3 DUP1 MSTORE PUSH1 0x1 GAS STATICCALL ISZERO PUSH2 0xD8D JUMPI DUP1 MLOAD PUSH1 0x1 PUSH1 0x1 PUSH1 0xA0 SHL SUB DUP2 AND ISZERO PUSH2 0x2B68 JUMPI SWAP2 DUP2 SWAP1 JUMP JUMPDEST POP DUP1 SWAP2 PUSH1 0x1 SWAP2 SWAP1 JUMP JUMPDEST POP POP POP PUSH1 0x0 SWAP2 PUSH1 0x3 SWAP2 SWAP1 JUMP JUMPDEST SWAP1 DUP2 PUSH1 0x20 SWAP2 SUB SLT PUSH2 0x1EC JUMPI MLOAD PUSH2 0x8E8 DUP2 PUSH2 0x72B JUMP JUMPDEST PUSH1 0x0 DUP1 PUSH2 0x2BBB SWAP3 PUSH1 0x1 DUP1 PUSH1 0xA0 SHL SUB AND SWAP4 PUSH1 0x20 DUP2 MLOAD SWAP2 ADD DUP3 DUP7 GAS CALL PUSH2 0x2BB4 PUSH2 0x1CE6 JUMP JUMPDEST SWAP1 DUP4 PUSH2 0x2C04 JUMP JUMPDEST DUP1 MLOAD SWAP1 DUP2 ISZERO ISZERO SWAP2 DUP3 PUSH2 0x2BE9 JUMPI JUMPDEST POP POP PUSH2 0x2BD1 JUMPI POP JUMP JUMPDEST PUSH1 0x24 SWAP1 PUSH1 0x40 MLOAD SWAP1 PUSH4 0x5274AFE7 PUSH1 0xE0 SHL DUP3 MSTORE PUSH1 0x4 DUP3 ADD MSTORE REVERT JUMPDEST PUSH2 0x2BFC SWAP3 POP PUSH1 0x20 DUP1 SWAP2 DUP4 ADD ADD SWAP2 ADD PUSH2 0x2B7D JUMP JUMPDEST ISZERO CODESIZE DUP1 PUSH2 0x2BC8 JUMP JUMPDEST SWAP1 PUSH2 0x2C2B JUMPI POP DUP1 MLOAD ISZERO PUSH2 0x2C19 JUMPI DUP1 MLOAD SWAP1 PUSH1 0x20 ADD REVERT JUMPDEST PUSH1 0x40 MLOAD PUSH4 0xA12F521 PUSH1 0xE1 SHL DUP2 MSTORE PUSH1 0x4 SWAP1 REVERT JUMPDEST DUP2 MLOAD ISZERO DUP1 PUSH2 0x2C5E JUMPI JUMPDEST PUSH2 0x2C3C JUMPI POP SWAP1 JUMP JUMPDEST PUSH1 0x40 MLOAD PUSH4 0x9996B315 PUSH1 0xE0 SHL DUP2 MSTORE PUSH1 0x1 PUSH1 0x1 PUSH1 0xA0 SHL SUB SWAP1 SWAP2 AND PUSH1 0x4 DUP3 ADD MSTORE PUSH1 0x24 SWAP1 REVERT JUMPDEST POP DUP1 EXTCODESIZE ISZERO PUSH2 0x2C34 JUMP INVALID SWAP1 AND 0xD0 SWAP14 PUSH19 0xD40FDAE2FD8CEAC6B6234C7706214FD39C1CD1 0xE6 MULMOD LOG0 MSTORE DUP13 NOT SWAP4 STOP 0xAF SWAP10 ADDRESS SWAP5 0xC8 0xEA LOG0 0xAB 0xDF 0xFC 0xC6 CODESIZE 0xBC DUP14 DUP8 0xF9 0xC9 0xA5 0xF SWAP5 TSTORE 0xB9 0xB9 SWAP11 0xB0 0xB6 PUSH9 0x1EAB4F4F05AF993094 0xC8 0xEA LOG0 0xAB 0xDF 0xFC 0xC6 CODESIZE 0xBC DUP14 DUP8 0xF9 0xC9 0xA5 0xF SWAP5 TSTORE 0xB9 0xB9 SWAP11 0xB0 0xB6 PUSH9 0x1EAB4F4F01F7D7E697 CALLDATASIZE DIV SMOD 0xAF PUSH19 0xF21B9DD15AD33DCCEC16D662D65C043A3B77C0 0xC9 0xD1 0xB2 PUSH11 0x360894A13BA1A3210667C8 0x28 BLOBHASH 0x2D 0xB9 DUP14 0xCA RETURNDATACOPY KECCAK256 PUSH23 0xCC3735A920A3CA505D382BBCF0C57E16840DF040F15088 0xDC 0x2F DUP2 INVALID CODECOPY SHR CODECOPY 0x23 0xBE 0xC7 RETURNDATACOPY 0x23 0xA9 PUSH7 0x2EFC9C229C6A00 0xAF SWAP10 ADDRESS SWAP5 0xC8 0xEA LOG0 0xAB 0xDF 0xFC 0xC6 CODESIZE 0xBC DUP14 DUP8 0xF9 0xC9 0xA5 0xF SWAP5 TSTORE 0xB9 0xB9 SWAP11 0xB0 0xB6 PUSH9 0x1EAB4F4F06A2646970 PUSH7 0x7358221220D220 0xA7 PUSH17 0x35BF92D11D7C66CD495799567D140EB688 CREATE PUSH14 0xD6EB2507324A2BE1E164736F6C63 NUMBER STOP ADDMOD XOR STOP CALLER "},"methodIdentifiers":{"AVS_DIRECTORY()":"ad656c56","EIGEN_DELEGATION_MANAGER()":"f2251b0f","EIGEN_POD_MANAGER()":"0a732358","EIGEN_REWARDS_COORDINATOR()":"141fbdf2","UPGRADE_INTERFACE_VERSION()":"ad3cb1cc","calculateOperatorAVSRegistrationDigestHash(address,address,bytes32,uint256)":"a1060c88","ecdsa_check(bytes32,bytes)":"6d50275d","finishDeregisterOperator()":"e3672163","getDeregistrationDelay()":"8495feab","getOperator(address)":"5865c60c","getOperatorRestakedStrategies(address)":"33cfb7b7","getOperators()":"27a099d8","getRestakeableStrategies()":"e481af9d","initialize(address,address,address,address,uint64)":"00feb1d8","latestRewardedEra()":"1ed6e115","owner()":"8da5cb5b","proxiableUUID()":"52d1902d","registerOperator((bytes,bytes32,uint256),bytes32)":"ca1e1d67","renounceOwnership()":"715018a6","setAllowlistRestakingStrategy(address,bool)":"43adc491","setClaimerFor(address)":"a0169ddd","setDeregistrationDelay(uint64)":"84a3f19b","startDeregisterOperator()":"389517e4","submitOperatorRewards(uint256,((address,uint96)[],address,(address,uint256)[],uint32,uint32,string)[])":"9375e713","transferOwnership(address)":"f2fde38b","updateAVSMetadata(address,string)":"d32f562b","updateAVSMetadataURI(string)":"a98fb355","upgradeToAndCall(address,bytes)":"4f1ef286"}},"storageLayout":{"storage":[{"astId":3898,"contract":"contracts/VerisenseAVSManager.sol:VerisenseAVSManager","label":"EIGEN_POD_MANAGER","offset":0,"slot":"0","type":"t_contract(IEigenPodManager)6649"},{"astId":3901,"contract":"contracts/VerisenseAVSManager.sol:VerisenseAVSManager","label":"EIGEN_DELEGATION_MANAGER","offset":0,"slot":"1","type":"t_contract(IDelegationManager)6133"},{"astId":3904,"contract":"contracts/VerisenseAVSManager.sol:VerisenseAVSManager","label":"EIGEN_REWARDS_COORDINATOR","offset":0,"slot":"2","type":"t_contract(IRewardsCoordinator)7278"},{"astId":3907,"contract":"contracts/VerisenseAVSManager.sol:VerisenseAVSManager","label":"AVS_DIRECTORY","offset":0,"slot":"3","type":"t_contract(IAVSDirectory)5608"}],"types":{"t_contract(IAVSDirectory)5608":{"encoding":"inplace","label":"contract IAVSDirectory","numberOfBytes":"20"},"t_contract(IDelegationManager)6133":{"encoding":"inplace","label":"contract IDelegationManager","numberOfBytes":"20"},"t_contract(IEigenPodManager)6649":{"encoding":"inplace","label":"contract IEigenPodManager","numberOfBytes":"20"},"t_contract(IRewardsCoordinator)7278":{"encoding":"inplace","label":"contract IRewardsCoordinator","numberOfBytes":"20"}}}}}}