{
  "_format": "hh-sol-artifact-1",
  "contractName": "VerisenseAVSManager",
  "sourceName": "contracts/VerisenseAVSManager.sol",
  "abi": [
    {
      "inputs": [],
      "name": "AVSOperatorStatusCallFailed",
      "type": "error"
    },
    {
      "inputs": [
        {
          "internalType": "address",
          "name": "target",
          "type": "address"
        }
      ],
      "name": "AddressEmptyCode",
      "type": "error"
    },
    {
      "inputs": [
        {
          "internalType": "address",
          "name": "account",
          "type": "address"
        }
      ],
      "name": "AddressInsufficientBalance",
      "type": "error"
    },
    {
      "inputs": [],
      "name": "CommitmentChangeNotReady",
      "type": "error"
    },
    {
      "inputs": [],
      "name": "DelegateKeyNotSet",
      "type": "error"
    },
    {
      "inputs": [],
      "name": "DeregistrationAlreadyStarted",
      "type": "error"
    },
    {
      "inputs": [],
      "name": "DeregistrationDelayNotElapsed",
      "type": "error"
    },
    {
      "inputs": [],
      "name": "DeregistrationNotStarted",
      "type": "error"
    },
    {
      "inputs": [],
      "name": "ECDSAInvalidSignature",
      "type": "error"
    },
    {
      "inputs": [
        {
          "internalType": "uint256",
          "name": "length",
          "type": "uint256"
        }
      ],
      "name": "ECDSAInvalidSignatureLength",
      "type": "error"
    },
    {
      "inputs": [
        {
          "internalType": "bytes32",
          "name": "s",
          "type": "bytes32"
        }
      ],
      "name": "ECDSAInvalidSignatureS",
      "type": "error"
    },
    {
      "inputs": [
        {
          "internalType": "address",
          "name": "implementation",
          "type": "address"
        }
      ],
      "name": "ERC1967InvalidImplementation",
      "type": "error"
    },
    {
      "inputs": [],
      "name": "ERC1967NonPayable",
      "type": "error"
    },
    {
      "inputs": [],
      "name": "FailedInnerCall",
      "type": "error"
    },
    {
      "inputs": [],
      "name": "InvalidAVSDirectoryAddress",
      "type": "error"
    },
    {
      "inputs": [],
      "name": "InvalidEigenDelegationManagerAddress",
      "type": "error"
    },
    {
      "inputs": [],
      "name": "InvalidEigenPodManagerAddress",
      "type": "error"
    },
    {
      "inputs": [],
      "name": "InvalidInitialization",
      "type": "error"
    },
    {
      "inputs": [],
      "name": "InvalidRewardsCoordinatorAddress",
      "type": "error"
    },
    {
      "inputs": [],
      "name": "NoEigenPod",
      "type": "error"
    },
    {
      "inputs": [],
      "name": "NotDelegatedToOperator",
      "type": "error"
    },
    {
      "inputs": [],
      "name": "NotInitializing",
      "type": "error"
    },
    {
      "inputs": [],
      "name": "NotOperator",
      "type": "error"
    },
    {
      "inputs": [],
      "name": "NotValidatorOperator",
      "type": "error"
    },
    {
      "inputs": [],
      "name": "OperatorHasValidators",
      "type": "error"
    },
    {
      "inputs": [],
      "name": "OperatorNotRegistered",
      "type": "error"
    },
    {
      "inputs": [
        {
          "internalType": "address",
          "name": "owner",
          "type": "address"
        }
      ],
      "name": "OwnableInvalidOwner",
      "type": "error"
    },
    {
      "inputs": [
        {
          "internalType": "address",
          "name": "account",
          "type": "address"
        }
      ],
      "name": "OwnableUnauthorizedAccount",
      "type": "error"
    },
    {
      "inputs": [],
      "name": "RestakingStrategyAllowlistUpdateFailed",
      "type": "error"
    },
    {
      "inputs": [
        {
          "internalType": "address",
          "name": "token",
          "type": "address"
        }
      ],
      "name": "SafeERC20FailedOperation",
      "type": "error"
    },
    {
      "inputs": [],
      "name": "UUPSUnauthorizedCallContext",
      "type": "error"
    },
    {
      "inputs": [
        {
          "internalType": "bytes32",
          "name": "slot",
          "type": "bytes32"
        }
      ],
      "name": "UUPSUnsupportedProxiableUUID",
      "type": "error"
    },
    {
      "inputs": [],
      "name": "ValidatorAlreadyDeregistered",
      "type": "error"
    },
    {
      "inputs": [],
      "name": "ValidatorAlreadyRegistered",
      "type": "error"
    },
    {
      "inputs": [],
      "name": "ValidatorNotActive",
      "type": "error"
    },
    {
      "anonymous": false,
      "inputs": [
        {
          "indexed": false,
          "internalType": "uint64",
          "name": "oldDelay",
          "type": "uint64"
        },
        {
          "indexed": false,
          "internalType": "uint64",
          "name": "newDelay",
          "type": "uint64"
        }
      ],
      "name": "DeregistrationDelaySet",
      "type": "event"
    },
    {
      "anonymous": false,
      "inputs": [
        {
          "indexed": false,
          "internalType": "uint64",
          "name": "version",
          "type": "uint64"
        }
      ],
      "name": "Initialized",
      "type": "event"
    },
    {
      "anonymous": false,
      "inputs": [
        {
          "indexed": true,
          "internalType": "address",
          "name": "operator",
          "type": "address"
        }
      ],
      "name": "OperatorDeregisterStarted",
      "type": "event"
    },
    {
      "anonymous": false,
      "inputs": [
        {
          "indexed": true,
          "internalType": "address",
          "name": "operator",
          "type": "address"
        }
      ],
      "name": "OperatorDeregistered",
      "type": "event"
    },
    {
      "anonymous": false,
      "inputs": [
        {
          "indexed": true,
          "internalType": "address",
          "name": "operator",
          "type": "address"
        }
      ],
      "name": "OperatorRegistered",
      "type": "event"
    },
    {
      "anonymous": false,
      "inputs": [],
      "name": "OperatorRewardsSubmitted",
      "type": "event"
    },
    {
      "anonymous": false,
      "inputs": [
        {
          "indexed": true,
          "internalType": "address",
          "name": "previousOwner",
          "type": "address"
        },
        {
          "indexed": true,
          "internalType": "address",
          "name": "newOwner",
          "type": "address"
        }
      ],
      "name": "OwnershipTransferred",
      "type": "event"
    },
    {
      "anonymous": false,
      "inputs": [
        {
          "indexed": true,
          "internalType": "address",
          "name": "strategy",
          "type": "address"
        },
        {
          "indexed": false,
          "internalType": "bool",
          "name": "allowed",
          "type": "bool"
        }
      ],
      "name": "RestakingStrategyAllowlistUpdated",
      "type": "event"
    },
    {
      "anonymous": false,
      "inputs": [
        {
          "indexed": true,
          "internalType": "address",
          "name": "implementation",
          "type": "address"
        }
      ],
      "name": "Upgraded",
      "type": "event"
    },
    {
      "anonymous": false,
      "inputs": [
        {
          "indexed": true,
          "internalType": "address",
          "name": "operator",
          "type": "address"
        },
        {
          "indexed": false,
          "internalType": "bytes32",
          "name": "blsPubKeyHash",
          "type": "bytes32"
        }
      ],
      "name": "ValidatorDeregistered",
      "type": "event"
    },
    {
      "anonymous": false,
      "inputs": [
        {
          "indexed": true,
          "internalType": "address",
          "name": "podOwner",
          "type": "address"
        },
        {
          "indexed": true,
          "internalType": "address",
          "name": "operator",
          "type": "address"
        },
        {
          "indexed": false,
          "internalType": "bytes",
          "name": "delegateKey",
          "type": "bytes"
        },
        {
          "indexed": false,
          "internalType": "bytes32",
          "name": "blsPubKeyHash",
          "type": "bytes32"
        },
        {
          "indexed": false,
          "internalType": "uint256",
          "name": "validatorIndex",
          "type": "uint256"
        }
      ],
      "name": "ValidatorRegistered",
      "type": "event"
    },
    {
      "inputs": [],
      "name": "AVS_DIRECTORY",
      "outputs": [
        {
          "internalType": "contract IAVSDirectory",
          "name": "",
          "type": "address"
        }
      ],
      "stateMutability": "view",
      "type": "function"
    },
    {
      "inputs": [],
      "name": "EIGEN_DELEGATION_MANAGER",
      "outputs": [
        {
          "internalType": "contract IDelegationManager",
          "name": "",
          "type": "address"
        }
      ],
      "stateMutability": "view",
      "type": "function"
    },
    {
      "inputs": [],
      "name": "EIGEN_POD_MANAGER",
      "outputs": [
        {
          "internalType": "contract IEigenPodManager",
          "name": "",
          "type": "address"
        }
      ],
      "stateMutability": "view",
      "type": "function"
    },
    {
      "inputs": [],
      "name": "EIGEN_REWARDS_COORDINATOR",
      "outputs": [
        {
          "internalType": "contract IRewardsCoordinator",
          "name": "",
          "type": "address"
        }
      ],
      "stateMutability": "view",
      "type": "function"
    },
    {
      "inputs": [],
      "name": "UPGRADE_INTERFACE_VERSION",
      "outputs": [
        {
          "internalType": "string",
          "name": "",
          "type": "string"
        }
      ],
      "stateMutability": "view",
      "type": "function"
    },
    {
      "inputs": [
        {
          "internalType": "address",
          "name": "operator",
          "type": "address"
        },
        {
          "internalType": "address",
          "name": "avs",
          "type": "address"
        },
        {
          "internalType": "bytes32",
          "name": "salt",
          "type": "bytes32"
        },
        {
          "internalType": "uint256",
          "name": "expiry",
          "type": "uint256"
        }
      ],
      "name": "calculateOperatorAVSRegistrationDigestHash",
      "outputs": [
        {
          "internalType": "bytes32",
          "name": "",
          "type": "bytes32"
        }
      ],
      "stateMutability": "view",
      "type": "function"
    },
    {
      "inputs": [
        {
          "internalType": "bytes32",
          "name": "message_hash",
          "type": "bytes32"
        },
        {
          "internalType": "bytes",
          "name": "signature",
          "type": "bytes"
        }
      ],
      "name": "ecdsa_check",
      "outputs": [
        {
          "internalType": "address",
          "name": "",
          "type": "address"
        }
      ],
      "stateMutability": "pure",
      "type": "function"
    },
    {
      "inputs": [],
      "name": "finishDeregisterOperator",
      "outputs": [],
      "stateMutability": "nonpayable",
      "type": "function"
    },
    {
      "inputs": [],
      "name": "getDeregistrationDelay",
      "outputs": [
        {
          "internalType": "uint64",
          "name": "",
          "type": "uint64"
        }
      ],
      "stateMutability": "view",
      "type": "function"
    },
    {
      "inputs": [
        {
          "internalType": "address",
          "name": "operator",
          "type": "address"
        }
      ],
      "name": "getOperator",
      "outputs": [
        {
          "components": [
            {
              "internalType": "uint128",
              "name": "startDeregisterOperatorBlock",
              "type": "uint128"
            },
            {
              "internalType": "bool",
              "name": "isRegistered",
              "type": "bool"
            }
          ],
          "internalType": "struct IVerisenseAVSManager.OperatorDataExtended",
          "name": "",
          "type": "tuple"
        }
      ],
      "stateMutability": "view",
      "type": "function"
    },
    {
      "inputs": [
        {
          "internalType": "address",
          "name": "operator",
          "type": "address"
        }
      ],
      "name": "getOperatorRestakedStrategies",
      "outputs": [
        {
          "internalType": "address[]",
          "name": "restakedStrategies",
          "type": "address[]"
        }
      ],
      "stateMutability": "view",
      "type": "function"
    },
    {
      "inputs": [],
      "name": "getOperators",
      "outputs": [
        {
          "components": [
            {
              "internalType": "address",
              "name": "operator",
              "type": "address"
            },
            {
              "internalType": "uint256",
              "name": "stake",
              "type": "uint256"
            },
            {
              "internalType": "bytes32",
              "name": "substratePubkey",
              "type": "bytes32"
            },
            {
              "internalType": "address[]",
              "name": "restakedStrategies",
              "type": "address[]"
            }
          ],
          "internalType": "struct IVerisenseAVSManager.OperatorValidData[]",
          "name": "operatorList",
          "type": "tuple[]"
        }
      ],
      "stateMutability": "view",
      "type": "function"
    },
    {
      "inputs": [],
      "name": "getRestakeableStrategies",
      "outputs": [
        {
          "internalType": "address[]",
          "name": "",
          "type": "address[]"
        }
      ],
      "stateMutability": "view",
      "type": "function"
    },
    {
      "inputs": [
        {
          "internalType": "address",
          "name": "eigenPodManagerAddress",
          "type": "address"
        },
        {
          "internalType": "address",
          "name": "eigenDelegationManagerAddress",
          "type": "address"
        },
        {
          "internalType": "address",
          "name": "avsDirectoryAddress",
          "type": "address"
        },
        {
          "internalType": "address",
          "name": "rewardsCoordinatorAddress",
          "type": "address"
        },
        {
          "internalType": "uint64",
          "name": "initialDeregistrationDelay",
          "type": "uint64"
        }
      ],
      "name": "initialize",
      "outputs": [],
      "stateMutability": "nonpayable",
      "type": "function"
    },
    {
      "inputs": [],
      "name": "latestRewardedEra",
      "outputs": [
        {
          "internalType": "uint256",
          "name": "",
          "type": "uint256"
        }
      ],
      "stateMutability": "view",
      "type": "function"
    },
    {
      "inputs": [],
      "name": "owner",
      "outputs": [
        {
          "internalType": "address",
          "name": "",
          "type": "address"
        }
      ],
      "stateMutability": "view",
      "type": "function"
    },
    {
      "inputs": [],
      "name": "proxiableUUID",
      "outputs": [
        {
          "internalType": "bytes32",
          "name": "",
          "type": "bytes32"
        }
      ],
      "stateMutability": "view",
      "type": "function"
    },
    {
      "inputs": [
        {
          "components": [
            {
              "internalType": "bytes",
              "name": "signature",
              "type": "bytes"
            },
            {
              "internalType": "bytes32",
              "name": "salt",
              "type": "bytes32"
            },
            {
              "internalType": "uint256",
              "name": "expiry",
              "type": "uint256"
            }
          ],
          "internalType": "struct ISignatureUtils.SignatureWithSaltAndExpiry",
          "name": "operatorSignature",
          "type": "tuple"
        },
        {
          "internalType": "bytes32",
          "name": "substrate_pubkey",
          "type": "bytes32"
        }
      ],
      "name": "registerOperator",
      "outputs": [],
      "stateMutability": "nonpayable",
      "type": "function"
    },
    {
      "inputs": [],
      "name": "renounceOwnership",
      "outputs": [],
      "stateMutability": "nonpayable",
      "type": "function"
    },
    {
      "inputs": [
        {
          "internalType": "address",
          "name": "strategy",
          "type": "address"
        },
        {
          "internalType": "bool",
          "name": "allowed",
          "type": "bool"
        }
      ],
      "name": "setAllowlistRestakingStrategy",
      "outputs": [],
      "stateMutability": "nonpayable",
      "type": "function"
    },
    {
      "inputs": [
        {
          "internalType": "address",
          "name": "claimer",
          "type": "address"
        }
      ],
      "name": "setClaimerFor",
      "outputs": [],
      "stateMutability": "nonpayable",
      "type": "function"
    },
    {
      "inputs": [
        {
          "internalType": "uint64",
          "name": "newDelay",
          "type": "uint64"
        }
      ],
      "name": "setDeregistrationDelay",
      "outputs": [],
      "stateMutability": "nonpayable",
      "type": "function"
    },
    {
      "inputs": [],
      "name": "startDeregisterOperator",
      "outputs": [],
      "stateMutability": "nonpayable",
      "type": "function"
    },
    {
      "inputs": [
        {
          "internalType": "uint256",
          "name": "eraIndex",
          "type": "uint256"
        },
        {
          "components": [
            {
              "components": [
                {
                  "internalType": "contract IStrategy",
                  "name": "strategy",
                  "type": "address"
                },
                {
                  "internalType": "uint96",
                  "name": "multiplier",
                  "type": "uint96"
                }
              ],
              "internalType": "struct IRewardsCoordinator.StrategyAndMultiplier[]",
              "name": "strategiesAndMultipliers",
              "type": "tuple[]"
            },
            {
              "internalType": "contract IERC20",
              "name": "token",
              "type": "address"
            },
            {
              "components": [
                {
                  "internalType": "address",
                  "name": "operator",
                  "type": "address"
                },
                {
                  "internalType": "uint256",
                  "name": "amount",
                  "type": "uint256"
                }
              ],
              "internalType": "struct IRewardsCoordinator.OperatorReward[]",
              "name": "operatorRewards",
              "type": "tuple[]"
            },
            {
              "internalType": "uint32",
              "name": "startTimestamp",
              "type": "uint32"
            },
            {
              "internalType": "uint32",
              "name": "duration",
              "type": "uint32"
            },
            {
              "internalType": "string",
              "name": "description",
              "type": "string"
            }
          ],
          "internalType": "struct IRewardsCoordinator.OperatorDirectedRewardsSubmission[]",
          "name": "submissions",
          "type": "tuple[]"
        }
      ],
      "name": "submitOperatorRewards",
      "outputs": [],
      "stateMutability": "nonpayable",
      "type": "function"
    },
    {
      "inputs": [
        {
          "internalType": "address",
          "name": "newOwner",
          "type": "address"
        }
      ],
      "name": "transferOwnership",
      "outputs": [],
      "stateMutability": "nonpayable",
      "type": "function"
    },
    {
      "inputs": [
        {
          "internalType": "string",
          "name": "_metadataURI",
          "type": "string"
        }
      ],
      "name": "updateAVSMetadataURI",
      "outputs": [],
      "stateMutability": "nonpayable",
      "type": "function"
    },
    {
      "inputs": [
        {
          "internalType": "address",
          "name": "newImplementation",
          "type": "address"
        },
        {
          "internalType": "bytes",
          "name": "data",
          "type": "bytes"
        }
      ],
      "name": "upgradeToAndCall",
      "outputs": [],
      "stateMutability": "payable",
      "type": "function"
    }
  ],
  "bytecode": "0x60a0806040523461002a5730608052612caa908161003082396080518181816109080152610a430152f35b600080fdfe6080604052600436101561001257600080fd5b60003560e01c8062feb1d8146101c65780630a732358146101c1578063141fbdf2146101bc5780631ed6e115146101b757806327a099d8146101b257806333cfb7b7146101ad578063389517e4146101a857806343adc491146101a35780634f1ef2861461019e57806352d1902d146101995780635865c60c146101945780636d50275d1461018f578063715018a61461018a5780638495feab1461018557806384a3f19b146101805780638da5cb5b1461017b5780639375e71314610176578063a0169ddd14610171578063a1060c881461016c578063a98fb35514610167578063ad3cb1cc14610162578063ad656c561461015d578063ca1e1d6714610158578063e367216314610153578063e481af9d1461014e578063f2251b0f146101495763f2fde38b1461014457600080fd5b611412565b6113e9565b611374565b6111ff565b611124565b6110fb565b6110bd565b610fd9565b610e7d565b610e01565b610c68565b610c32565b610bfd565b610bb7565b610b4c565b610af1565b610a9b565b610a30565b6108c6565b610710565b61062d565b6105f9565b6104a4565b6103b2565b610389565b610360565b6101f7565b6001600160a01b038116036101dc57565b600080fd5b608435906001600160401b03821682036101dc57565b346101dc5760a03660031901126101dc57600435610214816101cb565b60243590610221826101cb565b60443561022d816101cb565b606435610239816101cb565b6102416101e1565b91600080516020612c3583398151915254946001600160401b0360ff8760401c161596168015908161034d575b6001149081610343575b15908161033a575b5061032857600080516020612c35833981519152805467ffffffffffffffff191660011790556102b494866103035761143f565b6102ba57005b600080516020612c35833981519152805460ff60401b19169055604051600181527fc7f505b2f371ae2175ee4913f4499e1f2633a7b5936321eed1cdaeb6115181d290602090a1005b600080516020612c35833981519152805460ff60401b1916600160401b17905561143f565b60405163f92ee8a960e01b8152600490fd5b90501538610280565b303b159150610278565b87915061026e565b60009103126101dc57565b346101dc5760003660031901126101dc576000546040516001600160a01b039091168152602090f35b346101dc5760003660031901126101dc576002546040516001600160a01b039091168152602090f35b346101dc5760003660031901126101dc576020600080516020612bb583398151915254604051908152f35b6020808201908083528351809252604092604081018260408560051b840101960194600080935b86851061041657505050505050505090565b9091929394959697603f198282030185528689519160808260a082840193600180831b039384885116825283880151848301528a8801518b8301526060809801519782015286518095520194019186915b8183106104885750505050806001929a019501950193969594929190610404565b835181168652948401948b949390930192600190920191610467565b346101dc5760003660031901126101dc57600080516020612bd5833981519152546104ce81611565565b6104d6611ba4565b60005b838110610503576104f683856104fa575b604051918291826103dd565b0390f35b600081526104ea565b8061052161051561051560019461247b565b6001600160a01b031690565b8261052b82611c34565b610534816115fa565b14610541575b50016104d9565b60208061055561055084611604565b61163d565b01516105618684611d8e565b61057261056d85611e52565b611fd3565b9261058d61057e610847565b6001600160a01b039096168652565b840152604083015260608201526105a385611694565b526105ad84611694565b503861053a565b602090602060408183019282815285518094520193019160005b8281106105dc575050505090565b83516001600160a01b0316855293810193928101926001016105ce565b346101dc5760203660031901126101dc576104f661062160043561061c816101cb565b611e52565b604051918291826105b4565b346101dc576000806003193601126107035761064833611c34565b60028110156106fe57156106ec573381527faf993094c8eaa0abdffcc638bc8d87f9c9a50f945db9b99ab0b6681eab4f4f00602052604081206001600160401b0390818154166106da576106b29143166001600160401b03166001600160401b0319825416179055565b337f34e20e11f51d19d6e90f5aaea605cb369f34ad23805c51d2e77d05c8208c85858280a280f35b604051630ebf7f5960e31b8152600490fd5b6040516325ec6c1f60e01b8152600490fd5b6115e4565b80fd5b801515036101dc57565b346101dc5760403660031901126101dc5760043561072d816101cb565b6024359061073a82610706565b6107426120e1565b81156107ab5761075a6001600160a01b03821661276f565b156107995760405191151582526001600160a01b0316907f74d2e573146a4c9fbfd23124ce9007a97aebeb715219b83507ec3a05209486bd90602090a2005b6040516379fdfc7d60e01b8152600490fd5b6107bd6001600160a01b0382166125a5565b61075a565b634e487b7160e01b600052604160045260246000fd5b6001600160401b0381116107eb57604052565b6107c2565b604081019081106001600160401b038211176107eb57604052565b608081019081106001600160401b038211176107eb57604052565b90601f801991011681019081106001600160401b038211176107eb57604052565b604051906108548261080b565b565b6001600160401b0381116107eb57601f01601f191660200190565b92919261087d82610856565b9161088b6040519384610826565b8294818452818301116101dc578281602093846000960137010152565b9080601f830112156101dc578160206108c393359101610871565b90565b60403660031901126101dc5760048035906108e0826101cb565b6024356001600160401b0381116101dc576108fe90369083016108a8565b6001600160a01b037f00000000000000000000000000000000000000000000000000000000000000008116308114908115610a14575b50610a035790602083926109466120e1565b6040516352d1902d60e01b8152938491829088165afa600092816109d2575b50610993575050604051634c9c8ce360e01b81526001600160a01b0390921690820190815281906020010390fd5b8383600080516020612c1583398151915284036109b6576109b48383612891565b005b604051632a87526960e21b815290810184815281906020010390fd5b6109f591935060203d6020116109fc575b6109ed8183610826565b810190611a06565b9138610965565b503d6109e3565b60405163703e46dd60e11b81528390fd5b905081600080516020612c158339815191525416141538610934565b346101dc5760003660031901126101dc577f00000000000000000000000000000000000000000000000000000000000000006001600160a01b03163003610a89576020604051600080516020612c158339815191528152f35b60405163703e46dd60e11b8152600490fd5b346101dc5760203660031901126101dc576040610acb600435610abd816101cb565b610ac56116ba565b5061211a565b60208251916fffffffffffffffffffffffffffffffff8151168352015115156020820152f35b346101dc5760403660031901126101dc576024356001600160401b0381116101dc57610b3a610b31610b2960209336906004016108a8565b600435612935565b9092919261297b565b6040516001600160a01b039091168152f35b346101dc5760008060031936011261070357610b666120e1565b600080516020612b9583398151915280546001600160a01b0319811690915581906001600160a01b03167f8be0079c531659141344cd1fd0a4f28419497f9722a3daafe3b4186f6b6457e08280a380f35b346101dc5760003660031901126101dc5760206001600160401b037faf993094c8eaa0abdffcc638bc8d87f9c9a50f945db9b99ab0b6681eab4f4f035416604051908152f35b346101dc5760203660031901126101dc576004356001600160401b03811681036101dc576109b490610c2d6120e1565b611aed565b346101dc5760003660031901126101dc57600080516020612b95833981519152546040516001600160a01b039091168152602090f35b346101dc576040806003193601126101dc576024356001600160401b03918282116101dc57366023830112156101dc5781600401359283116101dc576024820191602436918560051b0101116101dc57610cc06120e1565b610ccb600435612192565b60005b838110610d6d575050600254610cec906001600160a01b0316610515565b91823b156101dc57610d199260009283604051809681958294634e5cd2fd60e11b8452306004850161186f565b03925af18015610d6857610d4f575b7f410f403ed28055ee05512c23d09c2b582fa6d23119e026c0cfc4aa615cab07bb600080a1005b80610d5c610d62926107d8565b80610355565b38610d28565b6119fa565b610d788185856116d3565b600090838101610d8881836116f5565b849291505b808310610dd15750505060019291610db06105156105156020610dcb9501611770565b600254610dc5906001600160a01b0316610515565b90612279565b01610cce565b909193610df86001916020610df088610dea888a6116f5565b9061172a565b013590611763565b94019190610d8d565b346101dc576000602036600319011261070357600435610e20816101cb565b610e286120e1565b6002546001600160a01b0390811691839190833b15610e795760249083604051958694859363a0169ddd60e01b85521660048401525af18015610d6857610e6d575080f35b610e76906107d8565b80f35b8280fd5b346101dc5760803660031901126101dc5760048035610e9b816101cb565b60243590610ea8826101cb565b600354602090610ec0906001600160a01b0316610515565b60405163f698da2560e01b815294859182905afa918215610d68576104f693600093610faa575b50604080517fda2c89bafdd34776a2b8bb9c83c82f419e20cc8c67207f70edd58249b92661bd602082019081526001600160a01b0394851692820192909252929091166060830152604435608083015260643560a0830152610f8b91610f97918160c081015b0391610f61601f1993848101835282610826565b519020604051938491602083019687909160429261190160f01b8352600283015260228201520190565b03908101835282610826565b5190206040519081529081906020820190565b610f97919350610f8b92610fcf610f4d9260203d6020116109fc576109ed8183610826565b9492509250610ee7565b346101dc576000602036600319011261070357806004356001600160401b03811161107157366023820112156110715761101d903690602481600401359101610871565b6110256120e1565b6003546001600160a01b031690813b1561106d57829161105b9160405194858094819363a98fb35560e01b835260048301611074565b03925af18015610d6857610e6d575080f35b5050fd5b50fd5b6020808252825181830181905290939260005b8281106110a957505060409293506000838284010152601f8019910116010190565b818101860151848201604001528501611087565b346101dc5760003660031901126101dc576104f66040516110dd816107f0565b60058152640352e302e360dc1b602082015260405191829182611074565b346101dc5760003660031901126101dc576003546040516001600160a01b039091168152602090f35b346101dc576003196040368201126101dc57600435906001600160401b0382116101dc5760609082360301126101dc57600354611169906001600160a01b0316610515565b90813b156101dc5761119a6040518093818094639926ee7d60e01b8252600096879586926004013360048401611a15565b03925af18015610d68576111ec575b5060243560016111b833611604565b01556111c3336127f7565b50337f4d0eb1f4bac8744fd2be119845e23b3befc88094b42bcda1204c65694a00f9e58280a280f35b80610d5c6111f9926107d8565b386111a9565b346101dc576000806003193601126107035761121a33611c34565b60028110156106fe57156106ec5761124161123433611604565b546001600160401b031690565b6001600160401b038116156113625761128e61129a916112887faf993094c8eaa0abdffcc638bc8d87f9c9a50f945db9b99ab0b6681eab4f4f03546001600160401b031690565b90611a5e565b6001600160401b031690565b4310611350576003546112b5906001600160a01b0316610515565b803b1561134c576040516351b27a6d60e11b81523360048201529082908290602490829084905af18015610d6857611339575b506113076112f533611604565b60026000918281558260018201550155565b611310336126a2565b50337f6dd4ca66565fb3dee8076c654634c6c4ad949022d809d0394308617d6791218d8280a280f35b80610d5c611346926107d8565b386112e8565b5080fd5b60405163207c116160e01b8152600490fd5b60405163a9e6e7eb60e01b8152600490fd5b346101dc5760003660031901126101dc5760405180600080516020612c55833981519152918254808252602080920193600052600080516020612bf5833981519152916000905b8282106113d2576104f68561062181890382610826565b8354865294850194600193840193909101906113bb565b346101dc5760003660031901126101dc576001546040516001600160a01b039091168152602090f35b346101dc5760203660031901126101dc576109b4600435611432816101cb565b61143a6120e1565b611a79565b9293926001600160a01b039081169291831561153c57811691821561152a5781169485156115185716908115611506576114f5946114bb6114d89261149e610c2d9660018060a01b03166001600160601b0360a01b6000541617600055565b60018060a01b03166001600160601b0360a01b6001541617600155565b60018060a01b03166001600160601b0360a01b6003541617600355565b60018060a01b03166001600160601b0360a01b6002541617600255565b6114fe33611b5e565b6108546123d8565b604051637d2b055f60e11b8152600490fd5b604051632225cdcf60e11b8152600490fd5b604051632023de5360e11b8152600490fd5b604051635b9d55c760e11b8152600490fd5b6001600160401b0381116107eb5760051b60200190565b9061156f8261154e565b60409061157f6040519182610826565b8381528093611590601f199161154e565b019060009260005b8381106115a6575050505050565b81519060808201918083106001600160401b038411176107eb5760209284528681528287818301528785830152606080830152828601015201611598565b634e487b7160e01b600052602160045260246000fd5b600211156106fe57565b6001600160a01b031660009081527faf993094c8eaa0abdffcc638bc8d87f9c9a50f945db9b99ab0b6681eab4f4f006020526040902090565b90604051606081016001600160401b0393828210858311176107eb57600260ff91604093845284968154168552600181015460208601520154161515910152565b634e487b7160e01b600052603260045260246000fd5b8051156116a15760200190565b61167e565b80518210156116a15760209160051b010190565b604051906116c7826107f0565b60006020838281520152565b91908110156116a15760051b8101359060be19813603018212156101dc570190565b903590601e19813603018212156101dc57018035906001600160401b0382116101dc57602001918160061b360383136101dc57565b91908110156116a15760061b0190565b634e487b7160e01b600052601160045260246000fd5b906001820180921161175e57565b61173a565b9190820180921161175e57565b356108c3816101cb565b9035601e19823603018112156101dc5701602081359101916001600160401b0382116101dc578160061b360383136101dc57565b3590610854826101cb565b9190808252602080920192916000905b8282106117d7575050505090565b9091929360019085356117e9816101cb565b828060a01b031681528286013583820152604080910195019201909291926117c9565b359063ffffffff821682036101dc57565b9035601e19823603018112156101dc5701602081359101916001600160401b0382116101dc5781360383136101dc57565b908060209392818452848401376000828201840152601f01601f1916010190565b926040938481019060018060a01b0380941681528260209287848401525260608082019060608560051b84010197876000945b8786106118b6575050505050505050505090565b90919293949596979899605f198282030186528a3560be19843603018112156101dc57838991019160c08082016118ed858061177a565b9284529082905260e08301916000908f5b8183106119b3575050505083839261194b61199f936119326119238760019a016117ae565b6001600160a01b031684880152565b61193e8b85018561177a565b908483038d8601526117b9565b9161196661195a8c830161180c565b63ffffffff16838d0152565b611982608061197681840161180c565b63ffffffff1690840152565b61199160a0918281019061181d565b92909181850391015261184e565b9c01960196019498979695939291906118a2565b909280959650939193356119c6816101cb565b1681528c840135906001600160601b0382168092036101dc5789818f936001948394015201940192018c949392918f6118fe565b6040513d6000823e3d90fd5b908160209103126101dc575190565b6001600160a01b039091168152604060208201819052608090611a4b611a3b858061181d565b60608487015260a086019161184e565b9360208101356060850152013591015290565b9190916001600160401b038080941691160191821161175e57565b6001600160a01b03908116908115611ad457600080516020612b9583398151915280546001600160a01b031981168417909155167f8be0079c531659141344cd1fd0a4f28419497f9722a3daafe3b4186f6b6457e0600080a3565b604051631e4fbdf760e01b815260006004820152602490fd5b60407f7d9c9ce14fd1f11f09bf0faca4d408d3bb5815ceb44368d65b408ebc4401165c917faf993094c8eaa0abdffcc638bc8d87f9c9a50f945db9b99ab0b6681eab4f4f038054916001600160401b0380911691826001600160401b031985161790558351921682526020820152a1565b61085490611b6a6123d8565b61143a6123d8565b90611b7c8261154e565b611b896040519182610826565b8281528092611b9a601f199161154e565b0190602036910137565b600080516020612c558339815191528054611bbe81611b72565b916000805b838110611bd1575050505090565b828252600080516020612bf5833981519152810154600191906001600160a01b0316611bfd82886116a6565b5201611bc3565b3d15611c2f573d90611c1582610856565b91611c236040519384610826565b82523d6000602084013e565b606090565b6003546040516349075da360e01b602082019081523060248301526001600160a01b0393841660448301529190921691611c7b81606481015b03601f198101835282610826565b6000928392839251915afa611c8e611c04565b9015611cb35760208180518101031261134c5760200151906002821015610703575090565b604051633d635fe960e11b8152600490fd5b60209081818403126101dc578051906001600160401b0382116101dc57019180601f840112156101dc578251611cfa8161154e565b93611d086040519586610826565b818552838086019260051b8201019283116101dc578301905b828210611d2f575050505090565b81518152908301908301611d21565b6001600160a01b03918216815260406020808301829052845191830182905260609092019382019160005b828110611d7857505050505090565b8351851686529481019492810192600101611d69565b60018054604051639004134760e01b815293919260009285926001600160a01b03169183918291611dc3919060048401611d3e565b03915afa918215610d6857600092611e1e575b50806000926000925b611dea575b50505090565b809391929351841015611e1657611e0184826116a6565b51820180921161175e57828092940192611ddf565b819350611de4565b611e3c9192503d806000833e611e348183610826565b810190611cc5565b9038611dd6565b600019811461175e5760010190565b90606091611e6b6020611e648361211a565b0151151590565b611e73575b50565b9150600080516020612c5583398151915254611e8e81611b72565b9260005b828110611f8f575060018054611ed89392600091879190611ebb906001600160a01b0316610515565b90604051809781948293639004134760e01b845260048401611d3e565b03915afa928315610d6857600093611f72575b50600092611ef883611b72565b95845b848110611f1357505050508110611f0f5750565b8252565b80611f1f8592856116a6565b51611f2b575b01611efb565b611f6d611f4b610515611f3e84876116a6565b516001600160a01b031690565b611f5e611f578a611e43565b998c6116a6565b6001600160a01b039091169052565b611f25565b611f889193503d806000833e611e348183610826565b9138611eeb565b80611fb1611fa76105156105156105156001966124bc565b611f5e83896116a6565b01611e92565b60001981019190821161175e57565b9190820391821161175e57565b805180156120dd57611fe490611b72565b9060005b8151811015612014578061200e612004611f3e600194866116a6565b611f5e83876116a6565b01611fe8565b50506000905b6120248151611fb7565b8210156120d85760005b61204161203c848451611fc6565b611fb7565b8110156120cd578061205b610515611f3e600194866116a6565b612076610515610515611f3e61207086611750565b886116a6565b90838060a01b03161161208a575b0161202e565b6120c86120a2611f3e61209c84611750565b866116a6565b6120be6120b2611f3e85886116a6565b611f5e61207086611750565b611f5e83866116a6565b612084565b50906001019061201a565b905090565b5090565b600080516020612b95833981519152546001600160a01b0316330361210257565b60405163118cdaa760e01b8152336004820152602490fd5b6121226116ba565b506001600160a01b03811660009081527faf993094c8eaa0abdffcc638bc8d87f9c9a50f945db9b99ab0b6681eab4f4f0060205260409020546001600160401b03169061216e90611c34565b60028110156106fe5760019060405192612187846107f0565b835214602082015290565b801561223457600080516020612bb583398151915254806121c05750600080516020612bb583398151915255565b6001810180911161175e5781036121e357600080516020612bb583398151915255565b60405162461bcd60e51b8152602060048201526024808201527f6c617465737420726577617264656420657261206d75737420626520696e206160448201526320726f7760e01b6064820152608490fd5b60405162461bcd60e51b815260206004820152601b60248201527f72657761726420657261206d757374206d6f7265207468616e203000000000006044820152606490fd5b604051636eb1769f60e11b81523060048201526001600160a01b03838116602483015292939092602091838216908386604481855afa958615610d68576000966123a9575b50850180951161175e57600080604051968588019063095ea7b360e01b958683528a1660248a01526044890152604488526122f88861080b565b87519082855af190612308611c04565b82612376575b508161236b575b5015612323575b5050505050565b604051918201526001600160a01b039093166024840152600060448401526123619261235c906123568160648101611c6d565b82612abf565b612abf565b388080808061231c565b90503b151538612315565b809192505190848215928315612391575b505050903861230e565b6123a19350820181019101612aaa565b388481612387565b9095508381813d83116123d1575b6123c18183610826565b810103126101dc575194386122be565b503d6123b7565b60ff600080516020612c358339815191525460401c16156123f557565b604051631afcd79f60e31b8152600490fd5b600080516020612c5583398151915280548210156116a157600052600080516020612bf58339815191520190600090565b600080516020612bd583398151915280548210156116a1576000527f6d5632cd9a7b6dfee21fdcf6c7874238d88c254239c9613977670fb28d0df36b0190600090565b600080516020612bd583398151915280548210156116a1576000527f6d5632cd9a7b6dfee21fdcf6c7874238d88c254239c9613977670fb28d0df36b015490565b600080516020612c5583398151915280548210156116a157600052600080516020612bf5833981519152015490565b600080516020612c55833981519152805490811561253d57600019820191808310156116a1577ff7d7e697360407af72f21b9dd15ad33dccec16d662d65c043a3b77c0c9d1b269600091838352015555565b634e487b7160e01b600052603160045260246000fd5b600080516020612bd5833981519152805490811561253d57600019820191808310156116a1577f6d5632cd9a7b6dfee21fdcf6c7874238d88c254239c9613977670fb28d0df36a600091838352015555565b60008181527faf993094c8eaa0abdffcc638bc8d87f9c9a50f945db9b99ab0b6681eab4f4f076020526040902054801561269b57600019918183019180831161175e57600080516020612c558339815191525493840193841161175e57838360009561264b9503612651575b50505061261c6124eb565b6000527faf993094c8eaa0abdffcc638bc8d87f9c9a50f945db9b99ab0b6681eab4f4f07602052604060002090565b55600190565b61261c6126799161267161266761269295612407565b90549060031b1c90565b928391612407565b90919082549060031b91821b91600019901b1916179055565b55388080612611565b5050600090565b60008181527faf993094c8eaa0abdffcc638bc8d87f9c9a50f945db9b99ab0b6681eab4f4f026020526040902054801561269b57600019918183019180831161175e57600080516020612bd58339815191525493840193841161175e57838360009561264b9503612748575b505050612719612553565b6000527faf993094c8eaa0abdffcc638bc8d87f9c9a50f945db9b99ab0b6681eab4f4f02602052604060002090565b6127196126799161275e61266761276695612438565b928391612438565b5538808061270e565b806000527faf993094c8eaa0abdffcc638bc8d87f9c9a50f945db9b99ab0b6681eab4f4f07806020526040600020541560001461269b57600080516020612c558339815191528054600160401b8110156107eb57600181018083558110156116a1578390600080516020612bf583398151915201555491600052602052604060002055600190565b806000527faf993094c8eaa0abdffcc638bc8d87f9c9a50f945db9b99ab0b6681eab4f4f02806020526040600020541560001461269b57600080516020612bd58339815191528054600160401b8110156107eb57600181018083558110156116a15783907f6d5632cd9a7b6dfee21fdcf6c7874238d88c254239c9613977670fb28d0df36b01555491600052602052604060002055600190565b90813b1561291457600080516020612c1583398151915280546001600160a01b0319166001600160a01b0384169081179091557fbc7cd75a20ee27fd9adebab32041f755214dbc6bffa90cc0225b39da2e5c2d3b600080a28051156128f957611e7091612a08565b50503461290257565b60405163b398979f60e01b8152600490fd5b604051634c9c8ce360e01b81526001600160a01b0383166004820152602490fd5b81519190604183036129665761295f92506020820151906060604084015193015160001a90612a26565b9192909190565b505060009160029190565b600411156106fe57565b61298481612971565b8061298d575050565b61299681612971565b600181036129b05760405163f645eedf60e01b8152600490fd5b6129b981612971565b600281036129da5760405163fce698f760e01b815260048101839052602490fd5b806129e6600392612971565b146129ee5750565b6040516335e2f38360e21b81526004810191909152602490fd5b6000806108c393602081519101845af4612a20611c04565b91612b31565b91907f7fffffffffffffffffffffffffffffff5d576e7357a4501ddfe92f46681b20a08411612a9e57926020929160ff608095604051948552168484015260408301526060820152600092839182805260015afa15610d685780516001600160a01b03811615612a9557918190565b50809160019190565b50505060009160039190565b908160209103126101dc57516108c381610706565b600080612ae89260018060a01b03169360208151910182865af1612ae1611c04565b9083612b31565b8051908115159182612b16575b5050612afe5750565b60249060405190635274afe760e01b82526004820152fd5b612b299250602080918301019101612aaa565b153880612af5565b90612b585750805115612b4657805190602001fd5b604051630a12f52160e11b8152600490fd5b81511580612b8b575b612b69575090565b604051639996b31560e01b81526001600160a01b039091166004820152602490fd5b50803b15612b6156fe9016d09d72d40fdae2fd8ceac6b6234c7706214fd39c1cd1e609a0528c199300af993094c8eaa0abdffcc638bc8d87f9c9a50f945db9b99ab0b6681eab4f4f05af993094c8eaa0abdffcc638bc8d87f9c9a50f945db9b99ab0b6681eab4f4f01f7d7e697360407af72f21b9dd15ad33dccec16d662d65c043a3b77c0c9d1b26a360894a13ba1a3210667c828492db98dca3e2076cc3735a920a3ca505d382bbcf0c57e16840df040f15088dc2f81fe391c3923bec73e23a9662efc9c229c6a00af993094c8eaa0abdffcc638bc8d87f9c9a50f945db9b99ab0b6681eab4f4f06a26469706673582212204c2b674c8474ff844d687ff52eeb2c4629848c26db10b3b86e39a97f75e5343264736f6c63430008180033",
  "linkReferences": {},
  "deployedLinkReferences": {}
}