{
  "_format": "hh-sol-artifact-1",
  "contractName": "VerisenseAVSManager",
  "sourceName": "contracts/VerisenseAVSManager.sol",
  "abi": [
    {
      "inputs": [],
      "name": "AVSOperatorStatusCallFailed",
      "type": "error"
    },
    {
      "inputs": [
        {
          "internalType": "address",
          "name": "target",
          "type": "address"
        }
      ],
      "name": "AddressEmptyCode",
      "type": "error"
    },
    {
      "inputs": [
        {
          "internalType": "address",
          "name": "account",
          "type": "address"
        }
      ],
      "name": "AddressInsufficientBalance",
      "type": "error"
    },
    {
      "inputs": [],
      "name": "CommitmentChangeNotReady",
      "type": "error"
    },
    {
      "inputs": [],
      "name": "DelegateKeyNotSet",
      "type": "error"
    },
    {
      "inputs": [],
      "name": "DeregistrationAlreadyStarted",
      "type": "error"
    },
    {
      "inputs": [],
      "name": "DeregistrationDelayNotElapsed",
      "type": "error"
    },
    {
      "inputs": [],
      "name": "DeregistrationNotStarted",
      "type": "error"
    },
    {
      "inputs": [],
      "name": "ECDSAInvalidSignature",
      "type": "error"
    },
    {
      "inputs": [
        {
          "internalType": "uint256",
          "name": "length",
          "type": "uint256"
        }
      ],
      "name": "ECDSAInvalidSignatureLength",
      "type": "error"
    },
    {
      "inputs": [
        {
          "internalType": "bytes32",
          "name": "s",
          "type": "bytes32"
        }
      ],
      "name": "ECDSAInvalidSignatureS",
      "type": "error"
    },
    {
      "inputs": [
        {
          "internalType": "address",
          "name": "implementation",
          "type": "address"
        }
      ],
      "name": "ERC1967InvalidImplementation",
      "type": "error"
    },
    {
      "inputs": [],
      "name": "ERC1967NonPayable",
      "type": "error"
    },
    {
      "inputs": [],
      "name": "FailedInnerCall",
      "type": "error"
    },
    {
      "inputs": [],
      "name": "InvalidAVSDirectoryAddress",
      "type": "error"
    },
    {
      "inputs": [],
      "name": "InvalidEigenDelegationManagerAddress",
      "type": "error"
    },
    {
      "inputs": [],
      "name": "InvalidEigenPodManagerAddress",
      "type": "error"
    },
    {
      "inputs": [],
      "name": "InvalidInitialization",
      "type": "error"
    },
    {
      "inputs": [],
      "name": "InvalidRewardsCoordinatorAddress",
      "type": "error"
    },
    {
      "inputs": [],
      "name": "NoEigenPod",
      "type": "error"
    },
    {
      "inputs": [],
      "name": "NotDelegatedToOperator",
      "type": "error"
    },
    {
      "inputs": [],
      "name": "NotInitializing",
      "type": "error"
    },
    {
      "inputs": [],
      "name": "NotOperator",
      "type": "error"
    },
    {
      "inputs": [],
      "name": "NotValidatorOperator",
      "type": "error"
    },
    {
      "inputs": [],
      "name": "OperatorHasValidators",
      "type": "error"
    },
    {
      "inputs": [],
      "name": "OperatorNotRegistered",
      "type": "error"
    },
    {
      "inputs": [
        {
          "internalType": "address",
          "name": "owner",
          "type": "address"
        }
      ],
      "name": "OwnableInvalidOwner",
      "type": "error"
    },
    {
      "inputs": [
        {
          "internalType": "address",
          "name": "account",
          "type": "address"
        }
      ],
      "name": "OwnableUnauthorizedAccount",
      "type": "error"
    },
    {
      "inputs": [],
      "name": "RestakingStrategyAllowlistUpdateFailed",
      "type": "error"
    },
    {
      "inputs": [
        {
          "internalType": "address",
          "name": "token",
          "type": "address"
        }
      ],
      "name": "SafeERC20FailedOperation",
      "type": "error"
    },
    {
      "inputs": [],
      "name": "UUPSUnauthorizedCallContext",
      "type": "error"
    },
    {
      "inputs": [
        {
          "internalType": "bytes32",
          "name": "slot",
          "type": "bytes32"
        }
      ],
      "name": "UUPSUnsupportedProxiableUUID",
      "type": "error"
    },
    {
      "inputs": [],
      "name": "ValidatorAlreadyDeregistered",
      "type": "error"
    },
    {
      "inputs": [],
      "name": "ValidatorAlreadyRegistered",
      "type": "error"
    },
    {
      "inputs": [],
      "name": "ValidatorNotActive",
      "type": "error"
    },
    {
      "anonymous": false,
      "inputs": [
        {
          "indexed": false,
          "internalType": "uint64",
          "name": "oldDelay",
          "type": "uint64"
        },
        {
          "indexed": false,
          "internalType": "uint64",
          "name": "newDelay",
          "type": "uint64"
        }
      ],
      "name": "DeregistrationDelaySet",
      "type": "event"
    },
    {
      "anonymous": false,
      "inputs": [
        {
          "indexed": false,
          "internalType": "uint64",
          "name": "version",
          "type": "uint64"
        }
      ],
      "name": "Initialized",
      "type": "event"
    },
    {
      "anonymous": false,
      "inputs": [
        {
          "indexed": true,
          "internalType": "address",
          "name": "operator",
          "type": "address"
        }
      ],
      "name": "OperatorDeregisterStarted",
      "type": "event"
    },
    {
      "anonymous": false,
      "inputs": [
        {
          "indexed": true,
          "internalType": "address",
          "name": "operator",
          "type": "address"
        }
      ],
      "name": "OperatorDeregistered",
      "type": "event"
    },
    {
      "anonymous": false,
      "inputs": [
        {
          "indexed": true,
          "internalType": "address",
          "name": "operator",
          "type": "address"
        }
      ],
      "name": "OperatorRegistered",
      "type": "event"
    },
    {
      "anonymous": false,
      "inputs": [],
      "name": "OperatorRewardsSubmitted",
      "type": "event"
    },
    {
      "anonymous": false,
      "inputs": [
        {
          "indexed": true,
          "internalType": "address",
          "name": "previousOwner",
          "type": "address"
        },
        {
          "indexed": true,
          "internalType": "address",
          "name": "newOwner",
          "type": "address"
        }
      ],
      "name": "OwnershipTransferred",
      "type": "event"
    },
    {
      "anonymous": false,
      "inputs": [
        {
          "indexed": true,
          "internalType": "address",
          "name": "strategy",
          "type": "address"
        },
        {
          "indexed": false,
          "internalType": "bool",
          "name": "allowed",
          "type": "bool"
        }
      ],
      "name": "RestakingStrategyAllowlistUpdated",
      "type": "event"
    },
    {
      "anonymous": false,
      "inputs": [
        {
          "indexed": true,
          "internalType": "address",
          "name": "implementation",
          "type": "address"
        }
      ],
      "name": "Upgraded",
      "type": "event"
    },
    {
      "anonymous": false,
      "inputs": [
        {
          "indexed": true,
          "internalType": "address",
          "name": "operator",
          "type": "address"
        },
        {
          "indexed": false,
          "internalType": "bytes32",
          "name": "blsPubKeyHash",
          "type": "bytes32"
        }
      ],
      "name": "ValidatorDeregistered",
      "type": "event"
    },
    {
      "anonymous": false,
      "inputs": [
        {
          "indexed": true,
          "internalType": "address",
          "name": "podOwner",
          "type": "address"
        },
        {
          "indexed": true,
          "internalType": "address",
          "name": "operator",
          "type": "address"
        },
        {
          "indexed": false,
          "internalType": "bytes",
          "name": "delegateKey",
          "type": "bytes"
        },
        {
          "indexed": false,
          "internalType": "bytes32",
          "name": "blsPubKeyHash",
          "type": "bytes32"
        },
        {
          "indexed": false,
          "internalType": "uint256",
          "name": "validatorIndex",
          "type": "uint256"
        }
      ],
      "name": "ValidatorRegistered",
      "type": "event"
    },
    {
      "inputs": [],
      "name": "AVS_DIRECTORY",
      "outputs": [
        {
          "internalType": "contract IAVSDirectory",
          "name": "",
          "type": "address"
        }
      ],
      "stateMutability": "view",
      "type": "function"
    },
    {
      "inputs": [],
      "name": "EIGEN_DELEGATION_MANAGER",
      "outputs": [
        {
          "internalType": "contract IDelegationManager",
          "name": "",
          "type": "address"
        }
      ],
      "stateMutability": "view",
      "type": "function"
    },
    {
      "inputs": [],
      "name": "EIGEN_POD_MANAGER",
      "outputs": [
        {
          "internalType": "contract IEigenPodManager",
          "name": "",
          "type": "address"
        }
      ],
      "stateMutability": "view",
      "type": "function"
    },
    {
      "inputs": [],
      "name": "EIGEN_REWARDS_COORDINATOR",
      "outputs": [
        {
          "internalType": "contract IRewardsCoordinator",
          "name": "",
          "type": "address"
        }
      ],
      "stateMutability": "view",
      "type": "function"
    },
    {
      "inputs": [],
      "name": "UPGRADE_INTERFACE_VERSION",
      "outputs": [
        {
          "internalType": "string",
          "name": "",
          "type": "string"
        }
      ],
      "stateMutability": "view",
      "type": "function"
    },
    {
      "inputs": [
        {
          "internalType": "address",
          "name": "operator",
          "type": "address"
        },
        {
          "internalType": "address",
          "name": "avs",
          "type": "address"
        },
        {
          "internalType": "bytes32",
          "name": "salt",
          "type": "bytes32"
        },
        {
          "internalType": "uint256",
          "name": "expiry",
          "type": "uint256"
        }
      ],
      "name": "calculateOperatorAVSRegistrationDigestHash",
      "outputs": [
        {
          "internalType": "bytes32",
          "name": "",
          "type": "bytes32"
        }
      ],
      "stateMutability": "view",
      "type": "function"
    },
    {
      "inputs": [
        {
          "internalType": "bytes32",
          "name": "message_hash",
          "type": "bytes32"
        },
        {
          "internalType": "bytes",
          "name": "signature",
          "type": "bytes"
        }
      ],
      "name": "ecdsa_check",
      "outputs": [
        {
          "internalType": "address",
          "name": "",
          "type": "address"
        }
      ],
      "stateMutability": "pure",
      "type": "function"
    },
    {
      "inputs": [],
      "name": "finishDeregisterOperator",
      "outputs": [],
      "stateMutability": "nonpayable",
      "type": "function"
    },
    {
      "inputs": [],
      "name": "getDeregistrationDelay",
      "outputs": [
        {
          "internalType": "uint64",
          "name": "",
          "type": "uint64"
        }
      ],
      "stateMutability": "view",
      "type": "function"
    },
    {
      "inputs": [
        {
          "internalType": "address",
          "name": "operator",
          "type": "address"
        }
      ],
      "name": "getOperator",
      "outputs": [
        {
          "components": [
            {
              "internalType": "uint128",
              "name": "startDeregisterOperatorBlock",
              "type": "uint128"
            },
            {
              "internalType": "bool",
              "name": "isRegistered",
              "type": "bool"
            }
          ],
          "internalType": "struct IVerisenseAVSManager.OperatorDataExtended",
          "name": "",
          "type": "tuple"
        }
      ],
      "stateMutability": "view",
      "type": "function"
    },
    {
      "inputs": [
        {
          "internalType": "address",
          "name": "operator",
          "type": "address"
        }
      ],
      "name": "getOperatorRestakedStrategies",
      "outputs": [
        {
          "internalType": "address[]",
          "name": "restakedStrategies",
          "type": "address[]"
        }
      ],
      "stateMutability": "view",
      "type": "function"
    },
    {
      "inputs": [],
      "name": "getOperators",
      "outputs": [
        {
          "components": [
            {
              "internalType": "address",
              "name": "operator",
              "type": "address"
            },
            {
              "internalType": "uint256",
              "name": "stake",
              "type": "uint256"
            },
            {
              "internalType": "bytes32",
              "name": "substratePubkey",
              "type": "bytes32"
            },
            {
              "internalType": "address[]",
              "name": "restakedStrategies",
              "type": "address[]"
            }
          ],
          "internalType": "struct IVerisenseAVSManager.OperatorValidData[]",
          "name": "operatorList",
          "type": "tuple[]"
        }
      ],
      "stateMutability": "view",
      "type": "function"
    },
    {
      "inputs": [],
      "name": "getRestakeableStrategies",
      "outputs": [
        {
          "internalType": "address[]",
          "name": "",
          "type": "address[]"
        }
      ],
      "stateMutability": "view",
      "type": "function"
    },
    {
      "inputs": [
        {
          "internalType": "address",
          "name": "eigenPodManagerAddress",
          "type": "address"
        },
        {
          "internalType": "address",
          "name": "eigenDelegationManagerAddress",
          "type": "address"
        },
        {
          "internalType": "address",
          "name": "avsDirectoryAddress",
          "type": "address"
        },
        {
          "internalType": "address",
          "name": "rewardsCoordinatorAddress",
          "type": "address"
        },
        {
          "internalType": "uint64",
          "name": "initialDeregistrationDelay",
          "type": "uint64"
        }
      ],
      "name": "initialize",
      "outputs": [],
      "stateMutability": "nonpayable",
      "type": "function"
    },
    {
      "inputs": [],
      "name": "latestRewardedEra",
      "outputs": [
        {
          "internalType": "uint256",
          "name": "",
          "type": "uint256"
        }
      ],
      "stateMutability": "view",
      "type": "function"
    },
    {
      "inputs": [],
      "name": "owner",
      "outputs": [
        {
          "internalType": "address",
          "name": "",
          "type": "address"
        }
      ],
      "stateMutability": "view",
      "type": "function"
    },
    {
      "inputs": [],
      "name": "proxiableUUID",
      "outputs": [
        {
          "internalType": "bytes32",
          "name": "",
          "type": "bytes32"
        }
      ],
      "stateMutability": "view",
      "type": "function"
    },
    {
      "inputs": [
        {
          "components": [
            {
              "internalType": "bytes",
              "name": "signature",
              "type": "bytes"
            },
            {
              "internalType": "bytes32",
              "name": "salt",
              "type": "bytes32"
            },
            {
              "internalType": "uint256",
              "name": "expiry",
              "type": "uint256"
            }
          ],
          "internalType": "struct ISignatureUtils.SignatureWithSaltAndExpiry",
          "name": "operatorSignature",
          "type": "tuple"
        },
        {
          "internalType": "bytes32",
          "name": "substrate_pubkey",
          "type": "bytes32"
        }
      ],
      "name": "registerOperator",
      "outputs": [],
      "stateMutability": "nonpayable",
      "type": "function"
    },
    {
      "inputs": [],
      "name": "renounceOwnership",
      "outputs": [],
      "stateMutability": "nonpayable",
      "type": "function"
    },
    {
      "inputs": [
        {
          "internalType": "address",
          "name": "strategy",
          "type": "address"
        },
        {
          "internalType": "bool",
          "name": "allowed",
          "type": "bool"
        }
      ],
      "name": "setAllowlistRestakingStrategy",
      "outputs": [],
      "stateMutability": "nonpayable",
      "type": "function"
    },
    {
      "inputs": [
        {
          "internalType": "address",
          "name": "claimer",
          "type": "address"
        }
      ],
      "name": "setClaimerFor",
      "outputs": [],
      "stateMutability": "nonpayable",
      "type": "function"
    },
    {
      "inputs": [
        {
          "internalType": "uint64",
          "name": "newDelay",
          "type": "uint64"
        }
      ],
      "name": "setDeregistrationDelay",
      "outputs": [],
      "stateMutability": "nonpayable",
      "type": "function"
    },
    {
      "inputs": [],
      "name": "startDeregisterOperator",
      "outputs": [],
      "stateMutability": "nonpayable",
      "type": "function"
    },
    {
      "inputs": [
        {
          "internalType": "uint256",
          "name": "eraIndex",
          "type": "uint256"
        },
        {
          "components": [
            {
              "components": [
                {
                  "internalType": "contract IStrategy",
                  "name": "strategy",
                  "type": "address"
                },
                {
                  "internalType": "uint96",
                  "name": "multiplier",
                  "type": "uint96"
                }
              ],
              "internalType": "struct IRewardsCoordinator.StrategyAndMultiplier[]",
              "name": "strategiesAndMultipliers",
              "type": "tuple[]"
            },
            {
              "internalType": "contract IERC20",
              "name": "token",
              "type": "address"
            },
            {
              "components": [
                {
                  "internalType": "address",
                  "name": "operator",
                  "type": "address"
                },
                {
                  "internalType": "uint256",
                  "name": "amount",
                  "type": "uint256"
                }
              ],
              "internalType": "struct IRewardsCoordinator.OperatorReward[]",
              "name": "operatorRewards",
              "type": "tuple[]"
            },
            {
              "internalType": "uint32",
              "name": "startTimestamp",
              "type": "uint32"
            },
            {
              "internalType": "uint32",
              "name": "duration",
              "type": "uint32"
            },
            {
              "internalType": "string",
              "name": "description",
              "type": "string"
            }
          ],
          "internalType": "struct IRewardsCoordinator.OperatorDirectedRewardsSubmission[]",
          "name": "submissions",
          "type": "tuple[]"
        }
      ],
      "name": "submitOperatorRewards",
      "outputs": [],
      "stateMutability": "nonpayable",
      "type": "function"
    },
    {
      "inputs": [
        {
          "internalType": "address",
          "name": "newOwner",
          "type": "address"
        }
      ],
      "name": "transferOwnership",
      "outputs": [],
      "stateMutability": "nonpayable",
      "type": "function"
    },
    {
      "inputs": [
        {
          "internalType": "address",
          "name": "allocation_addr",
          "type": "address"
        },
        {
          "internalType": "string",
          "name": "uri",
          "type": "string"
        }
      ],
      "name": "updateAVSMetadata",
      "outputs": [],
      "stateMutability": "nonpayable",
      "type": "function"
    },
    {
      "inputs": [
        {
          "internalType": "string",
          "name": "_metadataURI",
          "type": "string"
        }
      ],
      "name": "updateAVSMetadataURI",
      "outputs": [],
      "stateMutability": "nonpayable",
      "type": "function"
    },
    {
      "inputs": [
        {
          "internalType": "address",
          "name": "newImplementation",
          "type": "address"
        },
        {
          "internalType": "bytes",
          "name": "data",
          "type": "bytes"
        }
      ],
      "name": "upgradeToAndCall",
      "outputs": [],
      "stateMutability": "payable",
      "type": "function"
    }
  ],
  "bytecode": "0x60a0806040523461002a5730608052612d7d9081610030823960805181818161092d0152610a680152f35b600080fdfe6080604052600436101561001257600080fd5b60003560e01c8062feb1d8146101d65780630a732358146101d1578063141fbdf2146101cc5780631ed6e115146101c757806327a099d8146101c257806333cfb7b7146101bd578063389517e4146101b857806343adc491146101b35780634f1ef286146101ae57806352d1902d146101a95780635865c60c146101a45780636d50275d1461019f578063715018a61461019a5780638495feab1461019557806384a3f19b146101905780638da5cb5b1461018b5780639375e71314610186578063a0169ddd14610181578063a1060c881461017c578063a98fb35514610177578063ad3cb1cc14610172578063ad656c561461016d578063ca1e1d6714610168578063d32f562b14610163578063e36721631461015e578063e481af9d14610159578063f2251b0f146101545763f2fde38b1461014f57600080fd5b6114f2565b6114c9565b611454565b6112df565b611224565b611149565b611120565b6110e2565b610ffe565b610ea2565b610e26565b610c8d565b610c57565b610c22565b610bdc565b610b71565b610b16565b610ac0565b610a55565b6108eb565b610735565b610652565b61061e565b6104b4565b6103c2565b610399565b610370565b610207565b6001600160a01b038116036101ec57565b600080fd5b608435906001600160401b03821682036101ec57565b346101ec5760a03660031901126101ec57600435610224816101db565b60243590610231826101db565b60443561023d816101db565b606435610249816101db565b6102516101f1565b91600080516020612d0883398151915254946001600160401b0360ff8760401c161596168015908161035d575b6001149081610353575b15908161034a575b5061033857600080516020612d08833981519152805467ffffffffffffffff191660011790556102c494866103135761151f565b6102ca57005b600080516020612d08833981519152805460ff60401b19169055604051600181527fc7f505b2f371ae2175ee4913f4499e1f2633a7b5936321eed1cdaeb6115181d290602090a1005b600080516020612d08833981519152805460ff60401b1916600160401b17905561151f565b60405163f92ee8a960e01b8152600490fd5b90501538610290565b303b159150610288565b87915061027e565b60009103126101ec57565b346101ec5760003660031901126101ec576000546040516001600160a01b039091168152602090f35b346101ec5760003660031901126101ec576002546040516001600160a01b039091168152602090f35b346101ec5760003660031901126101ec576020600080516020612c8883398151915254604051908152f35b6020808201908083528351809252604092604081018260408560051b840101960194600080935b86851061042657505050505050505090565b9091929394959697603f198282030185528689519160808260a082840193600180831b039384885116825283880151848301528a8801518b8301526060809801519782015286518095520194019186915b8183106104985750505050806001929a019501950193969594929190610414565b835181168652948401948b949390930192600190920191610477565b346101ec5760003660031901126101ec57600080516020612ca8833981519152546104de81611645565b6104e6611c86565b600090815b84811061051857505061050c928110610510575b50604051918291826103ed565b0390f35b8152386104ff565b6105336105276105278361254e565b6001600160a01b031690565b600161053e82611d16565b610547816116da565b14610556575b506001016104eb565b92906105d260019260208061057261056d896116e4565b61171d565b015161057e8789611e70565b61058f61058a8a611f25565b6120a6565b926105aa61059b61086c565b6001600160a01b03909b168b52565b890152604088015260608701526105c081611774565b956105cb828961179e565b528661179e565b509061054d565b602090602060408183019282815285518094520193019160005b828110610601575050505090565b83516001600160a01b0316855293810193928101926001016105f3565b346101ec5760203660031901126101ec5761050c610646600435610641816101db565b611f25565b604051918291826105d9565b346101ec576000806003193601126107285761066d33611d16565b60028110156107235715610711573381527faf993094c8eaa0abdffcc638bc8d87f9c9a50f945db9b99ab0b6681eab4f4f00602052604081206001600160401b0390818154166106ff576106d79143166001600160401b03166001600160401b0319825416179055565b337f34e20e11f51d19d6e90f5aaea605cb369f34ad23805c51d2e77d05c8208c85858280a280f35b604051630ebf7f5960e31b8152600490fd5b6040516325ec6c1f60e01b8152600490fd5b6116c4565b80fd5b801515036101ec57565b346101ec5760403660031901126101ec57600435610752816101db565b6024359061075f8261072b565b6107676121b4565b81156107d05761077f6001600160a01b038216612842565b156107be5760405191151582526001600160a01b0316907f74d2e573146a4c9fbfd23124ce9007a97aebeb715219b83507ec3a05209486bd90602090a2005b6040516379fdfc7d60e01b8152600490fd5b6107e26001600160a01b038216612678565b61077f565b634e487b7160e01b600052604160045260246000fd5b6001600160401b03811161081057604052565b6107e7565b604081019081106001600160401b0382111761081057604052565b608081019081106001600160401b0382111761081057604052565b90601f801991011681019081106001600160401b0382111761081057604052565b6040519061087982610830565b565b6001600160401b03811161081057601f01601f191660200190565b9291926108a28261087b565b916108b0604051938461084b565b8294818452818301116101ec578281602093846000960137010152565b9080601f830112156101ec578160206108e893359101610896565b90565b60403660031901126101ec576004803590610905826101db565b6024356001600160401b0381116101ec5761092390369083016108cd565b6001600160a01b037f00000000000000000000000000000000000000000000000000000000000000008116308114908115610a39575b50610a2857906020839261096b6121b4565b6040516352d1902d60e01b8152938491829088165afa600092816109f7575b506109b8575050604051634c9c8ce360e01b81526001600160a01b0390921690820190815281906020010390fd5b8383600080516020612ce883398151915284036109db576109d98383612964565b005b604051632a87526960e21b815290810184815281906020010390fd5b610a1a91935060203d602011610a21575b610a12818361084b565b810190611ae8565b913861098a565b503d610a08565b60405163703e46dd60e11b81528390fd5b905081600080516020612ce88339815191525416141538610959565b346101ec5760003660031901126101ec577f00000000000000000000000000000000000000000000000000000000000000006001600160a01b03163003610aae576020604051600080516020612ce88339815191528152f35b60405163703e46dd60e11b8152600490fd5b346101ec5760203660031901126101ec576040610af0600435610ae2816101db565b610aea6117b7565b506121ed565b60208251916fffffffffffffffffffffffffffffffff8151168352015115156020820152f35b346101ec5760403660031901126101ec576024356001600160401b0381116101ec57610b5f610b56610b4e60209336906004016108cd565b600435612a08565b90929192612a4e565b6040516001600160a01b039091168152f35b346101ec5760008060031936011261072857610b8b6121b4565b600080516020612c6883398151915280546001600160a01b0319811690915581906001600160a01b03167f8be0079c531659141344cd1fd0a4f28419497f9722a3daafe3b4186f6b6457e08280a380f35b346101ec5760003660031901126101ec5760206001600160401b037faf993094c8eaa0abdffcc638bc8d87f9c9a50f945db9b99ab0b6681eab4f4f035416604051908152f35b346101ec5760203660031901126101ec576004356001600160401b03811681036101ec576109d990610c526121b4565b611bcf565b346101ec5760003660031901126101ec57600080516020612c68833981519152546040516001600160a01b039091168152602090f35b346101ec576040806003193601126101ec576024356001600160401b03918282116101ec57366023830112156101ec5781600401359283116101ec576024820191602436918560051b0101116101ec57610ce56121b4565b610cf0600435612265565b60005b838110610d92575050600254610d11906001600160a01b0316610527565b91823b156101ec57610d3e9260009283604051809681958294634e5cd2fd60e11b84523060048501611951565b03925af18015610d8d57610d74575b7f410f403ed28055ee05512c23d09c2b582fa6d23119e026c0cfc4aa615cab07bb600080a1005b80610d81610d87926107fd565b80610365565b38610d4d565b611adc565b610d9d8185856117d0565b600090838101610dad81836117f2565b849291505b808310610df65750505060019291610dd56105276105276020610df09501611852565b600254610dea906001600160a01b0316610527565b9061234c565b01610cf3565b909193610e1d6001916020610e1588610e0f888a6117f2565b90611827565b013590611845565b94019190610db2565b346101ec576000602036600319011261072857600435610e45816101db565b610e4d6121b4565b6002546001600160a01b0390811691839190833b15610e9e5760249083604051958694859363a0169ddd60e01b85521660048401525af18015610d8d57610e92575080f35b610e9b906107fd565b80f35b8280fd5b346101ec5760803660031901126101ec5760048035610ec0816101db565b60243590610ecd826101db565b600354602090610ee5906001600160a01b0316610527565b60405163f698da2560e01b815294859182905afa918215610d8d5761050c93600093610fcf575b50604080517fda2c89bafdd34776a2b8bb9c83c82f419e20cc8c67207f70edd58249b92661bd602082019081526001600160a01b0394851692820192909252929091166060830152604435608083015260643560a0830152610fb091610fbc918160c081015b0391610f86601f199384810183528261084b565b519020604051938491602083019687909160429261190160f01b8352600283015260228201520190565b0390810183528261084b565b5190206040519081529081906020820190565b610fbc919350610fb092610ff4610f729260203d602011610a2157610a12818361084b565b9492509250610f0c565b346101ec576000602036600319011261072857806004356001600160401b038111611096573660238201121561109657611042903690602481600401359101610896565b61104a6121b4565b6003546001600160a01b031690813b156110925782916110809160405194858094819363a98fb35560e01b835260048301611099565b03925af18015610d8d57610e92575080f35b5050fd5b50fd5b6020808252825181830181905290939260005b8281106110ce57505060409293506000838284010152601f8019910116010190565b8181018601518482016040015285016110ac565b346101ec5760003660031901126101ec5761050c60405161110281610815565b60058152640352e302e360dc1b602082015260405191829182611099565b346101ec5760003660031901126101ec576003546040516001600160a01b039091168152602090f35b346101ec576003196040368201126101ec57600435906001600160401b0382116101ec5760609082360301126101ec5760035461118e906001600160a01b0316610527565b90813b156101ec576111bf6040518093818094639926ee7d60e01b8252600096879586926004013360048401611af7565b03925af18015610d8d57611211575b5060243560016111dd336116e4565b01556111e8336128ca565b50337f4d0eb1f4bac8744fd2be119845e23b3befc88094b42bcda1204c65694a00f9e58280a280f35b80610d8161121e926107fd565b386111ce565b346101ec5760403660031901126101ec57600435611241816101db565b602435906001600160401b03908183116101ec57366023840112156101ec5782600401359182116101ec5736602483850101116101ec576112806121b4565b6001600160a01b031691823b156101ec576112c6926000928360405180968195829463a982182160e01b8452306004850152604060248501526024604485019201611930565b03925af18015610d8d576112d657005b6109d9906107fd565b346101ec57600080600319360112610728576112fa33611d16565b6002811015610723571561071157611321611314336116e4565b546001600160401b031690565b6001600160401b038116156114425761136e61137a916113687faf993094c8eaa0abdffcc638bc8d87f9c9a50f945db9b99ab0b6681eab4f4f03546001600160401b031690565b90611b40565b6001600160401b031690565b431061143057600354611395906001600160a01b0316610527565b803b1561142c576040516351b27a6d60e11b81523360048201529082908290602490829084905af18015610d8d57611419575b506113e76113d5336116e4565b60026000918281558260018201550155565b6113f033612775565b50337f6dd4ca66565fb3dee8076c654634c6c4ad949022d809d0394308617d6791218d8280a280f35b80610d81611426926107fd565b386113c8565b5080fd5b60405163207c116160e01b8152600490fd5b60405163a9e6e7eb60e01b8152600490fd5b346101ec5760003660031901126101ec5760405180600080516020612d28833981519152918254808252602080920193600052600080516020612cc8833981519152916000905b8282106114b25761050c856106468189038261084b565b83548652948501946001938401939091019061149b565b346101ec5760003660031901126101ec576001546040516001600160a01b039091168152602090f35b346101ec5760203660031901126101ec576109d9600435611512816101db565b61151a6121b4565b611b5b565b9293926001600160a01b039081169291831561161c57811691821561160a5781169485156115f857169081156115e6576115d59461159b6115b89261157e610c529660018060a01b03166001600160601b0360a01b6000541617600055565b60018060a01b03166001600160601b0360a01b6001541617600155565b60018060a01b03166001600160601b0360a01b6003541617600355565b60018060a01b03166001600160601b0360a01b6002541617600255565b6115de33611c40565b6108796124ab565b604051637d2b055f60e11b8152600490fd5b604051632225cdcf60e11b8152600490fd5b604051632023de5360e11b8152600490fd5b604051635b9d55c760e11b8152600490fd5b6001600160401b0381116108105760051b60200190565b9061164f8261162e565b60409061165f604051918261084b565b8381528093611670601f199161162e565b019060009260005b838110611686575050505050565b81519060808201918083106001600160401b038411176108105760209284528681528287818301528785830152606080830152828601015201611678565b634e487b7160e01b600052602160045260246000fd5b6002111561072357565b6001600160a01b031660009081527faf993094c8eaa0abdffcc638bc8d87f9c9a50f945db9b99ab0b6681eab4f4f006020526040902090565b90604051606081016001600160401b03938282108583111761081057600260ff91604093845284968154168552600181015460208601520154161515910152565b634e487b7160e01b600052601160045260246000fd5b60001981146117835760010190565b61175e565b634e487b7160e01b600052603260045260246000fd5b80518210156117b25760209160051b010190565b611788565b604051906117c482610815565b60006020838281520152565b91908110156117b25760051b8101359060be19813603018212156101ec570190565b903590601e19813603018212156101ec57018035906001600160401b0382116101ec57602001918160061b360383136101ec57565b91908110156117b25760061b0190565b906001820180921161178357565b9190820180921161178357565b356108e8816101db565b9035601e19823603018112156101ec5701602081359101916001600160401b0382116101ec578160061b360383136101ec57565b3590610879826101db565b9190808252602080920192916000905b8282106118b9575050505090565b9091929360019085356118cb816101db565b828060a01b031681528286013583820152604080910195019201909291926118ab565b359063ffffffff821682036101ec57565b9035601e19823603018112156101ec5701602081359101916001600160401b0382116101ec5781360383136101ec57565b908060209392818452848401376000828201840152601f01601f1916010190565b926040938481019060018060a01b0380941681528260209287848401525260608082019060608560051b84010197876000945b878610611998575050505050505050505090565b90919293949596979899605f198282030186528a3560be19843603018112156101ec57838991019160c08082016119cf858061185c565b9284529082905260e08301916000908f5b818310611a955750505050838392611a2d611a8193611a14611a058760019a01611890565b6001600160a01b031684880152565b611a208b85018561185c565b908483038d86015261189b565b91611a48611a3c8c83016118ee565b63ffffffff16838d0152565b611a646080611a588184016118ee565b63ffffffff1690840152565b611a7360a091828101906118ff565b929091818503910152611930565b9c0196019601949897969593929190611984565b90928095965093919335611aa8816101db565b1681528c840135906001600160601b0382168092036101ec5789818f936001948394015201940192018c949392918f6119e0565b6040513d6000823e3d90fd5b908160209103126101ec575190565b6001600160a01b039091168152604060208201819052608090611b2d611b1d85806118ff565b60608487015260a0860191611930565b9360208101356060850152013591015290565b9190916001600160401b038080941691160191821161178357565b6001600160a01b03908116908115611bb657600080516020612c6883398151915280546001600160a01b031981168417909155167f8be0079c531659141344cd1fd0a4f28419497f9722a3daafe3b4186f6b6457e0600080a3565b604051631e4fbdf760e01b815260006004820152602490fd5b60407f7d9c9ce14fd1f11f09bf0faca4d408d3bb5815ceb44368d65b408ebc4401165c917faf993094c8eaa0abdffcc638bc8d87f9c9a50f945db9b99ab0b6681eab4f4f038054916001600160401b0380911691826001600160401b031985161790558351921682526020820152a1565b61087990611c4c6124ab565b61151a6124ab565b90611c5e8261162e565b611c6b604051918261084b565b8281528092611c7c601f199161162e565b0190602036910137565b600080516020612d288339815191528054611ca081611c54565b916000805b838110611cb3575050505090565b828252600080516020612cc8833981519152810154600191906001600160a01b0316611cdf828861179e565b5201611ca5565b3d15611d11573d90611cf78261087b565b91611d05604051938461084b565b82523d6000602084013e565b606090565b6003546040516349075da360e01b602082019081523060248301526001600160a01b0393841660448301529190921691611d5d81606481015b03601f19810183528261084b565b6000928392839251915afa611d70611ce6565b9015611d955760208180518101031261142c5760200151906002821015610728575090565b604051633d635fe960e11b8152600490fd5b60209081818403126101ec578051906001600160401b0382116101ec57019180601f840112156101ec578251611ddc8161162e565b93611dea604051958661084b565b818552838086019260051b8201019283116101ec578301905b828210611e11575050505090565b81518152908301908301611e03565b6001600160a01b03918216815260406020808301829052845191830182905260609092019382019160005b828110611e5a57505050505090565b8351851686529481019492810192600101611e4b565b60018054604051639004134760e01b815293919260009285926001600160a01b03169183918291611ea5919060048401611e20565b03915afa918215610d8d57600092611f00575b50806000926000925b611ecc575b50505090565b809391929351841015611ef857611ee3848261179e565b51820180921161178357828092940192611ec1565b819350611ec6565b611f1e9192503d806000833e611f16818361084b565b810190611da7565b9038611eb8565b90606091611f3e6020611f37836121ed565b0151151590565b611f46575b50565b9150600080516020612d2883398151915254611f6181611c54565b9260005b828110612062575060018054611fab9392600091879190611f8e906001600160a01b0316610527565b90604051809781948293639004134760e01b845260048401611e20565b03915afa928315610d8d57600093612045575b50600092611fcb83611c54565b95845b848110611fe657505050508110611fe25750565b8252565b80611ff285928561179e565b51611ffe575b01611fce565b61204061201e610527612011848761179e565b516001600160a01b031690565b61203161202a8a611774565b998c61179e565b6001600160a01b039091169052565b611ff8565b61205b9193503d806000833e611f16818361084b565b9138611fbe565b8061208461207a61052761052761052760019661258f565b612031838961179e565b01611f65565b60001981019190821161178357565b9190820391821161178357565b805180156121b0576120b790611c54565b9060005b81518110156120e757806120e16120d76120116001948661179e565b612031838761179e565b016120bb565b50506000905b6120f7815161208a565b8210156121ab5760005b61211461210f848451612099565b61208a565b8110156121a0578061212e6105276120116001948661179e565b61214961052761052761201161214386611837565b8861179e565b90838060a01b03161161215d575b01612101565b61219b61217561201161216f84611837565b8661179e565b612191612185612011858861179e565b61203161214386611837565b612031838661179e565b612157565b5090600101906120ed565b905090565b5090565b600080516020612c68833981519152546001600160a01b031633036121d557565b60405163118cdaa760e01b8152336004820152602490fd5b6121f56117b7565b506001600160a01b03811660009081527faf993094c8eaa0abdffcc638bc8d87f9c9a50f945db9b99ab0b6681eab4f4f0060205260409020546001600160401b03169061224190611d16565b6002811015610723576001906040519261225a84610815565b835214602082015290565b801561230757600080516020612c8883398151915254806122935750600080516020612c8883398151915255565b600181018091116117835781036122b657600080516020612c8883398151915255565b60405162461bcd60e51b8152602060048201526024808201527f6c617465737420726577617264656420657261206d75737420626520696e206160448201526320726f7760e01b6064820152608490fd5b60405162461bcd60e51b815260206004820152601b60248201527f72657761726420657261206d757374206d6f7265207468616e203000000000006044820152606490fd5b604051636eb1769f60e11b81523060048201526001600160a01b03838116602483015292939092602091838216908386604481855afa958615610d8d5760009661247c575b50850180951161178357600080604051968588019063095ea7b360e01b958683528a1660248a01526044890152604488526123cb88610830565b87519082855af1906123db611ce6565b82612449575b508161243e575b50156123f6575b5050505050565b604051918201526001600160a01b039093166024840152600060448401526124349261242f906124298160648101611d4f565b82612b92565b612b92565b38808080806123ef565b90503b1515386123e8565b809192505190848215928315612464575b50505090386123e1565b6124749350820181019101612b7d565b38848161245a565b9095508381813d83116124a4575b612494818361084b565b810103126101ec57519438612391565b503d61248a565b60ff600080516020612d088339815191525460401c16156124c857565b604051631afcd79f60e31b8152600490fd5b600080516020612d2883398151915280548210156117b257600052600080516020612cc88339815191520190600090565b600080516020612ca883398151915280548210156117b2576000527f6d5632cd9a7b6dfee21fdcf6c7874238d88c254239c9613977670fb28d0df36b0190600090565b600080516020612ca883398151915280548210156117b2576000527f6d5632cd9a7b6dfee21fdcf6c7874238d88c254239c9613977670fb28d0df36b015490565b600080516020612d2883398151915280548210156117b257600052600080516020612cc8833981519152015490565b600080516020612d28833981519152805490811561261057600019820191808310156117b2577ff7d7e697360407af72f21b9dd15ad33dccec16d662d65c043a3b77c0c9d1b269600091838352015555565b634e487b7160e01b600052603160045260246000fd5b600080516020612ca8833981519152805490811561261057600019820191808310156117b2577f6d5632cd9a7b6dfee21fdcf6c7874238d88c254239c9613977670fb28d0df36a600091838352015555565b60008181527faf993094c8eaa0abdffcc638bc8d87f9c9a50f945db9b99ab0b6681eab4f4f076020526040902054801561276e57600019918183019180831161178357600080516020612d288339815191525493840193841161178357838360009561271e9503612724575b5050506126ef6125be565b6000527faf993094c8eaa0abdffcc638bc8d87f9c9a50f945db9b99ab0b6681eab4f4f07602052604060002090565b55600190565b6126ef61274c9161274461273a612765956124da565b90549060031b1c90565b9283916124da565b90919082549060031b91821b91600019901b1916179055565b553880806126e4565b5050600090565b60008181527faf993094c8eaa0abdffcc638bc8d87f9c9a50f945db9b99ab0b6681eab4f4f026020526040902054801561276e57600019918183019180831161178357600080516020612ca88339815191525493840193841161178357838360009561271e950361281b575b5050506127ec612626565b6000527faf993094c8eaa0abdffcc638bc8d87f9c9a50f945db9b99ab0b6681eab4f4f02602052604060002090565b6127ec61274c9161283161273a6128399561250b565b92839161250b565b553880806127e1565b806000527faf993094c8eaa0abdffcc638bc8d87f9c9a50f945db9b99ab0b6681eab4f4f07806020526040600020541560001461276e57600080516020612d288339815191528054600160401b81101561081057600181018083558110156117b2578390600080516020612cc883398151915201555491600052602052604060002055600190565b806000527faf993094c8eaa0abdffcc638bc8d87f9c9a50f945db9b99ab0b6681eab4f4f02806020526040600020541560001461276e57600080516020612ca88339815191528054600160401b81101561081057600181018083558110156117b25783907f6d5632cd9a7b6dfee21fdcf6c7874238d88c254239c9613977670fb28d0df36b01555491600052602052604060002055600190565b90813b156129e757600080516020612ce883398151915280546001600160a01b0319166001600160a01b0384169081179091557fbc7cd75a20ee27fd9adebab32041f755214dbc6bffa90cc0225b39da2e5c2d3b600080a28051156129cc57611f4391612adb565b5050346129d557565b60405163b398979f60e01b8152600490fd5b604051634c9c8ce360e01b81526001600160a01b0383166004820152602490fd5b8151919060418303612a3957612a3292506020820151906060604084015193015160001a90612af9565b9192909190565b505060009160029190565b6004111561072357565b612a5781612a44565b80612a60575050565b612a6981612a44565b60018103612a835760405163f645eedf60e01b8152600490fd5b612a8c81612a44565b60028103612aad5760405163fce698f760e01b815260048101839052602490fd5b80612ab9600392612a44565b14612ac15750565b6040516335e2f38360e21b81526004810191909152602490fd5b6000806108e893602081519101845af4612af3611ce6565b91612c04565b91907f7fffffffffffffffffffffffffffffff5d576e7357a4501ddfe92f46681b20a08411612b7157926020929160ff608095604051948552168484015260408301526060820152600092839182805260015afa15610d8d5780516001600160a01b03811615612b6857918190565b50809160019190565b50505060009160039190565b908160209103126101ec57516108e88161072b565b600080612bbb9260018060a01b03169360208151910182865af1612bb4611ce6565b9083612c04565b8051908115159182612be9575b5050612bd15750565b60249060405190635274afe760e01b82526004820152fd5b612bfc9250602080918301019101612b7d565b153880612bc8565b90612c2b5750805115612c1957805190602001fd5b604051630a12f52160e11b8152600490fd5b81511580612c5e575b612c3c575090565b604051639996b31560e01b81526001600160a01b039091166004820152602490fd5b50803b15612c3456fe9016d09d72d40fdae2fd8ceac6b6234c7706214fd39c1cd1e609a0528c199300af993094c8eaa0abdffcc638bc8d87f9c9a50f945db9b99ab0b6681eab4f4f05af993094c8eaa0abdffcc638bc8d87f9c9a50f945db9b99ab0b6681eab4f4f01f7d7e697360407af72f21b9dd15ad33dccec16d662d65c043a3b77c0c9d1b26a360894a13ba1a3210667c828492db98dca3e2076cc3735a920a3ca505d382bbcf0c57e16840df040f15088dc2f81fe391c3923bec73e23a9662efc9c229c6a00af993094c8eaa0abdffcc638bc8d87f9c9a50f945db9b99ab0b6681eab4f4f06a2646970667358221220d220a77035bf92d11d7c66cd495799567d140eb688f06dd6eb2507324a2be1e164736f6c63430008180033",
  "linkReferences": {},
  "deployedLinkReferences": {}
}